{"abi":[{"type":"constructor","inputs":[],"stateMutability":"nonpayable"},{"type":"function","name":"admin","inputs":[],"outputs":[{"name":"","type":"address","internalType":"address"}],"stateMutability":"view"},{"type":"function","name":"approveRole","inputs":[{"name":"account","type":"address","internalType":"address"}],"outputs":[],"stateMutability":"nonpayable"},{"type":"function","name":"getUser","inputs":[{"name":"account","type":"address","internalType":"address"}],"outputs":[{"name":"","type":"tuple","internalType":"struct RoleManager.User","components":[{"name":"role","type":"uint8","internalType":"enum RoleManager.Role"},{"name":"approved","type":"bool","internalType":"bool"},{"name":"requestedRole","type":"uint8","internalType":"enum RoleManager.Role"}]}],"stateMutability":"view"},{"type":"function","name":"getUserRole","inputs":[{"name":"account","type":"address","internalType":"address"}],"outputs":[{"name":"","type":"uint8","internalType":"enum RoleManager.Role"}],"stateMutability":"view"},{"type":"function","name":"hasRole","inputs":[{"name":"account","type":"address","internalType":"address"},{"name":"expectedRole","type":"uint8","internalType":"enum RoleManager.Role"}],"outputs":[{"name":"","type":"bool","internalType":"bool"}],"stateMutability":"view"},{"type":"function","name":"isApproved","inputs":[{"name":"account","type":"address","internalType":"address"}],"outputs":[{"name":"","type":"bool","internalType":"bool"}],"stateMutability":"view"},{"type":"function","name":"rejectRole","inputs":[{"name":"account","type":"address","internalType":"address"}],"outputs":[],"stateMutability":"nonpayable"},{"type":"function","name":"requestRole","inputs":[{"name":"desiredRole","type":"uint8","internalType":"enum RoleManager.Role"}],"outputs":[],"stateMutability":"nonpayable"},{"type":"function","name":"revokeRole","inputs":[{"name":"account","type":"address","internalType":"address"}],"outputs":[],"stateMutability":"nonpayable"},{"type":"event","name":"RoleApproved","inputs":[{"name":"account","type":"address","indexed":true,"internalType":"address"},{"name":"role","type":"uint8","indexed":true,"internalType":"enum RoleManager.Role"}],"anonymous":false},{"type":"event","name":"RoleRejected","inputs":[{"name":"account","type":"address","indexed":true,"internalType":"address"},{"name":"requestedRole","type":"uint8","indexed":true,"internalType":"enum RoleManager.Role"}],"anonymous":false},{"type":"event","name":"RoleRequested","inputs":[{"name":"account","type":"address","indexed":true,"internalType":"address"},{"name":"requestedRole","type":"uint8","indexed":true,"internalType":"enum RoleManager.Role"}],"anonymous":false},{"type":"event","name":"RoleRevoked","inputs":[{"name":"account","type":"address","indexed":true,"internalType":"address"},{"name":"previousRole","type":"uint8","indexed":true,"internalType":"enum RoleManager.Role"}],"anonymous":false},{"type":"error","name":"InvalidRoleRequest","inputs":[]},{"type":"error","name":"NotAdmin","inputs":[]},{"type":"error","name":"NotApproved","inputs":[]},{"type":"error","name":"RoleNotRequested","inputs":[]}],"bytecode":{"object":"0x60a0604052348015600e575f5ffd5b503373ffffffffffffffffffffffffffffffffffffffff1660808173ffffffffffffffffffffffffffffffffffffffff1681525050608051610e9b6100705f395f8181610490015281816107d0015281816109d10152610b8c0152610e9b5ff3fe608060405234801561000f575f5ffd5b5060043610610091575f3560e01c806380e52e3f1161006457806380e52e3f1461014157806395a8c58d1461015d578063ddb3ac261461018d578063e1023b88146101a9578063f851a440146101c557610091565b80631896d2981461009557806327820851146100b1578063673448dd146100e15780636f77926b14610111575b5f5ffd5b6100af60048036038101906100aa9190610c19565b6101e3565b005b6100cb60048036038101906100c69190610c9e565b610304565b6040516100d89190610d3c565b60405180910390f35b6100fb60048036038101906100f69190610c9e565b610357565b6040516101089190610d6f565b60405180910390f35b61012b60048036038101906101269190610c9e565b6103ab565b6040516101389190610de6565b60405180910390f35b61015b60048036038101906101569190610c9e565b61048e565b005b61017760048036038101906101729190610dff565b6106b6565b6040516101849190610d6f565b60405180910390f35b6101a760048036038101906101a29190610c9e565b6107ce565b005b6101c360048036038101906101be9190610c9e565b6109cf565b005b6101cd610b8a565b6040516101da9190610e4c565b60405180910390f35b5f60048111156101f6576101f5610cc9565b5b81600481111561020957610208610cc9565b5b03610240576040517f2ee14bf800000000000000000000000000000000000000000000000000000000815260040160405180910390fd5b5f5f5f3373ffffffffffffffffffffffffffffffffffffffff1673ffffffffffffffffffffffffffffffffffffffff1681526020019081526020015f20905081815f0160026101000a81548160ff021916908360048111156102a5576102a4610cc9565b5b02179055508160048111156102bd576102bc610cc9565b5b3373ffffffffffffffffffffffffffffffffffffffff167ff895b94cb55ee9f608ecb65ff13cf68962fd45bdfcfb5a3eaafcaa1571571e0260405160405180910390a35050565b5f5f5f8373ffffffffffffffffffffffffffffffffffffffff1673ffffffffffffffffffffffffffffffffffffffff1681526020019081526020015f205f015f9054906101000a900460ff169050919050565b5f5f5f8373ffffffffffffffffffffffffffffffffffffffff1673ffffffffffffffffffffffffffffffffffffffff1681526020019081526020015f205f0160019054906101000a900460ff169050919050565b6103b3610bae565b5f5f8373ffffffffffffffffffffffffffffffffffffffff1673ffffffffffffffffffffffffffffffffffffffff1681526020019081526020015f206040518060600160405290815f82015f9054906101000a900460ff16600481111561041d5761041c610cc9565b5b600481111561042f5761042e610cc9565b5b81526020015f820160019054906101000a900460ff161515151581526020015f820160029054906101000a900460ff16600481111561047157610470610cc9565b5b600481111561048357610482610cc9565b5b815250509050919050565b7f000000000000000000000000000000000000000000000000000000000000000073ffffffffffffffffffffffffffffffffffffffff163373ffffffffffffffffffffffffffffffffffffffff1614610513576040517f7bfa4b9f00000000000000000000000000000000000000000000000000000000815260040160405180910390fd5b5f5f5f8373ffffffffffffffffffffffffffffffffffffffff1673ffffffffffffffffffffffffffffffffffffffff1681526020019081526020015f209050805f0160019054906101000a900460ff1615806105a157505f600481111561057d5761057c610cc9565b5b815f015f9054906101000a900460ff16600481111561059f5761059e610cc9565b5b145b156105d8576040517fc19f17a900000000000000000000000000000000000000000000000000000000815260040160405180910390fd5b5f815f015f9054906101000a900460ff1690505f825f015f6101000a81548160ff021916908360048111156106105761060f610cc9565b5b02179055505f825f0160016101000a81548160ff0219169083151502179055505f825f0160026101000a81548160ff0219169083600481111561065657610655610cc9565b5b021790555080600481111561066e5761066d610cc9565b5b8373ffffffffffffffffffffffffffffffffffffffff167f34a1009b84e077aee5bc8197faf7105e54f9ba6879e2a51a716e4156ea9ad76960405160405180910390a3505050565b5f5f5f5f8573ffffffffffffffffffffffffffffffffffffffff1673ffffffffffffffffffffffffffffffffffffffff1681526020019081526020015f206040518060600160405290815f82015f9054906101000a900460ff16600481111561072257610721610cc9565b5b600481111561073457610733610cc9565b5b81526020015f820160019054906101000a900460ff161515151581526020015f820160029054906101000a900460ff16600481111561077657610775610cc9565b5b600481111561078857610787610cc9565b5b815250509050806020015180156107c557508260048111156107ad576107ac610cc9565b5b815f015160048111156107c3576107c2610cc9565b5b145b91505092915050565b7f000000000000000000000000000000000000000000000000000000000000000073ffffffffffffffffffffffffffffffffffffffff163373ffffffffffffffffffffffffffffffffffffffff1614610853576040517f7bfa4b9f00000000000000000000000000000000000000000000000000000000815260040160405180910390fd5b5f5f5f8373ffffffffffffffffffffffffffffffffffffffff1673ffffffffffffffffffffffffffffffffffffffff1681526020019081526020015f2090505f815f0160029054906101000a900460ff1690505f60048111156108b9576108b8610cc9565b5b8160048111156108cc576108cb610cc9565b5b03610903576040517f1557070c00000000000000000000000000000000000000000000000000000000815260040160405180910390fd5b80825f015f6101000a81548160ff0219169083600481111561092857610927610cc9565b5b02179055506001825f0160016101000a81548160ff0219169083151502179055505f825f0160026101000a81548160ff0219169083600481111561096f5761096e610cc9565b5b021790555080600481111561098757610986610cc9565b5b8373ffffffffffffffffffffffffffffffffffffffff167f042f52f18ca9258767cef802b6283a39f6c1053fbd02bee367edc363da679f8660405160405180910390a3505050565b7f000000000000000000000000000000000000000000000000000000000000000073ffffffffffffffffffffffffffffffffffffffff163373ffffffffffffffffffffffffffffffffffffffff1614610a54576040517f7bfa4b9f00000000000000000000000000000000000000000000000000000000815260040160405180910390fd5b5f5f5f8373ffffffffffffffffffffffffffffffffffffffff1673ffffffffffffffffffffffffffffffffffffffff1681526020019081526020015f2090505f815f0160029054906101000a900460ff1690505f6004811115610aba57610ab9610cc9565b5b816004811115610acd57610acc610cc9565b5b03610b04576040517f1557070c00000000000000000000000000000000000000000000000000000000815260040160405180910390fd5b5f825f0160026101000a81548160ff02191690836004811115610b2a57610b29610cc9565b5b0217905550806004811115610b4257610b41610cc9565b5b8373ffffffffffffffffffffffffffffffffffffffff167fad2939eb1a3c8434901565ea2f9156d16b3cfb97d15b819364d38620ba0b19a960405160405180910390a3505050565b7f000000000000000000000000000000000000000000000000000000000000000081565b60405180606001604052805f6004811115610bcc57610bcb610cc9565b5b81526020015f151581526020015f6004811115610bec57610beb610cc9565b5b81525090565b5f5ffd5b60058110610c02575f5ffd5b50565b5f81359050610c1381610bf6565b92915050565b5f60208284031215610c2e57610c2d610bf2565b5b5f610c3b84828501610c05565b91505092915050565b5f73ffffffffffffffffffffffffffffffffffffffff82169050919050565b5f610c6d82610c44565b9050919050565b610c7d81610c63565b8114610c87575f5ffd5b50565b5f81359050610c9881610c74565b92915050565b5f60208284031215610cb357610cb2610bf2565b5b5f610cc084828501610c8a565b91505092915050565b7f4e487b71000000000000000000000000000000000000000000000000000000005f52602160045260245ffd5b60058110610d0757610d06610cc9565b5b50565b5f819050610d1782610cf6565b919050565b5f610d2682610d0a565b9050919050565b610d3681610d1c565b82525050565b5f602082019050610d4f5f830184610d2d565b92915050565b5f8115159050919050565b610d6981610d55565b82525050565b5f602082019050610d825f830184610d60565b92915050565b610d9181610d1c565b82525050565b610da081610d55565b82525050565b606082015f820151610dba5f850182610d88565b506020820151610dcd6020850182610d97565b506040820151610de06040850182610d88565b50505050565b5f606082019050610df95f830184610da6565b92915050565b5f5f60408385031215610e1557610e14610bf2565b5b5f610e2285828601610c8a565b9250506020610e3385828601610c05565b9150509250929050565b610e4681610c63565b82525050565b5f602082019050610e5f5f830184610e3d565b9291505056fea26469706673582212207c7c2fb6f78dbb7dd6c73216da21a84fe42f029111c598a77fd130ca1aec915564736f6c634300081e0033","linkReferences":{}},"methodIdentifiers":{"admin()":"f851a440","approveRole(address)":"ddb3ac26","getUser(address)":"6f77926b","getUserRole(address)":"27820851","hasRole(address,uint8)":"95a8c58d","isApproved(address)":"673448dd","rejectRole(address)":"e1023b88","requestRole(uint8)":"1896d298","revokeRole(address)":"80e52e3f"},"id":16}