{"abi":[{"type":"constructor","inputs":[{"name":"_roleManager","type":"address","internalType":"address"},{"name":"_tokenFactory","type":"address","internalType":"address"}],"stateMutability":"nonpayable"},{"type":"function","name":"admin","inputs":[],"outputs":[{"name":"","type":"address","internalType":"address"}],"stateMutability":"view"},{"type":"function","name":"approveTransfer","inputs":[{"name":"transferId","type":"uint256","internalType":"uint256"}],"outputs":[],"stateMutability":"nonpayable"},{"type":"function","name":"getPendingTransfer","inputs":[{"name":"tokenId","type":"uint256","internalType":"uint256"}],"outputs":[{"name":"","type":"uint256","internalType":"uint256"}],"stateMutability":"view"},{"type":"function","name":"getTokenTransfers","inputs":[{"name":"tokenId","type":"uint256","internalType":"uint256"}],"outputs":[{"name":"history","type":"tuple[]","internalType":"struct TransferManager.Transfer[]","components":[{"name":"id","type":"uint256","internalType":"uint256"},{"name":"tokenId","type":"uint256","internalType":"uint256"},{"name":"from","type":"address","internalType":"address"},{"name":"to","type":"address","internalType":"address"},{"name":"amount","type":"uint256","internalType":"uint256"},{"name":"fromRole","type":"uint8","internalType":"enum RoleManager.Role"},{"name":"toRole","type":"uint8","internalType":"enum RoleManager.Role"},{"name":"status","type":"uint8","internalType":"enum TransferManager.TransferStatus"},{"name":"requestedAt","type":"uint64","internalType":"uint64"},{"name":"resolvedAt","type":"uint64","internalType":"uint64"}]}],"stateMutability":"view"},{"type":"function","name":"getTransfer","inputs":[{"name":"transferId","type":"uint256","internalType":"uint256"}],"outputs":[{"name":"","type":"tuple","internalType":"struct TransferManager.Transfer","components":[{"name":"id","type":"uint256","internalType":"uint256"},{"name":"tokenId","type":"uint256","internalType":"uint256"},{"name":"from","type":"address","internalType":"address"},{"name":"to","type":"address","internalType":"address"},{"name":"amount","type":"uint256","internalType":"uint256"},{"name":"fromRole","type":"uint8","internalType":"enum RoleManager.Role"},{"name":"toRole","type":"uint8","internalType":"enum RoleManager.Role"},{"name":"status","type":"uint8","internalType":"enum TransferManager.TransferStatus"},{"name":"requestedAt","type":"uint64","internalType":"uint64"},{"name":"resolvedAt","type":"uint64","internalType":"uint64"}]}],"stateMutability":"view"},{"type":"function","name":"rejectTransfer","inputs":[{"name":"transferId","type":"uint256","internalType":"uint256"}],"outputs":[],"stateMutability":"nonpayable"},{"type":"function","name":"requestTransfer","inputs":[{"name":"tokenId","type":"uint256","internalType":"uint256"},{"name":"to","type":"address","internalType":"address"},{"name":"amount","type":"uint256","internalType":"uint256"}],"outputs":[{"name":"transferId","type":"uint256","internalType":"uint256"}],"stateMutability":"nonpayable"},{"type":"function","name":"roleManager","inputs":[],"outputs":[{"name":"","type":"address","internalType":"contract RoleManager"}],"stateMutability":"view"},{"type":"function","name":"tokenFactory","inputs":[],"outputs":[{"name":"","type":"address","internalType":"contract TokenFactory"}],"stateMutability":"view"},{"type":"event","name":"TransferRequested","inputs":[{"name":"tokenId","type":"uint256","indexed":true,"internalType":"uint256"},{"name":"transferId","type":"uint256","indexed":true,"internalType":"uint256"},{"name":"to","type":"address","indexed":true,"internalType":"address"}],"anonymous":false},{"type":"event","name":"TransferResolved","inputs":[{"name":"transferId","type":"uint256","indexed":true,"internalType":"uint256"},{"name":"status","type":"uint8","indexed":false,"internalType":"enum TransferManager.TransferStatus"}],"anonymous":false},{"type":"error","name":"AssetDoesNotExist","inputs":[]},{"type":"error","name":"InvalidAddress","inputs":[]},{"type":"error","name":"InvalidRoleTransition","inputs":[]},{"type":"error","name":"NotApproved","inputs":[]},{"type":"error","name":"NotTokenCreator","inputs":[]},{"type":"error","name":"TransferAlreadyPending","inputs":[]},{"type":"error","name":"TransferNotPending","inputs":[]},{"type":"error","name":"Unauthorized","inputs":[]}],"bytecode":{"object":"0x60e060405234801562000010575f80fd5b506040516200163338038062001633833981016040819052620000339162000169565b6001600160a01b03808316608081905290821660a052604080516303e1469160e61b8152905163f851a440916004808201926020929091908290030181865afa15801562000083573d5f803e3d5ffd5b505050506040513d601f19601f82011682018060405250810190620000a991906200019f565b6001600160a01b031660c0525050600460208190527fabd6e7cb50984ff9c2f3e18a2660c3353dadf4e3291deeb275dae2cd1e44fe05805460ff199081166002179091557f91da3fd0782e51c6b3986e9e672fd566868e71f3dbc2d6c2cd6fbb3e361af2a78054821660039081179091555f527f2e174c10e159ea99b867ce3205125c24a42d128804e4070ed6fcc8cc98166aa080549091169091179055620001c2565b80516001600160a01b038116811462000164575f80fd5b919050565b5f80604083850312156200017b575f80fd5b62000186836200014d565b915062000196602084016200014d565b90509250929050565b5f60208284031215620001b0575f80fd5b620001bb826200014d565b9392505050565b60805160a05160c05161140f620002245f395f818161018c0152818161023e0152610ce301525f818161016501528181610562015281816108520152610d6e01525f818160980152818161060a015281816106af01526107a7015261140f5ff3fe608060405234801561000f575f80fd5b506004361061008f575f3560e01c8063c16fe90711610063578063c16fe9071461012d578063cacca4a01461014d578063e77772fe14610160578063f851a44014610187578063f91a7b89146101ae575f80fd5b8062435da51461009357806312effc32146100d757806360cda1df146100ec5780638c7ebcdd1461010c575b5f80fd5b6100ba7f000000000000000000000000000000000000000000000000000000000000000081565b6040516001600160a01b0390911681526020015b60405180910390f35b6100ea6100e5366004610e92565b6101cd565b005b6100ff6100fa366004610e92565b610309565b6040516100ce9190610f8e565b61011f61011a366004610ff3565b6104fc565b6040519081526020016100ce565b61014061013b366004610e92565b610b39565b6040516100ce9190611028565b6100ea61015b366004610e92565b610c72565b6100ba7f000000000000000000000000000000000000000000000000000000000000000081565b6100ba7f000000000000000000000000000000000000000000000000000000000000000081565b61011f6101bc366004610e92565b5f9081526003602052604090205490565b5f81815260016020819052604090912090600582015462010000900460ff1660038111156101fd576101fd610ea9565b1461021b576040516308cd5ef960e31b815260040160405180910390fd5b60038101546001600160a01b031633148015906102615750336001600160a01b037f00000000000000000000000000000000000000000000000000000000000000001614155b1561027e576040516282b42960e81b815260040160405180910390fd5b6005810180546001600160401b034216600160581b0272ffffffffffffffff0000000000000000ff000019909116176203000017905560018101545f90815260036020819052604080832092909255905183917f853633f7219ef573f4075334974cdb356643da4f2331b50454a50fdb836ba0b5916102fd919061103d565b60405180910390a25050565b5f818152600260205260409020805460609190806001600160401b038111156103345761033461104b565b60405190808252806020026020018201604052801561036d57816020015b61035a610e43565b8152602001906001900390816103525790505b5092505f5b818110156104f45760015f84838154811061038f5761038f61105f565b5f918252602080832090910154835282810193909352604091820190208151610140810183528154815260018201549381019390935260028101546001600160a01b0390811692840192909252600381015490911660608301526004808201546080840152600582015460a084019160ff9091169081111561041357610413610ea9565b600481111561042457610424610ea9565b81526020016005820160019054906101000a900460ff16600481111561044c5761044c610ea9565b600481111561045d5761045d610ea9565b81526020016005820160029054906101000a900460ff16600381111561048557610485610ea9565b600381111561049657610496610ea9565b8152600591909101546001600160401b036301000000820481166020840152600160581b9091041660409091015284518590839081106104d8576104d861105f565b6020026020010181905250806104ed90611073565b9050610372565b505050919050565b5f6001600160a01b0383166105245760405163e6c4247b60e01b815260040160405180910390fd5b815f036105445760405163e6c4247b60e01b815260040160405180910390fd5b604051631b2b776160e11b8152600481018590523360248201525f907f00000000000000000000000000000000000000000000000000000000000000006001600160a01b031690633656eec290604401602060405180830381865afa1580156105af573d5f803e3d5ffd5b505050506040513d601f19601f820116820180604052508101906105d39190611097565b9050828110156105f5576040516282b42960e81b815260040160405180910390fd5b60405163673448dd60e01b81523360048201527f00000000000000000000000000000000000000000000000000000000000000006001600160a01b03169063673448dd90602401602060405180830381865afa158015610657573d5f803e3d5ffd5b505050506040513d601f19601f8201168201806040525081019061067b91906110c2565b6106985760405163c19f17a960e01b815260040160405180910390fd5b604051632782085160e01b81523360048201525f907f00000000000000000000000000000000000000000000000000000000000000006001600160a01b031690632782085190602401602060405180830381865afa1580156106fc573d5f803e3d5ffd5b505050506040513d601f19601f8201168201806040525081019061072091906110f0565b90505f60045f83600481111561073857610738610ea9565b600481111561074957610749610ea9565b815260208101919091526040015f9081205460ff16915081600481111561077257610772610ea9565b036107905760405163019c23e760e21b815260040160405180910390fd5b6040516395a8c58d60e01b81526001600160a01b037f000000000000000000000000000000000000000000000000000000000000000016906395a8c58d906107de9089908590600401611109565b602060405180830381865afa1580156107f9573d5f803e3d5ffd5b505050506040513d601f19601f8201168201806040525081019061081d91906110c2565b61083a5760405163019c23e760e21b815260040160405180910390fd5b604051631c96a19760e31b8152600481018890525f907f00000000000000000000000000000000000000000000000000000000000000006001600160a01b03169063e4b50cb8906024015f60405180830381865afa15801561089e573d5f803e3d5ffd5b505050506040513d5f823e601f3d908101601f191682016040526108c591908101906112a9565b905060018360048111156108db576108db610ea9565b036109475760a08101516001600160a01b0316331461090d57604051632bef593560e11b815260040160405180910390fd5b5f8160400151600181111561092457610924610ea9565b146109425760405163019c23e760e21b815260040160405180910390fd5b6109c3565b600283600481111561095b5761095b610ea9565b036109c35760a08101516001600160a01b0316331461098d57604051632bef593560e11b815260040160405180910390fd5b6001816040015160018111156109a5576109a5610ea9565b146109c35760405163019c23e760e21b815260040160405180910390fd5b5f88815260036020526040902054156109ef5760405163a8b2461360e01b815260040160405180910390fd5b5f8081546109fc90611073565b91829055505f8981526003602081815260408084208590556002808352818520805460018082018355918752848720018790558686529283905293208481558082018d90559283018054336001600160a01b03199182161790915591830180549092166001600160a01b038c161790915560048083018a9055600583018054949950929387939260ff19909116918490811115610a9b57610a9b610ea9565b021790555060058101805484919061ff001916610100836004811115610ac357610ac3610ea9565b02179055506005810180546001600160401b0342166301000000026affffffffffffffffff00001990911617620100001790556040516001600160a01b0389169087908b907fc28d753b16bb2547113d290859b97c49710ca25afeaf439b84eca4b64080ae47905f90a450505050509392505050565b610b41610e43565b5f8281526001602081815260409283902083516101408101855281548152928101549183019190915260028101546001600160a01b0390811693830193909352600381015490921660608201526004808301546080830152600583015491929160a084019160ff90911690811115610bbb57610bbb610ea9565b6004811115610bcc57610bcc610ea9565b81526020016005820160019054906101000a900460ff166004811115610bf457610bf4610ea9565b6004811115610c0557610c05610ea9565b81526020016005820160029054906101000a900460ff166003811115610c2d57610c2d610ea9565b6003811115610c3e57610c3e610ea9565b8152600591909101546001600160401b036301000000820481166020840152600160581b9091041660409091015292915050565b5f81815260016020819052604090912090600582015462010000900460ff166003811115610ca257610ca2610ea9565b14610cc0576040516308cd5ef960e31b815260040160405180910390fd5b60038101546001600160a01b03163314801590610d065750336001600160a01b037f00000000000000000000000000000000000000000000000000000000000000001614155b15610d23576040516282b42960e81b815260040160405180910390fd5b6001810154600282015460038301546004808501546040516303f19dd960e51b8152918201949094526001600160a01b039283166024820152908216604482015260648101929092527f00000000000000000000000000000000000000000000000000000000000000001690637e33bb20906084015f604051808303815f87803b158015610daf575f80fd5b505af1158015610dc1573d5f803e3d5ffd5b505050506005810180546001600160401b034216600160581b0272ffffffffffffffff0000000000000000ff000019909116176202000017905560018101545f90815260036020526040808220919091555182907f853633f7219ef573f4075334974cdb356643da4f2331b50454a50fdb836ba0b5906102fd9060029061103d565b60408051610140810182525f8082526020820181905291810182905260608101829052608081018290529060a082019081526020015f81526020015f81525f6020820181905260409091015290565b5f60208284031215610ea2575f80fd5b5035919050565b634e487b7160e01b5f52602160045260245ffd5b60058110610ecd57610ecd610ea9565b9052565b60048110610ecd57610ecd610ea9565b80518252602081015160208301526040810151610f0960408401826001600160a01b03169052565b506060810151610f2460608401826001600160a01b03169052565b506080810151608083015260a0810151610f4160a0840182610ebd565b5060c0810151610f5460c0840182610ebd565b5060e0810151610f6760e0840182610ed1565b50610100818101516001600160401b03908116918401919091526101209182015116910152565b602080825282518282018190525f9190848201906040850190845b81811015610fd057610fbc838551610ee1565b928401926101409290920191600101610fa9565b50909695505050505050565b6001600160a01b0381168114610ff0575f80fd5b50565b5f805f60608486031215611005575f80fd5b83359250602084013561101781610fdc565b929592945050506040919091013590565b61014081016110378284610ee1565b92915050565b602081016110378284610ed1565b634e487b7160e01b5f52604160045260245ffd5b634e487b7160e01b5f52603260045260245ffd5b5f6001820161109057634e487b7160e01b5f52601160045260245ffd5b5060010190565b5f602082840312156110a7575f80fd5b5051919050565b805180151581146110bd575f80fd5b919050565b5f602082840312156110d2575f80fd5b6110db826110ae565b9392505050565b8051600581106110bd575f80fd5b5f60208284031215611100575f80fd5b6110db826110e2565b6001600160a01b0383168152604081016110db6020830184610ebd565b60405161016081016001600160401b03811182821017156111495761114961104b565b60405290565b604051601f8201601f191681016001600160401b03811182821017156111775761117761104b565b604052919050565b5f82601f83011261118e575f80fd5b81516001600160401b038111156111a7576111a761104b565b60206111bb601f8301601f1916820161114f565b82815285828487010111156111ce575f80fd5b5f5b838110156111eb5785810183015182820184015282016111d0565b505f928101909101919091529392505050565b8051600281106110bd575f80fd5b80516110bd81610fdc565b80516001600160401b03811681146110bd575f80fd5b5f82601f83011261123c575f80fd5b815160206001600160401b038211156112575761125761104b565b8160051b61126682820161114f565b928352848101820192828101908785111561127f575f80fd5b83870192505b8483101561129e57825182529183019190830190611285565b979650505050505050565b5f602082840312156112b9575f80fd5b81516001600160401b03808211156112cf575f80fd5b9083019061016082860312156112e3575f80fd5b6112eb611126565b82518152602083015182811115611300575f80fd5b61130c8782860161117f565b60208301525061131e604084016111fe565b6040820152606083015182811115611334575f80fd5b6113408782860161117f565b6060830152506080830151608082015261135c60a0840161120c565b60a082015261136d60c0840161120c565b60c082015261137e60e084016110e2565b60e0820152610100611391818501611217565b9082015261012083810151838111156113a8575f80fd5b6113b48882870161122d565b82840152505061014091506113ca8284016110ae565b9181019190915294935050505056fea26469706673582212209b62bc9e80dbedbce91eff682f4fae4f59b7a0cf47d98631dde6eb345958ae7964736f6c63430008140033","linkReferences":{}},"methodIdentifiers":{"admin()":"f851a440","approveTransfer(uint256)":"cacca4a0","getPendingTransfer(uint256)":"f91a7b89","getTokenTransfers(uint256)":"60cda1df","getTransfer(uint256)":"c16fe907","rejectTransfer(uint256)":"12effc32","requestTransfer(uint256,address,uint256)":"8c7ebcdd","roleManager()":"00435da5","tokenFactory()":"e77772fe"},"id":21}