{"abi":[{"type":"constructor","inputs":[{"name":"_roleManager","type":"address","internalType":"address"},{"name":"_tokenFactory","type":"address","internalType":"address"}],"stateMutability":"nonpayable"},{"type":"function","name":"admin","inputs":[],"outputs":[{"name":"","type":"address","internalType":"address"}],"stateMutability":"view"},{"type":"function","name":"approveTransfer","inputs":[{"name":"transferId","type":"uint256","internalType":"uint256"}],"outputs":[],"stateMutability":"nonpayable"},{"type":"function","name":"getPendingTransfer","inputs":[{"name":"tokenId","type":"uint256","internalType":"uint256"}],"outputs":[{"name":"","type":"uint256","internalType":"uint256"}],"stateMutability":"view"},{"type":"function","name":"getTokenTransfers","inputs":[{"name":"tokenId","type":"uint256","internalType":"uint256"}],"outputs":[{"name":"history","type":"tuple[]","internalType":"struct TransferManager.Transfer[]","components":[{"name":"id","type":"uint256","internalType":"uint256"},{"name":"tokenId","type":"uint256","internalType":"uint256"},{"name":"from","type":"address","internalType":"address"},{"name":"to","type":"address","internalType":"address"},{"name":"fromRole","type":"uint8","internalType":"enum RoleManager.Role"},{"name":"toRole","type":"uint8","internalType":"enum RoleManager.Role"},{"name":"status","type":"uint8","internalType":"enum TransferManager.TransferStatus"},{"name":"requestedAt","type":"uint64","internalType":"uint64"},{"name":"resolvedAt","type":"uint64","internalType":"uint64"}]}],"stateMutability":"view"},{"type":"function","name":"getTransfer","inputs":[{"name":"transferId","type":"uint256","internalType":"uint256"}],"outputs":[{"name":"","type":"tuple","internalType":"struct TransferManager.Transfer","components":[{"name":"id","type":"uint256","internalType":"uint256"},{"name":"tokenId","type":"uint256","internalType":"uint256"},{"name":"from","type":"address","internalType":"address"},{"name":"to","type":"address","internalType":"address"},{"name":"fromRole","type":"uint8","internalType":"enum RoleManager.Role"},{"name":"toRole","type":"uint8","internalType":"enum RoleManager.Role"},{"name":"status","type":"uint8","internalType":"enum TransferManager.TransferStatus"},{"name":"requestedAt","type":"uint64","internalType":"uint64"},{"name":"resolvedAt","type":"uint64","internalType":"uint64"}]}],"stateMutability":"view"},{"type":"function","name":"rejectTransfer","inputs":[{"name":"transferId","type":"uint256","internalType":"uint256"}],"outputs":[],"stateMutability":"nonpayable"},{"type":"function","name":"requestTransfer","inputs":[{"name":"tokenId","type":"uint256","internalType":"uint256"},{"name":"to","type":"address","internalType":"address"}],"outputs":[{"name":"transferId","type":"uint256","internalType":"uint256"}],"stateMutability":"nonpayable"},{"type":"function","name":"roleManager","inputs":[],"outputs":[{"name":"","type":"address","internalType":"contract RoleManager"}],"stateMutability":"view"},{"type":"function","name":"tokenFactory","inputs":[],"outputs":[{"name":"","type":"address","internalType":"contract TokenFactory"}],"stateMutability":"view"},{"type":"event","name":"TransferRequested","inputs":[{"name":"tokenId","type":"uint256","indexed":true,"internalType":"uint256"},{"name":"transferId","type":"uint256","indexed":true,"internalType":"uint256"},{"name":"to","type":"address","indexed":true,"internalType":"address"}],"anonymous":false},{"type":"event","name":"TransferResolved","inputs":[{"name":"transferId","type":"uint256","indexed":true,"internalType":"uint256"},{"name":"status","type":"uint8","indexed":false,"internalType":"enum TransferManager.TransferStatus"}],"anonymous":false},{"type":"error","name":"AssetDoesNotExist","inputs":[]},{"type":"error","name":"InvalidAddress","inputs":[]},{"type":"error","name":"InvalidRoleTransition","inputs":[]},{"type":"error","name":"NotApproved","inputs":[]},{"type":"error","name":"TransferAlreadyPending","inputs":[]},{"type":"error","name":"TransferNotPending","inputs":[]},{"type":"error","name":"Unauthorized","inputs":[]}],"bytecode":{"object":"0x60e060405234801561000f575f5ffd5b50604051611e9f380380611e9f833981810160405281019061003191906102b9565b8173ffffffffffffffffffffffffffffffffffffffff1660808173ffffffffffffffffffffffffffffffffffffffff16815250508073ffffffffffffffffffffffffffffffffffffffff1660a08173ffffffffffffffffffffffffffffffffffffffff168152505060805173ffffffffffffffffffffffffffffffffffffffff1663f851a4406040518163ffffffff1660e01b8152600401602060405180830381865afa1580156100e4573d5f5f3e3d5ffd5b505050506040513d601f19601f8201168201806040525081019061010891906102f7565b73ffffffffffffffffffffffffffffffffffffffff1660c08173ffffffffffffffffffffffffffffffffffffffff1681525050600260045f6001600481111561015457610153610322565b5b600481111561016657610165610322565b5b81526020019081526020015f205f6101000a81548160ff0219169083600481111561019457610193610322565b5b0217905550600360045f600260048111156101b2576101b1610322565b5b60048111156101c4576101c3610322565b5b81526020019081526020015f205f6101000a81548160ff021916908360048111156101f2576101f1610322565b5b02179055506004805f6003600481111561020f5761020e610322565b5b600481111561022157610220610322565b5b81526020019081526020015f205f6101000a81548160ff0219169083600481111561024f5761024e610322565b5b0217905550505061034f565b5f5ffd5b5f73ffffffffffffffffffffffffffffffffffffffff82169050919050565b5f6102888261025f565b9050919050565b6102988161027e565b81146102a2575f5ffd5b50565b5f815190506102b38161028f565b92915050565b5f5f604083850312156102cf576102ce61025b565b5b5f6102dc858286016102a5565b92505060206102ed858286016102a5565b9150509250929050565b5f6020828403121561030c5761030b61025b565b5b5f610319848285016102a5565b91505092915050565b7f4e487b71000000000000000000000000000000000000000000000000000000005f52602160045260245ffd5b60805160a05160c051611af56103aa5f395f81816102e901528181611044015261124d01525f8181610486015281816110cc015261122901525f81816101e8015281816105850152818161065401526107900152611af55ff3fe608060405234801561000f575f5ffd5b5060043610610090575f3560e01c8063c16fe90711610064578063c16fe9071461012e578063cacca4a01461015e578063e77772fe1461017a578063f851a44014610198578063f91a7b89146101b657610090565b8062435da51461009457806312effc32146100b257806340344232146100ce57806360cda1df146100fe575b5f5ffd5b61009c6101e6565b6040516100a991906113bc565b60405180910390f35b6100cc60048036038101906100c7919061140c565b61020a565b005b6100e860048036038101906100e39190611472565b61041d565b6040516100f591906114bf565b60405180910390f35b6101186004803603810190610113919061140c565b610ab0565b604051610125919061172f565b60405180910390f35b6101486004803603810190610143919061140c565b610d68565b6040516101559190611804565b60405180910390f35b6101786004803603810190610173919061140c565b610f65565b005b610182611227565b60405161018f919061183e565b60405180910390f35b6101a061124b565b6040516101ad9190611866565b60405180910390f35b6101d060048036038101906101cb919061140c565b61126f565b6040516101dd91906114bf565b60405180910390f35b7f000000000000000000000000000000000000000000000000000000000000000081565b5f60015f8381526020019081526020015f209050600160038111156102325761023161151f565b5b8160030160169054906101000a900460ff1660038111156102565761025561151f565b5b1461028d576040517f466af7c800000000000000000000000000000000000000000000000000000000815260040160405180910390fd5b3373ffffffffffffffffffffffffffffffffffffffff16816003015f9054906101000a900473ffffffffffffffffffffffffffffffffffffffff1673ffffffffffffffffffffffffffffffffffffffff161415801561033857507f000000000000000000000000000000000000000000000000000000000000000073ffffffffffffffffffffffffffffffffffffffff163373ffffffffffffffffffffffffffffffffffffffff1614155b1561036f576040517f82b4290000000000000000000000000000000000000000000000000000000000815260040160405180910390fd5b60038160030160166101000a81548160ff021916908360038111156103975761039661151f565b5b021790555042816004015f6101000a81548167ffffffffffffffff021916908367ffffffffffffffff1602179055505f60035f836001015481526020019081526020015f2081905550817f853633f7219ef573f4075334974cdb356643da4f2331b50454a50fdb836ba0b56003604051610411919061188e565b60405180910390a25050565b5f5f73ffffffffffffffffffffffffffffffffffffffff168273ffffffffffffffffffffffffffffffffffffffff1603610483576040517fe6c4247b00000000000000000000000000000000000000000000000000000000815260040160405180910390fd5b5f7f000000000000000000000000000000000000000000000000000000000000000073ffffffffffffffffffffffffffffffffffffffff1663ca55954c856040518263ffffffff1660e01b81526004016104dd91906114bf565b602060405180830381865afa1580156104f8573d5f5f3e3d5ffd5b505050506040513d601f19601f8201168201806040525081019061051c91906118bb565b90503373ffffffffffffffffffffffffffffffffffffffff168173ffffffffffffffffffffffffffffffffffffffff1614610583576040517f82b4290000000000000000000000000000000000000000000000000000000000815260040160405180910390fd5b7f000000000000000000000000000000000000000000000000000000000000000073ffffffffffffffffffffffffffffffffffffffff1663673448dd336040518263ffffffff1660e01b81526004016105dc9190611866565b602060405180830381865afa1580156105f7573d5f5f3e3d5ffd5b505050506040513d601f19601f8201168201806040525081019061061b919061191b565b610651576040517fc19f17a900000000000000000000000000000000000000000000000000000000815260040160405180910390fd5b5f7f000000000000000000000000000000000000000000000000000000000000000073ffffffffffffffffffffffffffffffffffffffff166327820851336040518263ffffffff1660e01b81526004016106ab9190611866565b602060405180830381865afa1580156106c6573d5f5f3e3d5ffd5b505050506040513d601f19601f820116820180604052508101906106ea9190611969565b90505f60045f8360048111156107035761070261151f565b5b60048111156107155761071461151f565b5b81526020019081526020015f205f9054906101000a900460ff1690505f60048111156107445761074361151f565b5b8160048111156107575761075661151f565b5b0361078e576040517f06708f9c00000000000000000000000000000000000000000000000000000000815260040160405180910390fd5b7f000000000000000000000000000000000000000000000000000000000000000073ffffffffffffffffffffffffffffffffffffffff166395a8c58d86836040518363ffffffff1660e01b81526004016107e99291906119a3565b602060405180830381865afa158015610804573d5f5f3e3d5ffd5b505050506040513d601f19601f82011682018060405250810190610828919061191b565b61085e576040517f06708f9c00000000000000000000000000000000000000000000000000000000815260040160405180910390fd5b5f60035f8881526020019081526020015f2054146108a8576040517fa8b2461300000000000000000000000000000000000000000000000000000000815260040160405180910390fd5b5f5f81546108b5906119f7565b91905081905593508360035f8881526020019081526020015f208190555060025f8781526020019081526020015f2084908060018154018082558091505060019003905f5260205f20015f90919091909150555f60015f8681526020019081526020015f20905084815f018190555086816001018190555033816002015f6101000a81548173ffffffffffffffffffffffffffffffffffffffff021916908373ffffffffffffffffffffffffffffffffffffffff16021790555085816003015f6101000a81548173ffffffffffffffffffffffffffffffffffffffff021916908373ffffffffffffffffffffffffffffffffffffffff160217905550828160030160146101000a81548160ff021916908360048111156109d8576109d761151f565b5b0217905550818160030160156101000a81548160ff02191690836004811115610a0457610a0361151f565b5b021790555060018160030160166101000a81548160ff02191690836003811115610a3157610a3061151f565b5b0217905550428160030160176101000a81548167ffffffffffffffff021916908367ffffffffffffffff1602179055508573ffffffffffffffffffffffffffffffffffffffff1685887fc28d753b16bb2547113d290859b97c49710ca25afeaf439b84eca4b64080ae4760405160405180910390a45050505092915050565b60605f60025f8481526020019081526020015f2090505f818054905090508067ffffffffffffffff811115610ae857610ae7611a3e565b5b604051908082528060200260200182016040528015610b2157816020015b610b0e611289565b815260200190600190039081610b065790505b5092505f5b81811015610d605760015f848381548110610b4457610b43611a6b565b5b905f5260205f20015481526020019081526020015f20604051806101200160405290815f820154815260200160018201548152602001600282015f9054906101000a900473ffffffffffffffffffffffffffffffffffffffff1673ffffffffffffffffffffffffffffffffffffffff1673ffffffffffffffffffffffffffffffffffffffff168152602001600382015f9054906101000a900473ffffffffffffffffffffffffffffffffffffffff1673ffffffffffffffffffffffffffffffffffffffff1673ffffffffffffffffffffffffffffffffffffffff1681526020016003820160149054906101000a900460ff166004811115610c4857610c4761151f565b5b6004811115610c5a57610c5961151f565b5b81526020016003820160159054906101000a900460ff166004811115610c8357610c8261151f565b5b6004811115610c9557610c9461151f565b5b81526020016003820160169054906101000a900460ff166003811115610cbe57610cbd61151f565b5b6003811115610cd057610ccf61151f565b5b81526020016003820160179054906101000a900467ffffffffffffffff1667ffffffffffffffff1667ffffffffffffffff168152602001600482015f9054906101000a900467ffffffffffffffff1667ffffffffffffffff1667ffffffffffffffff1681525050848281518110610d4a57610d49611a6b565b5b6020026020010181905250806001019050610b26565b505050919050565b610d70611289565b60015f8381526020019081526020015f20604051806101200160405290815f820154815260200160018201548152602001600282015f9054906101000a900473ffffffffffffffffffffffffffffffffffffffff1673ffffffffffffffffffffffffffffffffffffffff1673ffffffffffffffffffffffffffffffffffffffff168152602001600382015f9054906101000a900473ffffffffffffffffffffffffffffffffffffffff1673ffffffffffffffffffffffffffffffffffffffff1673ffffffffffffffffffffffffffffffffffffffff1681526020016003820160149054906101000a900460ff166004811115610e6f57610e6e61151f565b5b6004811115610e8157610e8061151f565b5b81526020016003820160159054906101000a900460ff166004811115610eaa57610ea961151f565b5b6004811115610ebc57610ebb61151f565b5b81526020016003820160169054906101000a900460ff166003811115610ee557610ee461151f565b5b6003811115610ef757610ef661151f565b5b81526020016003820160179054906101000a900467ffffffffffffffff1667ffffffffffffffff1667ffffffffffffffff168152602001600482015f9054906101000a900467ffffffffffffffff1667ffffffffffffffff1667ffffffffffffffff16815250509050919050565b5f60015f8381526020019081526020015f20905060016003811115610f8d57610f8c61151f565b5b8160030160169054906101000a900460ff166003811115610fb157610fb061151f565b5b14610fe8576040517f466af7c800000000000000000000000000000000000000000000000000000000815260040160405180910390fd5b3373ffffffffffffffffffffffffffffffffffffffff16816003015f9054906101000a900473ffffffffffffffffffffffffffffffffffffffff1673ffffffffffffffffffffffffffffffffffffffff161415801561109357507f000000000000000000000000000000000000000000000000000000000000000073ffffffffffffffffffffffffffffffffffffffff163373ffffffffffffffffffffffffffffffffffffffff1614155b156110ca576040517f82b4290000000000000000000000000000000000000000000000000000000000815260040160405180910390fd5b7f000000000000000000000000000000000000000000000000000000000000000073ffffffffffffffffffffffffffffffffffffffff1663bad425908260010154836003015f9054906101000a900473ffffffffffffffffffffffffffffffffffffffff166040518363ffffffff1660e01b815260040161114c929190611a98565b5f604051808303815f87803b158015611163575f5ffd5b505af1158015611175573d5f5f3e3d5ffd5b5050505060028160030160166101000a81548160ff021916908360038111156111a1576111a061151f565b5b021790555042816004015f6101000a81548167ffffffffffffffff021916908367ffffffffffffffff1602179055505f60035f836001015481526020019081526020015f2081905550817f853633f7219ef573f4075334974cdb356643da4f2331b50454a50fdb836ba0b5600260405161121b919061188e565b60405180910390a25050565b7f000000000000000000000000000000000000000000000000000000000000000081565b7f000000000000000000000000000000000000000000000000000000000000000081565b5f60035f8381526020019081526020015f20549050919050565b6040518061012001604052805f81526020015f81526020015f73ffffffffffffffffffffffffffffffffffffffff1681526020015f73ffffffffffffffffffffffffffffffffffffffff1681526020015f60048111156112ec576112eb61151f565b5b81526020015f60048111156113045761130361151f565b5b81526020015f600381111561131c5761131b61151f565b5b81526020015f67ffffffffffffffff1681526020015f67ffffffffffffffff1681525090565b5f73ffffffffffffffffffffffffffffffffffffffff82169050919050565b5f819050919050565b5f61138461137f61137a84611342565b611361565b611342565b9050919050565b5f6113958261136a565b9050919050565b5f6113a68261138b565b9050919050565b6113b68161139c565b82525050565b5f6020820190506113cf5f8301846113ad565b92915050565b5f5ffd5b5f819050919050565b6113eb816113d9565b81146113f5575f5ffd5b50565b5f81359050611406816113e2565b92915050565b5f60208284031215611421576114206113d5565b5b5f61142e848285016113f8565b91505092915050565b5f61144182611342565b9050919050565b61145181611437565b811461145b575f5ffd5b50565b5f8135905061146c81611448565b92915050565b5f5f60408385031215611488576114876113d5565b5b5f611495858286016113f8565b92505060206114a68582860161145e565b9150509250929050565b6114b9816113d9565b82525050565b5f6020820190506114d25f8301846114b0565b92915050565b5f81519050919050565b5f82825260208201905092915050565b5f819050602082019050919050565b61150a816113d9565b82525050565b61151981611437565b82525050565b7f4e487b71000000000000000000000000000000000000000000000000000000005f52602160045260245ffd5b6005811061155d5761155c61151f565b5b50565b5f81905061156d8261154c565b919050565b5f61157c82611560565b9050919050565b61158c81611572565b82525050565b600481106115a3576115a261151f565b5b50565b5f8190506115b382611592565b919050565b5f6115c2826115a6565b9050919050565b6115d2816115b8565b82525050565b5f67ffffffffffffffff82169050919050565b6115f4816115d8565b82525050565b61012082015f82015161160f5f850182611501565b5060208201516116226020850182611501565b5060408201516116356040850182611510565b5060608201516116486060850182611510565b50608082015161165b6080850182611583565b5060a082015161166e60a0850182611583565b5060c082015161168160c08501826115c9565b5060e082015161169460e08501826115eb565b506101008201516116a96101008501826115eb565b50505050565b5f6116ba83836115fa565b6101208301905092915050565b5f602082019050919050565b5f6116dd826114d8565b6116e781856114e2565b93506116f2836114f2565b805f5b8381101561172257815161170988826116af565b9750611714836116c7565b9250506001810190506116f5565b5085935050505092915050565b5f6020820190508181035f83015261174781846116d3565b905092915050565b61012082015f8201516117645f850182611501565b5060208201516117776020850182611501565b50604082015161178a6040850182611510565b50606082015161179d6060850182611510565b5060808201516117b06080850182611583565b5060a08201516117c360a0850182611583565b5060c08201516117d660c08501826115c9565b5060e08201516117e960e08501826115eb565b506101008201516117fe6101008501826115eb565b50505050565b5f610120820190506118185f83018461174f565b92915050565b5f6118288261138b565b9050919050565b6118388161181e565b82525050565b5f6020820190506118515f83018461182f565b92915050565b61186081611437565b82525050565b5f6020820190506118795f830184611857565b92915050565b611888816115b8565b82525050565b5f6020820190506118a15f83018461187f565b92915050565b5f815190506118b581611448565b92915050565b5f602082840312156118d0576118cf6113d5565b5b5f6118dd848285016118a7565b91505092915050565b5f8115159050919050565b6118fa816118e6565b8114611904575f5ffd5b50565b5f81519050611915816118f1565b92915050565b5f602082840312156119305761192f6113d5565b5b5f61193d84828501611907565b91505092915050565b60058110611952575f5ffd5b50565b5f8151905061196381611946565b92915050565b5f6020828403121561197e5761197d6113d5565b5b5f61198b84828501611955565b91505092915050565b61199d81611572565b82525050565b5f6040820190506119b65f830185611857565b6119c36020830184611994565b9392505050565b7f4e487b71000000000000000000000000000000000000000000000000000000005f52601160045260245ffd5b5f611a01826113d9565b91507fffffffffffffffffffffffffffffffffffffffffffffffffffffffffffffffff8203611a3357611a326119ca565b5b600182019050919050565b7f4e487b71000000000000000000000000000000000000000000000000000000005f52604160045260245ffd5b7f4e487b71000000000000000000000000000000000000000000000000000000005f52603260045260245ffd5b5f604082019050611aab5f8301856114b0565b611ab86020830184611857565b939250505056fea2646970667358221220545917229a0ee03d8b5cb3ce30cbc8963d26954c8264088b6b07970aab2105d164736f6c634300081e0033","linkReferences":{}},"methodIdentifiers":{"admin()":"f851a440","approveTransfer(uint256)":"cacca4a0","getPendingTransfer(uint256)":"f91a7b89","getTokenTransfers(uint256)":"60cda1df","getTransfer(uint256)":"c16fe907","rejectTransfer(uint256)":"12effc32","requestTransfer(uint256,address)":"40344232","roleManager()":"00435da5","tokenFactory()":"e77772fe"},"id":18}