{"abi":[{"type":"constructor","inputs":[{"name":"_roleManager","type":"address","internalType":"address"},{"name":"_tokenFactory","type":"address","internalType":"address"}],"stateMutability":"nonpayable"},{"type":"function","name":"admin","inputs":[],"outputs":[{"name":"","type":"address","internalType":"address"}],"stateMutability":"view"},{"type":"function","name":"approveTransfer","inputs":[{"name":"transferId","type":"uint256","internalType":"uint256"}],"outputs":[],"stateMutability":"nonpayable"},{"type":"function","name":"getPendingTransfer","inputs":[{"name":"tokenId","type":"uint256","internalType":"uint256"}],"outputs":[{"name":"","type":"uint256","internalType":"uint256"}],"stateMutability":"view"},{"type":"function","name":"getTokenTransfers","inputs":[{"name":"tokenId","type":"uint256","internalType":"uint256"}],"outputs":[{"name":"history","type":"tuple[]","internalType":"struct TransferManager.Transfer[]","components":[{"name":"id","type":"uint256","internalType":"uint256"},{"name":"tokenId","type":"uint256","internalType":"uint256"},{"name":"from","type":"address","internalType":"address"},{"name":"to","type":"address","internalType":"address"},{"name":"amount","type":"uint256","internalType":"uint256"},{"name":"fromRole","type":"uint8","internalType":"enum RoleManager.Role"},{"name":"toRole","type":"uint8","internalType":"enum RoleManager.Role"},{"name":"status","type":"uint8","internalType":"enum TransferManager.TransferStatus"},{"name":"requestedAt","type":"uint64","internalType":"uint64"},{"name":"resolvedAt","type":"uint64","internalType":"uint64"}]}],"stateMutability":"view"},{"type":"function","name":"getTransfer","inputs":[{"name":"transferId","type":"uint256","internalType":"uint256"}],"outputs":[{"name":"","type":"tuple","internalType":"struct TransferManager.Transfer","components":[{"name":"id","type":"uint256","internalType":"uint256"},{"name":"tokenId","type":"uint256","internalType":"uint256"},{"name":"from","type":"address","internalType":"address"},{"name":"to","type":"address","internalType":"address"},{"name":"amount","type":"uint256","internalType":"uint256"},{"name":"fromRole","type":"uint8","internalType":"enum RoleManager.Role"},{"name":"toRole","type":"uint8","internalType":"enum RoleManager.Role"},{"name":"status","type":"uint8","internalType":"enum TransferManager.TransferStatus"},{"name":"requestedAt","type":"uint64","internalType":"uint64"},{"name":"resolvedAt","type":"uint64","internalType":"uint64"}]}],"stateMutability":"view"},{"type":"function","name":"rejectTransfer","inputs":[{"name":"transferId","type":"uint256","internalType":"uint256"}],"outputs":[],"stateMutability":"nonpayable"},{"type":"function","name":"requestTransfer","inputs":[{"name":"tokenId","type":"uint256","internalType":"uint256"},{"name":"to","type":"address","internalType":"address"},{"name":"amount","type":"uint256","internalType":"uint256"}],"outputs":[{"name":"transferId","type":"uint256","internalType":"uint256"}],"stateMutability":"nonpayable"},{"type":"function","name":"roleManager","inputs":[],"outputs":[{"name":"","type":"address","internalType":"contract RoleManager"}],"stateMutability":"view"},{"type":"function","name":"tokenFactory","inputs":[],"outputs":[{"name":"","type":"address","internalType":"contract TokenFactory"}],"stateMutability":"view"},{"type":"event","name":"TransferRequested","inputs":[{"name":"tokenId","type":"uint256","indexed":true,"internalType":"uint256"},{"name":"transferId","type":"uint256","indexed":true,"internalType":"uint256"},{"name":"to","type":"address","indexed":true,"internalType":"address"}],"anonymous":false},{"type":"event","name":"TransferResolved","inputs":[{"name":"transferId","type":"uint256","indexed":true,"internalType":"uint256"},{"name":"status","type":"uint8","indexed":false,"internalType":"enum TransferManager.TransferStatus"}],"anonymous":false},{"type":"error","name":"AssetDoesNotExist","inputs":[]},{"type":"error","name":"InvalidAddress","inputs":[]},{"type":"error","name":"InvalidRoleTransition","inputs":[]},{"type":"error","name":"NotApproved","inputs":[]},{"type":"error","name":"TransferAlreadyPending","inputs":[]},{"type":"error","name":"TransferNotPending","inputs":[]},{"type":"error","name":"Unauthorized","inputs":[]}],"bytecode":{"object":"0x60e060405234801561000f575f5ffd5b50604051611f7e380380611f7e833981810160405281019061003191906102b9565b8173ffffffffffffffffffffffffffffffffffffffff1660808173ffffffffffffffffffffffffffffffffffffffff16815250508073ffffffffffffffffffffffffffffffffffffffff1660a08173ffffffffffffffffffffffffffffffffffffffff168152505060805173ffffffffffffffffffffffffffffffffffffffff1663f851a4406040518163ffffffff1660e01b8152600401602060405180830381865afa1580156100e4573d5f5f3e3d5ffd5b505050506040513d601f19601f8201168201806040525081019061010891906102f7565b73ffffffffffffffffffffffffffffffffffffffff1660c08173ffffffffffffffffffffffffffffffffffffffff1681525050600260045f6001600481111561015457610153610322565b5b600481111561016657610165610322565b5b81526020019081526020015f205f6101000a81548160ff0219169083600481111561019457610193610322565b5b0217905550600360045f600260048111156101b2576101b1610322565b5b60048111156101c4576101c3610322565b5b81526020019081526020015f205f6101000a81548160ff021916908360048111156101f2576101f1610322565b5b02179055506004805f6003600481111561020f5761020e610322565b5b600481111561022157610220610322565b5b81526020019081526020015f205f6101000a81548160ff0219169083600481111561024f5761024e610322565b5b0217905550505061034f565b5f5ffd5b5f73ffffffffffffffffffffffffffffffffffffffff82169050919050565b5f6102888261025f565b9050919050565b6102988161027e565b81146102a2575f5ffd5b50565b5f815190506102b38161028f565b92915050565b5f5f604083850312156102cf576102ce61025b565b5b5f6102dc858286016102a5565b92505060206102ed858286016102a5565b9150509250929050565b5f6020828403121561030c5761030b61025b565b5b5f610319848285016102a5565b91505092915050565b7f4e487b71000000000000000000000000000000000000000000000000000000005f52602160045260245ffd5b60805160a05160c051611bd46103aa5f395f81816102e90152818161107201526112a701525f8181610782015281816110fa015261128301525f81816101e801528181610858015281816109270152610a630152611bd45ff3fe608060405234801561000f575f5ffd5b5060043610610090575f3560e01c8063c16fe90711610064578063c16fe9071461012e578063cacca4a01461015e578063e77772fe1461017a578063f851a44014610198578063f91a7b89146101b657610090565b8062435da51461009457806312effc32146100b257806360cda1df146100ce5780638c7ebcdd146100fe575b5f5ffd5b61009c6101e6565b6040516100a9919061141c565b60405180910390f35b6100cc60048036038101906100c7919061146c565b61020a565b005b6100e860048036038101906100e3919061146c565b61041e565b6040516100f59190611714565b60405180910390f35b6101186004803603810190610113919061175e565b6106e0565b60405161012591906117bd565b60405180910390f35b6101486004803603810190610143919061146c565b610d8c565b60405161015591906118a0565b60405180910390f35b6101786004803603810190610173919061146c565b610f93565b005b610182611281565b60405161018f91906118da565b60405180910390f35b6101a06112a5565b6040516101ad9190611902565b60405180910390f35b6101d060048036038101906101cb919061146c565b6112c9565b6040516101dd91906117bd565b60405180910390f35b7f000000000000000000000000000000000000000000000000000000000000000081565b5f60015f8381526020019081526020015f20905060016003811115610232576102316114ef565b5b8160050160029054906101000a900460ff166003811115610256576102556114ef565b5b1461028d576040517f466af7c800000000000000000000000000000000000000000000000000000000815260040160405180910390fd5b3373ffffffffffffffffffffffffffffffffffffffff16816003015f9054906101000a900473ffffffffffffffffffffffffffffffffffffffff1673ffffffffffffffffffffffffffffffffffffffff161415801561033857507f000000000000000000000000000000000000000000000000000000000000000073ffffffffffffffffffffffffffffffffffffffff163373ffffffffffffffffffffffffffffffffffffffff1614155b1561036f576040517f82b4290000000000000000000000000000000000000000000000000000000000815260040160405180910390fd5b60038160050160026101000a81548160ff02191690836003811115610397576103966114ef565b5b02179055504281600501600b6101000a81548167ffffffffffffffff021916908367ffffffffffffffff1602179055505f60035f836001015481526020019081526020015f2081905550817f853633f7219ef573f4075334974cdb356643da4f2331b50454a50fdb836ba0b56003604051610412919061192a565b60405180910390a25050565b60605f60025f8481526020019081526020015f2090505f818054905090508067ffffffffffffffff81111561045657610455611943565b5b60405190808252806020026020018201604052801561048f57816020015b61047c6112e3565b8152602001906001900390816104745790505b5092505f5b818110156106d85760015f8483815481106104b2576104b1611970565b5b905f5260205f20015481526020019081526020015f20604051806101400160405290815f820154815260200160018201548152602001600282015f9054906101000a900473ffffffffffffffffffffffffffffffffffffffff1673ffffffffffffffffffffffffffffffffffffffff1673ffffffffffffffffffffffffffffffffffffffff168152602001600382015f9054906101000a900473ffffffffffffffffffffffffffffffffffffffff1673ffffffffffffffffffffffffffffffffffffffff1673ffffffffffffffffffffffffffffffffffffffff16815260200160048201548152602001600582015f9054906101000a900460ff1660048111156105bf576105be6114ef565b5b60048111156105d1576105d06114ef565b5b81526020016005820160019054906101000a900460ff1660048111156105fa576105f96114ef565b5b600481111561060c5761060b6114ef565b5b81526020016005820160029054906101000a900460ff166003811115610635576106346114ef565b5b6003811115610647576106466114ef565b5b81526020016005820160039054906101000a900467ffffffffffffffff1667ffffffffffffffff1667ffffffffffffffff16815260200160058201600b9054906101000a900467ffffffffffffffff1667ffffffffffffffff1667ffffffffffffffff16815250508482815181106106c2576106c1611970565b5b6020026020010181905250806001019050610494565b505050919050565b5f5f73ffffffffffffffffffffffffffffffffffffffff168373ffffffffffffffffffffffffffffffffffffffff1603610746576040517fe6c4247b00000000000000000000000000000000000000000000000000000000815260040160405180910390fd5b5f820361077f576040517fe6c4247b00000000000000000000000000000000000000000000000000000000815260040160405180910390fd5b5f7f000000000000000000000000000000000000000000000000000000000000000073ffffffffffffffffffffffffffffffffffffffff16633656eec286336040518363ffffffff1660e01b81526004016107db92919061199d565b602060405180830381865afa1580156107f6573d5f5f3e3d5ffd5b505050506040513d601f19601f8201168201806040525081019061081a91906119d8565b905082811015610856576040517f82b4290000000000000000000000000000000000000000000000000000000000815260040160405180910390fd5b7f000000000000000000000000000000000000000000000000000000000000000073ffffffffffffffffffffffffffffffffffffffff1663673448dd336040518263ffffffff1660e01b81526004016108af9190611902565b602060405180830381865afa1580156108ca573d5f5f3e3d5ffd5b505050506040513d601f19601f820116820180604052508101906108ee9190611a38565b610924576040517fc19f17a900000000000000000000000000000000000000000000000000000000815260040160405180910390fd5b5f7f000000000000000000000000000000000000000000000000000000000000000073ffffffffffffffffffffffffffffffffffffffff166327820851336040518263ffffffff1660e01b815260040161097e9190611902565b602060405180830381865afa158015610999573d5f5f3e3d5ffd5b505050506040513d601f19601f820116820180604052508101906109bd9190611a86565b90505f60045f8360048111156109d6576109d56114ef565b5b60048111156109e8576109e76114ef565b5b81526020019081526020015f205f9054906101000a900460ff1690505f6004811115610a1757610a166114ef565b5b816004811115610a2a57610a296114ef565b5b03610a61576040517f06708f9c00000000000000000000000000000000000000000000000000000000815260040160405180910390fd5b7f000000000000000000000000000000000000000000000000000000000000000073ffffffffffffffffffffffffffffffffffffffff166395a8c58d87836040518363ffffffff1660e01b8152600401610abc929190611ac0565b602060405180830381865afa158015610ad7573d5f5f3e3d5ffd5b505050506040513d601f19601f82011682018060405250810190610afb9190611a38565b610b31576040517f06708f9c00000000000000000000000000000000000000000000000000000000815260040160405180910390fd5b5f60035f8981526020019081526020015f205414610b7b576040517fa8b2461300000000000000000000000000000000000000000000000000000000815260040160405180910390fd5b5f5f8154610b8890611b14565b91905081905593508360035f8981526020019081526020015f208190555060025f8881526020019081526020015f2084908060018154018082558091505060019003905f5260205f20015f90919091909150555f60015f8681526020019081526020015f20905084815f018190555087816001018190555033816002015f6101000a81548173ffffffffffffffffffffffffffffffffffffffff021916908373ffffffffffffffffffffffffffffffffffffffff16021790555086816003015f6101000a81548173ffffffffffffffffffffffffffffffffffffffff021916908373ffffffffffffffffffffffffffffffffffffffff16021790555085816004018190555082816005015f6101000a81548160ff02191690836004811115610cb357610cb26114ef565b5b0217905550818160050160016101000a81548160ff02191690836004811115610cdf57610cde6114ef565b5b021790555060018160050160026101000a81548160ff02191690836003811115610d0c57610d0b6114ef565b5b0217905550428160050160036101000a81548167ffffffffffffffff021916908367ffffffffffffffff1602179055508673ffffffffffffffffffffffffffffffffffffffff1685897fc28d753b16bb2547113d290859b97c49710ca25afeaf439b84eca4b64080ae4760405160405180910390a4505050509392505050565b610d946112e3565b60015f8381526020019081526020015f20604051806101400160405290815f820154815260200160018201548152602001600282015f9054906101000a900473ffffffffffffffffffffffffffffffffffffffff1673ffffffffffffffffffffffffffffffffffffffff1673ffffffffffffffffffffffffffffffffffffffff168152602001600382015f9054906101000a900473ffffffffffffffffffffffffffffffffffffffff1673ffffffffffffffffffffffffffffffffffffffff1673ffffffffffffffffffffffffffffffffffffffff16815260200160048201548152602001600582015f9054906101000a900460ff166004811115610e9c57610e9b6114ef565b5b6004811115610eae57610ead6114ef565b5b81526020016005820160019054906101000a900460ff166004811115610ed757610ed66114ef565b5b6004811115610ee957610ee86114ef565b5b81526020016005820160029054906101000a900460ff166003811115610f1257610f116114ef565b5b6003811115610f2457610f236114ef565b5b81526020016005820160039054906101000a900467ffffffffffffffff1667ffffffffffffffff1667ffffffffffffffff16815260200160058201600b9054906101000a900467ffffffffffffffff1667ffffffffffffffff1667ffffffffffffffff16815250509050919050565b5f60015f8381526020019081526020015f20905060016003811115610fbb57610fba6114ef565b5b8160050160029054906101000a900460ff166003811115610fdf57610fde6114ef565b5b14611016576040517f466af7c800000000000000000000000000000000000000000000000000000000815260040160405180910390fd5b3373ffffffffffffffffffffffffffffffffffffffff16816003015f9054906101000a900473ffffffffffffffffffffffffffffffffffffffff1673ffffffffffffffffffffffffffffffffffffffff16141580156110c157507f000000000000000000000000000000000000000000000000000000000000000073ffffffffffffffffffffffffffffffffffffffff163373ffffffffffffffffffffffffffffffffffffffff1614155b156110f8576040517f82b4290000000000000000000000000000000000000000000000000000000000815260040160405180910390fd5b7f000000000000000000000000000000000000000000000000000000000000000073ffffffffffffffffffffffffffffffffffffffff16637e33bb208260010154836002015f9054906101000a900473ffffffffffffffffffffffffffffffffffffffff16846003015f9054906101000a900473ffffffffffffffffffffffffffffffffffffffff1685600401546040518563ffffffff1660e01b81526004016111a59493929190611b5b565b5f604051808303815f87803b1580156111bc575f5ffd5b505af11580156111ce573d5f5f3e3d5ffd5b5050505060028160050160026101000a81548160ff021916908360038111156111fa576111f96114ef565b5b02179055504281600501600b6101000a81548167ffffffffffffffff021916908367ffffffffffffffff1602179055505f60035f836001015481526020019081526020015f2081905550817f853633f7219ef573f4075334974cdb356643da4f2331b50454a50fdb836ba0b56002604051611275919061192a565b60405180910390a25050565b7f000000000000000000000000000000000000000000000000000000000000000081565b7f000000000000000000000000000000000000000000000000000000000000000081565b5f60035f8381526020019081526020015f20549050919050565b6040518061014001604052805f81526020015f81526020015f73ffffffffffffffffffffffffffffffffffffffff1681526020015f73ffffffffffffffffffffffffffffffffffffffff1681526020015f81526020015f600481111561134c5761134b6114ef565b5b81526020015f6004811115611364576113636114ef565b5b81526020015f600381111561137c5761137b6114ef565b5b81526020015f67ffffffffffffffff1681526020015f67ffffffffffffffff1681525090565b5f73ffffffffffffffffffffffffffffffffffffffff82169050919050565b5f819050919050565b5f6113e46113df6113da846113a2565b6113c1565b6113a2565b9050919050565b5f6113f5826113ca565b9050919050565b5f611406826113eb565b9050919050565b611416816113fc565b82525050565b5f60208201905061142f5f83018461140d565b92915050565b5f5ffd5b5f819050919050565b61144b81611439565b8114611455575f5ffd5b50565b5f8135905061146681611442565b92915050565b5f6020828403121561148157611480611435565b5b5f61148e84828501611458565b91505092915050565b5f81519050919050565b5f82825260208201905092915050565b5f819050602082019050919050565b6114c981611439565b82525050565b5f6114d9826113a2565b9050919050565b6114e9816114cf565b82525050565b7f4e487b71000000000000000000000000000000000000000000000000000000005f52602160045260245ffd5b6005811061152d5761152c6114ef565b5b50565b5f81905061153d8261151c565b919050565b5f61154c82611530565b9050919050565b61155c81611542565b82525050565b60048110611573576115726114ef565b5b50565b5f81905061158382611562565b919050565b5f61159282611576565b9050919050565b6115a281611588565b82525050565b5f67ffffffffffffffff82169050919050565b6115c4816115a8565b82525050565b61014082015f8201516115df5f8501826114c0565b5060208201516115f260208501826114c0565b50604082015161160560408501826114e0565b50606082015161161860608501826114e0565b50608082015161162b60808501826114c0565b5060a082015161163e60a0850182611553565b5060c082015161165160c0850182611553565b5060e082015161166460e0850182611599565b506101008201516116796101008501826115bb565b5061012082015161168e6101208501826115bb565b50505050565b5f61169f83836115ca565b6101408301905092915050565b5f602082019050919050565b5f6116c282611497565b6116cc81856114a1565b93506116d7836114b1565b805f5b838110156117075781516116ee8882611694565b97506116f9836116ac565b9250506001810190506116da565b5085935050505092915050565b5f6020820190508181035f83015261172c81846116b8565b905092915050565b61173d816114cf565b8114611747575f5ffd5b50565b5f8135905061175881611734565b92915050565b5f5f5f6060848603121561177557611774611435565b5b5f61178286828701611458565b93505060206117938682870161174a565b92505060406117a486828701611458565b9150509250925092565b6117b781611439565b82525050565b5f6020820190506117d05f8301846117ae565b92915050565b61014082015f8201516117eb5f8501826114c0565b5060208201516117fe60208501826114c0565b50604082015161181160408501826114e0565b50606082015161182460608501826114e0565b50608082015161183760808501826114c0565b5060a082015161184a60a0850182611553565b5060c082015161185d60c0850182611553565b5060e082015161187060e0850182611599565b506101008201516118856101008501826115bb565b5061012082015161189a6101208501826115bb565b50505050565b5f610140820190506118b45f8301846117d6565b92915050565b5f6118c4826113eb565b9050919050565b6118d4816118ba565b82525050565b5f6020820190506118ed5f8301846118cb565b92915050565b6118fc816114cf565b82525050565b5f6020820190506119155f8301846118f3565b92915050565b61192481611588565b82525050565b5f60208201905061193d5f83018461191b565b92915050565b7f4e487b71000000000000000000000000000000000000000000000000000000005f52604160045260245ffd5b7f4e487b71000000000000000000000000000000000000000000000000000000005f52603260045260245ffd5b5f6040820190506119b05f8301856117ae565b6119bd60208301846118f3565b9392505050565b5f815190506119d281611442565b92915050565b5f602082840312156119ed576119ec611435565b5b5f6119fa848285016119c4565b91505092915050565b5f8115159050919050565b611a1781611a03565b8114611a21575f5ffd5b50565b5f81519050611a3281611a0e565b92915050565b5f60208284031215611a4d57611a4c611435565b5b5f611a5a84828501611a24565b91505092915050565b60058110611a6f575f5ffd5b50565b5f81519050611a8081611a63565b92915050565b5f60208284031215611a9b57611a9a611435565b5b5f611aa884828501611a72565b91505092915050565b611aba81611542565b82525050565b5f604082019050611ad35f8301856118f3565b611ae06020830184611ab1565b9392505050565b7f4e487b71000000000000000000000000000000000000000000000000000000005f52601160045260245ffd5b5f611b1e82611439565b91507fffffffffffffffffffffffffffffffffffffffffffffffffffffffffffffffff8203611b5057611b4f611ae7565b5b600182019050919050565b5f608082019050611b6e5f8301876117ae565b611b7b60208301866118f3565b611b8860408301856118f3565b611b9560608301846117ae565b9594505050505056fea26469706673582212205e0a639fbcc39bee9b4b3163fa389a97b0bb5b420875fc47a15174fad0c30e9c64736f6c634300081e0033","linkReferences":{}},"methodIdentifiers":{"admin()":"f851a440","approveTransfer(uint256)":"cacca4a0","getPendingTransfer(uint256)":"f91a7b89","getTokenTransfers(uint256)":"60cda1df","getTransfer(uint256)":"c16fe907","rejectTransfer(uint256)":"12effc32","requestTransfer(uint256,address,uint256)":"8c7ebcdd","roleManager()":"00435da5","tokenFactory()":"e77772fe"},"id":18}