{"abi":[{"type":"constructor","inputs":[],"stateMutability":"nonpayable"},{"type":"function","name":"admin","inputs":[],"outputs":[{"name":"","type":"address","internalType":"address"}],"stateMutability":"view"},{"type":"function","name":"approveRole","inputs":[{"name":"account","type":"address","internalType":"address"}],"outputs":[],"stateMutability":"nonpayable"},{"type":"function","name":"approveTransfer","inputs":[{"name":"transferId","type":"uint256","internalType":"uint256"}],"outputs":[],"stateMutability":"nonpayable"},{"type":"function","name":"createProcessedAsset","inputs":[{"name":"metadataURI","type":"string","internalType":"string"},{"name":"parentIds","type":"uint256[]","internalType":"uint256[]"}],"outputs":[{"name":"assetId","type":"uint256","internalType":"uint256"}],"stateMutability":"nonpayable"},{"type":"function","name":"createRawAsset","inputs":[{"name":"metadataURI","type":"string","internalType":"string"}],"outputs":[{"name":"assetId","type":"uint256","internalType":"uint256"}],"stateMutability":"nonpayable"},{"type":"function","name":"getAsset","inputs":[{"name":"assetId","type":"uint256","internalType":"uint256"}],"outputs":[{"name":"","type":"tuple","internalType":"struct SupplyChainTracker.Asset","components":[{"name":"id","type":"uint256","internalType":"uint256"},{"name":"assetType","type":"uint8","internalType":"enum SupplyChainTracker.AssetType"},{"name":"metadataURI","type":"string","internalType":"string"},{"name":"creator","type":"address","internalType":"address"},{"name":"currentHolder","type":"address","internalType":"address"},{"name":"currentRole","type":"uint8","internalType":"enum SupplyChainTracker.Role"},{"name":"createdAt","type":"uint64","internalType":"uint64"},{"name":"parentIds","type":"uint256[]","internalType":"uint256[]"},{"name":"exists","type":"bool","internalType":"bool"}]}],"stateMutability":"view"},{"type":"function","name":"getAssetTransfers","inputs":[{"name":"assetId","type":"uint256","internalType":"uint256"}],"outputs":[{"name":"history","type":"tuple[]","internalType":"struct SupplyChainTracker.Transfer[]","components":[{"name":"id","type":"uint256","internalType":"uint256"},{"name":"assetId","type":"uint256","internalType":"uint256"},{"name":"from","type":"address","internalType":"address"},{"name":"to","type":"address","internalType":"address"},{"name":"fromRole","type":"uint8","internalType":"enum SupplyChainTracker.Role"},{"name":"toRole","type":"uint8","internalType":"enum SupplyChainTracker.Role"},{"name":"status","type":"uint8","internalType":"enum SupplyChainTracker.TransferStatus"},{"name":"requestedAt","type":"uint64","internalType":"uint64"},{"name":"resolvedAt","type":"uint64","internalType":"uint64"}]}],"stateMutability":"view"},{"type":"function","name":"getTransfer","inputs":[{"name":"transferId","type":"uint256","internalType":"uint256"}],"outputs":[{"name":"","type":"tuple","internalType":"struct SupplyChainTracker.Transfer","components":[{"name":"id","type":"uint256","internalType":"uint256"},{"name":"assetId","type":"uint256","internalType":"uint256"},{"name":"from","type":"address","internalType":"address"},{"name":"to","type":"address","internalType":"address"},{"name":"fromRole","type":"uint8","internalType":"enum SupplyChainTracker.Role"},{"name":"toRole","type":"uint8","internalType":"enum SupplyChainTracker.Role"},{"name":"status","type":"uint8","internalType":"enum SupplyChainTracker.TransferStatus"},{"name":"requestedAt","type":"uint64","internalType":"uint64"},{"name":"resolvedAt","type":"uint64","internalType":"uint64"}]}],"stateMutability":"view"},{"type":"function","name":"getUser","inputs":[{"name":"account","type":"address","internalType":"address"}],"outputs":[{"name":"","type":"tuple","internalType":"struct SupplyChainTracker.User","components":[{"name":"role","type":"uint8","internalType":"enum SupplyChainTracker.Role"},{"name":"approved","type":"bool","internalType":"bool"},{"name":"requestedRole","type":"uint8","internalType":"enum SupplyChainTracker.Role"}]}],"stateMutability":"view"},{"type":"function","name":"rejectRole","inputs":[{"name":"account","type":"address","internalType":"address"}],"outputs":[],"stateMutability":"nonpayable"},{"type":"function","name":"rejectTransfer","inputs":[{"name":"transferId","type":"uint256","internalType":"uint256"}],"outputs":[],"stateMutability":"nonpayable"},{"type":"function","name":"requestRole","inputs":[{"name":"desiredRole","type":"uint8","internalType":"enum SupplyChainTracker.Role"}],"outputs":[],"stateMutability":"nonpayable"},{"type":"function","name":"requestTransfer","inputs":[{"name":"assetId","type":"uint256","internalType":"uint256"},{"name":"to","type":"address","internalType":"address"}],"outputs":[{"name":"transferId","type":"uint256","internalType":"uint256"}],"stateMutability":"nonpayable"},{"type":"function","name":"revokeRole","inputs":[{"name":"account","type":"address","internalType":"address"}],"outputs":[],"stateMutability":"nonpayable"},{"type":"event","name":"AssetCreated","inputs":[{"name":"assetId","type":"uint256","indexed":true,"internalType":"uint256"},{"name":"assetType","type":"uint8","indexed":false,"internalType":"enum SupplyChainTracker.AssetType"},{"name":"creator","type":"address","indexed":true,"internalType":"address"},{"name":"metadataURI","type":"string","indexed":false,"internalType":"string"}],"anonymous":false},{"type":"event","name":"RoleApproved","inputs":[{"name":"account","type":"address","indexed":true,"internalType":"address"},{"name":"role","type":"uint8","indexed":true,"internalType":"enum SupplyChainTracker.Role"}],"anonymous":false},{"type":"event","name":"RoleRejected","inputs":[{"name":"account","type":"address","indexed":true,"internalType":"address"},{"name":"requestedRole","type":"uint8","indexed":true,"internalType":"enum SupplyChainTracker.Role"}],"anonymous":false},{"type":"event","name":"RoleRequested","inputs":[{"name":"account","type":"address","indexed":true,"internalType":"address"},{"name":"requestedRole","type":"uint8","indexed":true,"internalType":"enum SupplyChainTracker.Role"}],"anonymous":false},{"type":"event","name":"RoleRevoked","inputs":[{"name":"account","type":"address","indexed":true,"internalType":"address"},{"name":"previousRole","type":"uint8","indexed":true,"internalType":"enum SupplyChainTracker.Role"}],"anonymous":false},{"type":"event","name":"TransferRequested","inputs":[{"name":"assetId","type":"uint256","indexed":true,"internalType":"uint256"},{"name":"transferId","type":"uint256","indexed":true,"internalType":"uint256"},{"name":"to","type":"address","indexed":true,"internalType":"address"}],"anonymous":false},{"type":"event","name":"TransferResolved","inputs":[{"name":"transferId","type":"uint256","indexed":true,"internalType":"uint256"},{"name":"status","type":"uint8","indexed":false,"internalType":"enum SupplyChainTracker.TransferStatus"}],"anonymous":false},{"type":"error","name":"AssetDoesNotExist","inputs":[]},{"type":"error","name":"InvalidAddress","inputs":[]},{"type":"error","name":"InvalidRoleRequest","inputs":[]},{"type":"error","name":"InvalidRoleTransition","inputs":[]},{"type":"error","name":"MissingParentAssets","inputs":[]},{"type":"error","name":"NotAdmin","inputs":[]},{"type":"error","name":"NotApproved","inputs":[]},{"type":"error","name":"RoleNotRequested","inputs":[]},{"type":"error","name":"TransferAlreadyPending","inputs":[]},{"type":"error","name":"TransferNotPending","inputs":[]},{"type":"error","name":"Unauthorized","inputs":[]}],"bytecode":{"object":"0x60a060405234801561000f575f5ffd5b503373ffffffffffffffffffffffffffffffffffffffff1660808173ffffffffffffffffffffffffffffffffffffffff1681525050600260075f6001600481111561005d5761005c610163565b5b600481111561006f5761006e610163565b5b81526020019081526020015f205f6101000a81548160ff0219169083600481111561009d5761009c610163565b5b0217905550600360075f600260048111156100bb576100ba610163565b5b60048111156100cd576100cc610163565b5b81526020019081526020015f205f6101000a81548160ff021916908360048111156100fb576100fa610163565b5b0217905550600460075f6003600481111561011957610118610163565b5b600481111561012b5761012a610163565b5b81526020019081526020015f205f6101000a81548160ff0219169083600481111561015957610158610163565b5b0217905550610190565b7f4e487b71000000000000000000000000000000000000000000000000000000005f52602160045260245ffd5b6080516137b46101cb5f395f81816103e101528181610dbf0152818161146a0152818161165b0152818161185d0152611ce001526137b45ff3fe608060405234801561000f575f5ffd5b50600436106100e8575f3560e01c8063cacca4a01161008a578063eac8f5b811610064578063eac8f5b814610254578063f851a44014610284578063f9f9bf8c146102a2578063fe7d7ef2146102d2576100e8565b8063cacca4a014610200578063ddb3ac261461021c578063e1023b8814610238576100e8565b80636f77926b116100c65780636f77926b1461015457806380e52e3f1461018457806388d9fc7a146101a0578063c16fe907146101d0576100e8565b806312effc32146100ec5780631896d298146101085780634034423214610124575b5f5ffd5b61010660048036038101906101019190612a20565b610302565b005b610122600480360381019061011d9190612a6e565b610515565b005b61013e60048036038101906101399190612af3565b610637565b60405161014b9190612b40565b60405180910390f35b61016e60048036038101906101699190612b59565b610cd9565b60405161017b9190612c51565b60405180910390f35b61019e60048036038101906101999190612b59565b610dbd565b005b6101ba60048036038101906101b59190612ccb565b610fe6565b6040516101c79190612b40565b60405180910390f35b6101ea60048036038101906101e59190612a20565b61118e565b6040516101f79190612e51565b60405180910390f35b61021a60048036038101906102159190612a20565b61138b565b005b61023660048036038101906102319190612b59565b611659565b005b610252600480360381019061024d9190612b59565b61185b565b005b61026e60048036038101906102699190612a20565b611a17565b60405161027b9190613092565b60405180910390f35b61028c611cde565b60405161029991906130c1565b60405180910390f35b6102bc60048036038101906102b79190612a20565b611d02565b6040516102c99190613238565b60405180910390f35b6102ec60048036038101906102e791906132ad565b612271565b6040516102f99190612b40565b60405180910390f35b5f60045f8381526020019081526020015f2090506001600381111561032a57610329612b84565b5b8160030160169054906101000a900460ff16600381111561034e5761034d612b84565b5b14610385576040517f466af7c800000000000000000000000000000000000000000000000000000000815260040160405180910390fd5b3373ffffffffffffffffffffffffffffffffffffffff16816003015f9054906101000a900473ffffffffffffffffffffffffffffffffffffffff1673ffffffffffffffffffffffffffffffffffffffff161415801561043057507f000000000000000000000000000000000000000000000000000000000000000073ffffffffffffffffffffffffffffffffffffffff163373ffffffffffffffffffffffffffffffffffffffff1614155b15610467576040517f82b4290000000000000000000000000000000000000000000000000000000000815260040160405180910390fd5b60038160030160166101000a81548160ff0219169083600381111561048f5761048e612b84565b5b021790555042816004015f6101000a81548167ffffffffffffffff021916908367ffffffffffffffff1602179055505f60065f836001015481526020019081526020015f2081905550817f853633f7219ef573f4075334974cdb356643da4f2331b50454a50fdb836ba0b56003604051610509919061333a565b60405180910390a25050565b5f600481111561052857610527612b84565b5b81600481111561053b5761053a612b84565b5b03610572576040517f2ee14bf800000000000000000000000000000000000000000000000000000000815260040160405180910390fd5b5f60025f3373ffffffffffffffffffffffffffffffffffffffff1673ffffffffffffffffffffffffffffffffffffffff1681526020019081526020015f20905081815f0160026101000a81548160ff021916908360048111156105d8576105d7612b84565b5b02179055508160048111156105f0576105ef612b84565b5b3373ffffffffffffffffffffffffffffffffffffffff167ff895b94cb55ee9f608ecb65ff13cf68962fd45bdfcfb5a3eaafcaa1571571e0260405160405180910390a35050565b5f5f73ffffffffffffffffffffffffffffffffffffffff168273ffffffffffffffffffffffffffffffffffffffff160361069d576040517fe6c4247b00000000000000000000000000000000000000000000000000000000815260040160405180910390fd5b5f60035f8581526020019081526020015f209050806006015f9054906101000a900460ff166106f8576040517f67fa94e700000000000000000000000000000000000000000000000000000000815260040160405180910390fd5b3373ffffffffffffffffffffffffffffffffffffffff16816004015f9054906101000a900473ffffffffffffffffffffffffffffffffffffffff1673ffffffffffffffffffffffffffffffffffffffff1614610780576040517f82b4290000000000000000000000000000000000000000000000000000000000815260040160405180910390fd5b5f60025f3373ffffffffffffffffffffffffffffffffffffffff1673ffffffffffffffffffffffffffffffffffffffff1681526020019081526020015f206040518060600160405290815f82015f9054906101000a900460ff1660048111156107ec576107eb612b84565b5b60048111156107fe576107fd612b84565b5b81526020015f820160019054906101000a900460ff161515151581526020015f820160029054906101000a900460ff1660048111156108405761083f612b84565b5b600481111561085257610851612b84565b5b8152505090508060200151610893576040517fc19f17a900000000000000000000000000000000000000000000000000000000815260040160405180910390fd5b5f60075f835f015160048111156108ad576108ac612b84565b5b60048111156108bf576108be612b84565b5b81526020019081526020015f205f9054906101000a900460ff1690505f60048111156108ee576108ed612b84565b5b81600481111561090157610900612b84565b5b03610938576040517f06708f9c00000000000000000000000000000000000000000000000000000000815260040160405180910390fd5b5f60025f8773ffffffffffffffffffffffffffffffffffffffff1673ffffffffffffffffffffffffffffffffffffffff1681526020019081526020015f206040518060600160405290815f82015f9054906101000a900460ff1660048111156109a4576109a3612b84565b5b60048111156109b6576109b5612b84565b5b81526020015f820160019054906101000a900460ff161515151581526020015f820160029054906101000a900460ff1660048111156109f8576109f7612b84565b5b6004811115610a0a57610a09612b84565b5b81525050905080602001511580610a485750816004811115610a2f57610a2e612b84565b5b815f01516004811115610a4557610a44612b84565b5b14155b15610a7f576040517f06708f9c00000000000000000000000000000000000000000000000000000000815260040160405180910390fd5b5f60065f8981526020019081526020015f205414610ac9576040517fa8b2461300000000000000000000000000000000000000000000000000000000815260040160405180910390fd5b60015f8154610ad790613380565b91905081905594508460065f8981526020019081526020015f208190555060055f8881526020019081526020015f2085908060018154018082558091505060019003905f5260205f20015f90919091909150555f60045f8781526020019081526020015f20905085815f018190555087816001018190555033816002015f6101000a81548173ffffffffffffffffffffffffffffffffffffffff021916908373ffffffffffffffffffffffffffffffffffffffff16021790555086816003015f6101000a81548173ffffffffffffffffffffffffffffffffffffffff021916908373ffffffffffffffffffffffffffffffffffffffff160217905550835f01518160030160146101000a81548160ff02191690836004811115610bfd57610bfc612b84565b5b0217905550815f01518160030160156101000a81548160ff02191690836004811115610c2c57610c2b612b84565b5b021790555060018160030160166101000a81548160ff02191690836003811115610c5957610c58612b84565b5b0217905550428160030160176101000a81548167ffffffffffffffff021916908367ffffffffffffffff1602179055508673ffffffffffffffffffffffffffffffffffffffff1686897fc28d753b16bb2547113d290859b97c49710ca25afeaf439b84eca4b64080ae4760405160405180910390a4505050505092915050565b610ce16127e1565b60025f8373ffffffffffffffffffffffffffffffffffffffff1673ffffffffffffffffffffffffffffffffffffffff1681526020019081526020015f206040518060600160405290815f82015f9054906101000a900460ff166004811115610d4c57610d4b612b84565b5b6004811115610d5e57610d5d612b84565b5b81526020015f820160019054906101000a900460ff161515151581526020015f820160029054906101000a900460ff166004811115610da057610d9f612b84565b5b6004811115610db257610db1612b84565b5b815250509050919050565b7f000000000000000000000000000000000000000000000000000000000000000073ffffffffffffffffffffffffffffffffffffffff163373ffffffffffffffffffffffffffffffffffffffff1614610e42576040517f7bfa4b9f00000000000000000000000000000000000000000000000000000000815260040160405180910390fd5b5f60025f8373ffffffffffffffffffffffffffffffffffffffff1673ffffffffffffffffffffffffffffffffffffffff1681526020019081526020015f209050805f0160019054906101000a900460ff161580610ed157505f6004811115610ead57610eac612b84565b5b815f015f9054906101000a900460ff166004811115610ecf57610ece612b84565b5b145b15610f08576040517fc19f17a900000000000000000000000000000000000000000000000000000000815260040160405180910390fd5b5f815f015f9054906101000a900460ff1690505f825f015f6101000a81548160ff02191690836004811115610f4057610f3f612b84565b5b02179055505f825f0160016101000a81548160ff0219169083151502179055505f825f0160026101000a81548160ff02191690836004811115610f8657610f85612b84565b5b0217905550806004811115610f9e57610f9d612b84565b5b8373ffffffffffffffffffffffffffffffffffffffff167f34a1009b84e077aee5bc8197faf7105e54f9ba6879e2a51a716e4156ea9ad76960405160405180910390a3505050565b5f60015f60025f3373ffffffffffffffffffffffffffffffffffffffff1673ffffffffffffffffffffffffffffffffffffffff1681526020019081526020015f206040518060600160405290815f82015f9054906101000a900460ff16600481111561105557611054612b84565b5b600481111561106757611066612b84565b5b81526020015f820160019054906101000a900460ff161515151581526020015f820160029054906101000a900460ff1660048111156110a9576110a8612b84565b5b60048111156110bb576110ba612b84565b5b815250509050806020015115806110f957508160048111156110e0576110df612b84565b5b815f015160048111156110f6576110f5612b84565b5b14155b15611130576040517fc19f17a900000000000000000000000000000000000000000000000000000000815260040160405180910390fd5b61118485855f5f67ffffffffffffffff8111156111505761114f6133c7565b5b60405190808252806020026020018201604052801561117e5781602001602082028036833780820191505090505b506125af565b9250505092915050565b611196612825565b60045f8381526020019081526020015f20604051806101200160405290815f820154815260200160018201548152602001600282015f9054906101000a900473ffffffffffffffffffffffffffffffffffffffff1673ffffffffffffffffffffffffffffffffffffffff1673ffffffffffffffffffffffffffffffffffffffff168152602001600382015f9054906101000a900473ffffffffffffffffffffffffffffffffffffffff1673ffffffffffffffffffffffffffffffffffffffff1673ffffffffffffffffffffffffffffffffffffffff1681526020016003820160149054906101000a900460ff16600481111561129557611294612b84565b5b60048111156112a7576112a6612b84565b5b81526020016003820160159054906101000a900460ff1660048111156112d0576112cf612b84565b5b60048111156112e2576112e1612b84565b5b81526020016003820160169054906101000a900460ff16600381111561130b5761130a612b84565b5b600381111561131d5761131c612b84565b5b81526020016003820160179054906101000a900467ffffffffffffffff1667ffffffffffffffff1667ffffffffffffffff168152602001600482015f9054906101000a900467ffffffffffffffff1667ffffffffffffffff1667ffffffffffffffff16815250509050919050565b5f60045f8381526020019081526020015f209050600160038111156113b3576113b2612b84565b5b8160030160169054906101000a900460ff1660038111156113d7576113d6612b84565b5b1461140e576040517f466af7c800000000000000000000000000000000000000000000000000000000815260040160405180910390fd5b3373ffffffffffffffffffffffffffffffffffffffff16816003015f9054906101000a900473ffffffffffffffffffffffffffffffffffffffff1673ffffffffffffffffffffffffffffffffffffffff16141580156114b957507f000000000000000000000000000000000000000000000000000000000000000073ffffffffffffffffffffffffffffffffffffffff163373ffffffffffffffffffffffffffffffffffffffff1614155b156114f0576040517f82b4290000000000000000000000000000000000000000000000000000000000815260040160405180910390fd5b5f60035f836001015481526020019081526020015f209050816003015f9054906101000a900473ffffffffffffffffffffffffffffffffffffffff16816004015f6101000a81548173ffffffffffffffffffffffffffffffffffffffff021916908373ffffffffffffffffffffffffffffffffffffffff1602179055508160030160159054906101000a900460ff168160040160146101000a81548160ff021916908360048111156115a5576115a4612b84565b5b021790555060028260030160166101000a81548160ff021916908360038111156115d2576115d1612b84565b5b021790555042826004015f6101000a81548167ffffffffffffffff021916908367ffffffffffffffff1602179055505f60065f846001015481526020019081526020015f2081905550827f853633f7219ef573f4075334974cdb356643da4f2331b50454a50fdb836ba0b5600260405161164c919061333a565b60405180910390a2505050565b7f000000000000000000000000000000000000000000000000000000000000000073ffffffffffffffffffffffffffffffffffffffff163373ffffffffffffffffffffffffffffffffffffffff16146116de576040517f7bfa4b9f00000000000000000000000000000000000000000000000000000000815260040160405180910390fd5b5f60025f8373ffffffffffffffffffffffffffffffffffffffff1673ffffffffffffffffffffffffffffffffffffffff1681526020019081526020015f2090505f815f0160029054906101000a900460ff1690505f600481111561174557611744612b84565b5b81600481111561175857611757612b84565b5b0361178f576040517f1557070c00000000000000000000000000000000000000000000000000000000815260040160405180910390fd5b80825f015f6101000a81548160ff021916908360048111156117b4576117b3612b84565b5b02179055506001825f0160016101000a81548160ff0219169083151502179055505f825f0160026101000a81548160ff021916908360048111156117fb576117fa612b84565b5b021790555080600481111561181357611812612b84565b5b8373ffffffffffffffffffffffffffffffffffffffff167f042f52f18ca9258767cef802b6283a39f6c1053fbd02bee367edc363da679f8660405160405180910390a3505050565b7f000000000000000000000000000000000000000000000000000000000000000073ffffffffffffffffffffffffffffffffffffffff163373ffffffffffffffffffffffffffffffffffffffff16146118e0576040517f7bfa4b9f00000000000000000000000000000000000000000000000000000000815260040160405180910390fd5b5f60025f8373ffffffffffffffffffffffffffffffffffffffff1673ffffffffffffffffffffffffffffffffffffffff1681526020019081526020015f2090505f815f0160029054906101000a900460ff1690505f600481111561194757611946612b84565b5b81600481111561195a57611959612b84565b5b03611991576040517f1557070c00000000000000000000000000000000000000000000000000000000815260040160405180910390fd5b5f825f0160026101000a81548160ff021916908360048111156119b7576119b6612b84565b5b02179055508060048111156119cf576119ce612b84565b5b8373ffffffffffffffffffffffffffffffffffffffff167fad2939eb1a3c8434901565ea2f9156d16b3cfb97d15b819364d38620ba0b19a960405160405180910390a3505050565b611a1f6128de565b5f60035f8481526020019081526020015f20604051806101200160405290815f8201548152602001600182015f9054906101000a900460ff166001811115611a6a57611a69612b84565b5b6001811115611a7c57611a7b612b84565b5b8152602001600282018054611a9090613421565b80601f0160208091040260200160405190810160405280929190818152602001828054611abc90613421565b8015611b075780601f10611ade57610100808354040283529160200191611b07565b820191905f5260205f20905b815481529060010190602001808311611aea57829003601f168201915b50505050508152602001600382015f9054906101000a900473ffffffffffffffffffffffffffffffffffffffff1673ffffffffffffffffffffffffffffffffffffffff1673ffffffffffffffffffffffffffffffffffffffff168152602001600482015f9054906101000a900473ffffffffffffffffffffffffffffffffffffffff1673ffffffffffffffffffffffffffffffffffffffff1673ffffffffffffffffffffffffffffffffffffffff1681526020016004820160149054906101000a900460ff166004811115611bdf57611bde612b84565b5b6004811115611bf157611bf0612b84565b5b81526020016004820160159054906101000a900467ffffffffffffffff1667ffffffffffffffff1667ffffffffffffffff16815260200160058201805480602002602001604051908101604052809291908181526020018280548015611c7457602002820191905f5260205f20905b815481526020019060010190808311611c60575b50505050508152602001600682015f9054906101000a900460ff1615151515815250509050806101000151611cd5576040517f67fa94e700000000000000000000000000000000000000000000000000000000815260040160405180910390fd5b80915050919050565b7f000000000000000000000000000000000000000000000000000000000000000081565b60605f60035f8481526020019081526020015f20604051806101200160405290815f8201548152602001600182015f9054906101000a900460ff166001811115611d4f57611d4e612b84565b5b6001811115611d6157611d60612b84565b5b8152602001600282018054611d7590613421565b80601f0160208091040260200160405190810160405280929190818152602001828054611da190613421565b8015611dec5780601f10611dc357610100808354040283529160200191611dec565b820191905f5260205f20905b815481529060010190602001808311611dcf57829003601f168201915b50505050508152602001600382015f9054906101000a900473ffffffffffffffffffffffffffffffffffffffff1673ffffffffffffffffffffffffffffffffffffffff1673ffffffffffffffffffffffffffffffffffffffff168152602001600482015f9054906101000a900473ffffffffffffffffffffffffffffffffffffffff1673ffffffffffffffffffffffffffffffffffffffff1673ffffffffffffffffffffffffffffffffffffffff1681526020016004820160149054906101000a900460ff166004811115611ec457611ec3612b84565b5b6004811115611ed657611ed5612b84565b5b81526020016004820160159054906101000a900467ffffffffffffffff1667ffffffffffffffff1667ffffffffffffffff16815260200160058201805480602002602001604051908101604052809291908181526020018280548015611f5957602002820191905f5260205f20905b815481526020019060010190808311611f45575b50505050508152602001600682015f9054906101000a900460ff1615151515815250509050806101000151611fba576040517f67fa94e700000000000000000000000000000000000000000000000000000000815260040160405180910390fd5b5f60055f8581526020019081526020015f2090505f818054905090508067ffffffffffffffff811115611ff057611fef6133c7565b5b60405190808252806020026020018201604052801561202957816020015b612016612825565b81526020019060019003908161200e5790505b5093505f5b818110156122685760045f84838154811061204c5761204b613451565b5b905f5260205f20015481526020019081526020015f20604051806101200160405290815f820154815260200160018201548152602001600282015f9054906101000a900473ffffffffffffffffffffffffffffffffffffffff1673ffffffffffffffffffffffffffffffffffffffff1673ffffffffffffffffffffffffffffffffffffffff168152602001600382015f9054906101000a900473ffffffffffffffffffffffffffffffffffffffff1673ffffffffffffffffffffffffffffffffffffffff1673ffffffffffffffffffffffffffffffffffffffff1681526020016003820160149054906101000a900460ff1660048111156121505761214f612b84565b5b600481111561216257612161612b84565b5b81526020016003820160159054906101000a900460ff16600481111561218b5761218a612b84565b5b600481111561219d5761219c612b84565b5b81526020016003820160169054906101000a900460ff1660038111156121c6576121c5612b84565b5b60038111156121d8576121d7612b84565b5b81526020016003820160179054906101000a900467ffffffffffffffff1667ffffffffffffffff1667ffffffffffffffff168152602001600482015f9054906101000a900467ffffffffffffffff1667ffffffffffffffff1667ffffffffffffffff168152505085828151811061225257612251613451565b5b602002602001018190525080600101905061202e565b50505050919050565b5f60025f60025f3373ffffffffffffffffffffffffffffffffffffffff1673ffffffffffffffffffffffffffffffffffffffff1681526020019081526020015f206040518060600160405290815f82015f9054906101000a900460ff1660048111156122e0576122df612b84565b5b60048111156122f2576122f1612b84565b5b81526020015f820160019054906101000a900460ff161515151581526020015f820160029054906101000a900460ff16600481111561233457612333612b84565b5b600481111561234657612345612b84565b5b81525050905080602001511580612384575081600481111561236b5761236a612b84565b5b815f0151600481111561238157612380612b84565b5b14155b156123bb576040517fc19f17a900000000000000000000000000000000000000000000000000000000815260040160405180910390fd5b5f85859050036123f7576040517f1dae9e7000000000000000000000000000000000000000000000000000000000815260040160405180910390fd5b5f8585905067ffffffffffffffff811115612415576124146133c7565b5b6040519080825280602002602001820160405280156124435781602001602082028036833780820191505090505b5090505f5b86869050811015612594575f60035f89898581811061246a57612469613451565b5b9050602002013581526020019081526020015f209050806006015f9054906101000a900460ff166124c7576040517f67fa94e700000000000000000000000000000000000000000000000000000000815260040160405180910390fd5b3373ffffffffffffffffffffffffffffffffffffffff16816004015f9054906101000a900473ffffffffffffffffffffffffffffffffffffffff1673ffffffffffffffffffffffffffffffffffffffff161461254f576040517f06708f9c00000000000000000000000000000000000000000000000000000000815260040160405180910390fd5b87878381811061256257612561613451565b5b9050602002013583838151811061257c5761257b613451565b5b60200260200101818152505050806001019050612448565b506125a288886001846125af565b9350505050949350505050565b5f5f5f81546125bd90613380565b91905081905590505f60035f8381526020019081526020015f20905081815f018190555083816001015f6101000a81548160ff0219169083600181111561260757612606612b84565b5b0217905550858582600201918261261f929190613628565b5033816003015f6101000a81548173ffffffffffffffffffffffffffffffffffffffff021916908373ffffffffffffffffffffffffffffffffffffffff16021790555033816004015f6101000a81548173ffffffffffffffffffffffffffffffffffffffff021916908373ffffffffffffffffffffffffffffffffffffffff16021790555060025f3373ffffffffffffffffffffffffffffffffffffffff1673ffffffffffffffffffffffffffffffffffffffff1681526020019081526020015f205f015f9054906101000a900460ff168160040160146101000a81548160ff0219169083600481111561271657612715612b84565b5b0217905550428160040160156101000a81548167ffffffffffffffff021916908367ffffffffffffffff1602179055506001816006015f6101000a81548160ff0219169083151502179055505f83511115612785578281600501908051906020019061278392919061297f565b505b3373ffffffffffffffffffffffffffffffffffffffff16827f66c4c4a6675549b0f6a47a82a7b97ade75dc94a0f879f6c10b4eb5bcb74521968689896040516127d09392919061374e565b60405180910390a350949350505050565b60405180606001604052805f60048111156127ff576127fe612b84565b5b81526020015f151581526020015f600481111561281f5761281e612b84565b5b81525090565b6040518061012001604052805f81526020015f81526020015f73ffffffffffffffffffffffffffffffffffffffff1681526020015f73ffffffffffffffffffffffffffffffffffffffff1681526020015f600481111561288857612887612b84565b5b81526020015f60048111156128a05761289f612b84565b5b81526020015f60038111156128b8576128b7612b84565b5b81526020015f67ffffffffffffffff1681526020015f67ffffffffffffffff1681525090565b6040518061012001604052805f81526020015f600181111561290357612902612b84565b5b8152602001606081526020015f73ffffffffffffffffffffffffffffffffffffffff1681526020015f73ffffffffffffffffffffffffffffffffffffffff1681526020015f600481111561295a57612959612b84565b5b81526020015f67ffffffffffffffff168152602001606081526020015f151581525090565b828054828255905f5260205f209081019282156129b9579160200282015b828111156129b857825182559160200191906001019061299d565b5b5090506129c691906129ca565b5090565b5b808211156129e1575f815f9055506001016129cb565b5090565b5f5ffd5b5f5ffd5b5f819050919050565b6129ff816129ed565b8114612a09575f5ffd5b50565b5f81359050612a1a816129f6565b92915050565b5f60208284031215612a3557612a346129e5565b5b5f612a4284828501612a0c565b91505092915050565b60058110612a57575f5ffd5b50565b5f81359050612a6881612a4b565b92915050565b5f60208284031215612a8357612a826129e5565b5b5f612a9084828501612a5a565b91505092915050565b5f73ffffffffffffffffffffffffffffffffffffffff82169050919050565b5f612ac282612a99565b9050919050565b612ad281612ab8565b8114612adc575f5ffd5b50565b5f81359050612aed81612ac9565b92915050565b5f5f60408385031215612b0957612b086129e5565b5b5f612b1685828601612a0c565b9250506020612b2785828601612adf565b9150509250929050565b612b3a816129ed565b82525050565b5f602082019050612b535f830184612b31565b92915050565b5f60208284031215612b6e57612b6d6129e5565b5b5f612b7b84828501612adf565b91505092915050565b7f4e487b71000000000000000000000000000000000000000000000000000000005f52602160045260245ffd5b60058110612bc257612bc1612b84565b5b50565b5f819050612bd282612bb1565b919050565b5f612be182612bc5565b9050919050565b612bf181612bd7565b82525050565b5f8115159050919050565b612c0b81612bf7565b82525050565b606082015f820151612c255f850182612be8565b506020820151612c386020850182612c02565b506040820151612c4b6040850182612be8565b50505050565b5f606082019050612c645f830184612c11565b92915050565b5f5ffd5b5f5ffd5b5f5ffd5b5f5f83601f840112612c8b57612c8a612c6a565b5b8235905067ffffffffffffffff811115612ca857612ca7612c6e565b5b602083019150836001820283011115612cc457612cc3612c72565b5b9250929050565b5f5f60208385031215612ce157612ce06129e5565b5b5f83013567ffffffffffffffff811115612cfe57612cfd6129e9565b5b612d0a85828601612c76565b92509250509250929050565b612d1f816129ed565b82525050565b612d2e81612ab8565b82525050565b60048110612d4557612d44612b84565b5b50565b5f819050612d5582612d34565b919050565b5f612d6482612d48565b9050919050565b612d7481612d5a565b82525050565b5f67ffffffffffffffff82169050919050565b612d9681612d7a565b82525050565b61012082015f820151612db15f850182612d16565b506020820151612dc46020850182612d16565b506040820151612dd76040850182612d25565b506060820151612dea6060850182612d25565b506080820151612dfd6080850182612be8565b5060a0820151612e1060a0850182612be8565b5060c0820151612e2360c0850182612d6b565b5060e0820151612e3660e0850182612d8d565b50610100820151612e4b610100850182612d8d565b50505050565b5f61012082019050612e655f830184612d9c565b92915050565b60028110612e7c57612e7b612b84565b5b50565b5f819050612e8c82612e6b565b919050565b5f612e9b82612e7f565b9050919050565b612eab81612e91565b82525050565b5f81519050919050565b5f82825260208201905092915050565b8281835e5f83830152505050565b5f601f19601f8301169050919050565b5f612ef382612eb1565b612efd8185612ebb565b9350612f0d818560208601612ecb565b612f1681612ed9565b840191505092915050565b5f81519050919050565b5f82825260208201905092915050565b5f819050602082019050919050565b5f612f558383612d16565b60208301905092915050565b5f602082019050919050565b5f612f7782612f21565b612f818185612f2b565b9350612f8c83612f3b565b805f5b83811015612fbc578151612fa38882612f4a565b9750612fae83612f61565b925050600181019050612f8f565b5085935050505092915050565b5f61012083015f830151612fdf5f860182612d16565b506020830151612ff26020860182612ea2565b506040830151848203604086015261300a8282612ee9565b915050606083015161301f6060860182612d25565b5060808301516130326080860182612d25565b5060a083015161304560a0860182612be8565b5060c083015161305860c0860182612d8d565b5060e083015184820360e08601526130708282612f6d565b915050610100830151613087610100860182612c02565b508091505092915050565b5f6020820190508181035f8301526130aa8184612fc9565b905092915050565b6130bb81612ab8565b82525050565b5f6020820190506130d45f8301846130b2565b92915050565b5f81519050919050565b5f82825260208201905092915050565b5f819050602082019050919050565b61012082015f8201516131185f850182612d16565b50602082015161312b6020850182612d16565b50604082015161313e6040850182612d25565b5060608201516131516060850182612d25565b5060808201516131646080850182612be8565b5060a082015161317760a0850182612be8565b5060c082015161318a60c0850182612d6b565b5060e082015161319d60e0850182612d8d565b506101008201516131b2610100850182612d8d565b50505050565b5f6131c38383613103565b6101208301905092915050565b5f602082019050919050565b5f6131e6826130da565b6131f081856130e4565b93506131fb836130f4565b805f5b8381101561322b57815161321288826131b8565b975061321d836131d0565b9250506001810190506131fe565b5085935050505092915050565b5f6020820190508181035f83015261325081846131dc565b905092915050565b5f5f83601f84011261326d5761326c612c6a565b5b8235905067ffffffffffffffff81111561328a57613289612c6e565b5b6020830191508360208202830111156132a6576132a5612c72565b5b9250929050565b5f5f5f5f604085870312156132c5576132c46129e5565b5b5f85013567ffffffffffffffff8111156132e2576132e16129e9565b5b6132ee87828801612c76565b9450945050602085013567ffffffffffffffff811115613311576133106129e9565b5b61331d87828801613258565b925092505092959194509250565b61333481612d5a565b82525050565b5f60208201905061334d5f83018461332b565b92915050565b7f4e487b71000000000000000000000000000000000000000000000000000000005f52601160045260245ffd5b5f61338a826129ed565b91507fffffffffffffffffffffffffffffffffffffffffffffffffffffffffffffffff82036133bc576133bb613353565b5b600182019050919050565b7f4e487b71000000000000000000000000000000000000000000000000000000005f52604160045260245ffd5b7f4e487b71000000000000000000000000000000000000000000000000000000005f52602260045260245ffd5b5f600282049050600182168061343857607f821691505b60208210810361344b5761344a6133f4565b5b50919050565b7f4e487b71000000000000000000000000000000000000000000000000000000005f52603260045260245ffd5b5f82905092915050565b5f819050815f5260205f209050919050565b5f6020601f8301049050919050565b5f82821b905092915050565b5f600883026134e47fffffffffffffffffffffffffffffffffffffffffffffffffffffffffffffffff826134a9565b6134ee86836134a9565b95508019841693508086168417925050509392505050565b5f819050919050565b5f61352961352461351f846129ed565b613506565b6129ed565b9050919050565b5f819050919050565b6135428361350f565b61355661354e82613530565b8484546134b5565b825550505050565b5f5f905090565b61356d61355e565b613578818484613539565b505050565b5b8181101561359b576135905f82613565565b60018101905061357e565b5050565b601f8211156135e0576135b181613488565b6135ba8461349a565b810160208510156135c9578190505b6135dd6135d58561349a565b83018261357d565b50505b505050565b5f82821c905092915050565b5f6136005f19846008026135e5565b1980831691505092915050565b5f61361883836135f1565b9150826002028217905092915050565b613632838361347e565b67ffffffffffffffff81111561364b5761364a6133c7565b5b6136558254613421565b61366082828561359f565b5f601f83116001811461368d575f841561367b578287013590505b613685858261360d565b8655506136ec565b601f19841661369b86613488565b5f5b828110156136c25784890135825560018201915060208501945060208101905061369d565b868310156136df57848901356136db601f8916826135f1565b8355505b6001600288020188555050505b50505050505050565b6136fe81612e91565b82525050565b5f82825260208201905092915050565b828183375f83830152505050565b5f61372d8385613704565b935061373a838584613714565b61374383612ed9565b840190509392505050565b5f6040820190506137615f8301866136f5565b8181036020830152613774818486613722565b905094935050505056fea26469706673582212201388c61a2ae2f3f7c9a2ca0913639c5774ff7308ac72bc47db740d10058fa3b664736f6c634300081e0033","linkReferences":{}},"methodIdentifiers":{"admin()":"f851a440","approveRole(address)":"ddb3ac26","approveTransfer(uint256)":"cacca4a0","createProcessedAsset(string,uint256[])":"fe7d7ef2","createRawAsset(string)":"88d9fc7a","getAsset(uint256)":"eac8f5b8","getAssetTransfers(uint256)":"f9f9bf8c","getTransfer(uint256)":"c16fe907","getUser(address)":"6f77926b","rejectRole(address)":"e1023b88","rejectTransfer(uint256)":"12effc32","requestRole(uint8)":"1896d298","requestTransfer(uint256,address)":"40344232","revokeRole(address)":"80e52e3f"},"id":16}