{"abi":[{"type":"constructor","inputs":[],"stateMutability":"nonpayable"},{"type":"function","name":"admin","inputs":[],"outputs":[{"name":"","type":"address","internalType":"address"}],"stateMutability":"view"},{"type":"function","name":"approveRole","inputs":[{"name":"account","type":"address","internalType":"address"}],"outputs":[],"stateMutability":"nonpayable"},{"type":"function","name":"approveTransfer","inputs":[{"name":"transferId","type":"uint256","internalType":"uint256"}],"outputs":[],"stateMutability":"nonpayable"},{"type":"function","name":"createProcessedAsset","inputs":[{"name":"metadataURI","type":"string","internalType":"string"},{"name":"parentIds","type":"uint256[]","internalType":"uint256[]"}],"outputs":[{"name":"assetId","type":"uint256","internalType":"uint256"}],"stateMutability":"nonpayable"},{"type":"function","name":"createRawAsset","inputs":[{"name":"metadataURI","type":"string","internalType":"string"}],"outputs":[{"name":"assetId","type":"uint256","internalType":"uint256"}],"stateMutability":"nonpayable"},{"type":"function","name":"getAsset","inputs":[{"name":"assetId","type":"uint256","internalType":"uint256"}],"outputs":[{"name":"","type":"tuple","internalType":"struct SupplyChainTracker.Asset","components":[{"name":"id","type":"uint256","internalType":"uint256"},{"name":"assetType","type":"uint8","internalType":"enum SupplyChainTracker.AssetType"},{"name":"metadataURI","type":"string","internalType":"string"},{"name":"creator","type":"address","internalType":"address"},{"name":"currentHolder","type":"address","internalType":"address"},{"name":"currentRole","type":"uint8","internalType":"enum SupplyChainTracker.Role"},{"name":"createdAt","type":"uint64","internalType":"uint64"},{"name":"parentIds","type":"uint256[]","internalType":"uint256[]"},{"name":"exists","type":"bool","internalType":"bool"}]}],"stateMutability":"view"},{"type":"function","name":"getAssetTransfers","inputs":[{"name":"assetId","type":"uint256","internalType":"uint256"}],"outputs":[{"name":"history","type":"tuple[]","internalType":"struct SupplyChainTracker.Transfer[]","components":[{"name":"id","type":"uint256","internalType":"uint256"},{"name":"assetId","type":"uint256","internalType":"uint256"},{"name":"from","type":"address","internalType":"address"},{"name":"to","type":"address","internalType":"address"},{"name":"fromRole","type":"uint8","internalType":"enum SupplyChainTracker.Role"},{"name":"toRole","type":"uint8","internalType":"enum SupplyChainTracker.Role"},{"name":"status","type":"uint8","internalType":"enum SupplyChainTracker.TransferStatus"},{"name":"requestedAt","type":"uint64","internalType":"uint64"},{"name":"resolvedAt","type":"uint64","internalType":"uint64"}]}],"stateMutability":"view"},{"type":"function","name":"getTransfer","inputs":[{"name":"transferId","type":"uint256","internalType":"uint256"}],"outputs":[{"name":"","type":"tuple","internalType":"struct SupplyChainTracker.Transfer","components":[{"name":"id","type":"uint256","internalType":"uint256"},{"name":"assetId","type":"uint256","internalType":"uint256"},{"name":"from","type":"address","internalType":"address"},{"name":"to","type":"address","internalType":"address"},{"name":"fromRole","type":"uint8","internalType":"enum SupplyChainTracker.Role"},{"name":"toRole","type":"uint8","internalType":"enum SupplyChainTracker.Role"},{"name":"status","type":"uint8","internalType":"enum SupplyChainTracker.TransferStatus"},{"name":"requestedAt","type":"uint64","internalType":"uint64"},{"name":"resolvedAt","type":"uint64","internalType":"uint64"}]}],"stateMutability":"view"},{"type":"function","name":"getUser","inputs":[{"name":"account","type":"address","internalType":"address"}],"outputs":[{"name":"","type":"tuple","internalType":"struct SupplyChainTracker.User","components":[{"name":"role","type":"uint8","internalType":"enum SupplyChainTracker.Role"},{"name":"approved","type":"bool","internalType":"bool"},{"name":"requestedRole","type":"uint8","internalType":"enum SupplyChainTracker.Role"}]}],"stateMutability":"view"},{"type":"function","name":"rejectRole","inputs":[{"name":"account","type":"address","internalType":"address"}],"outputs":[],"stateMutability":"nonpayable"},{"type":"function","name":"rejectTransfer","inputs":[{"name":"transferId","type":"uint256","internalType":"uint256"}],"outputs":[],"stateMutability":"nonpayable"},{"type":"function","name":"requestRole","inputs":[{"name":"desiredRole","type":"uint8","internalType":"enum SupplyChainTracker.Role"}],"outputs":[],"stateMutability":"nonpayable"},{"type":"function","name":"requestTransfer","inputs":[{"name":"assetId","type":"uint256","internalType":"uint256"},{"name":"to","type":"address","internalType":"address"}],"outputs":[{"name":"transferId","type":"uint256","internalType":"uint256"}],"stateMutability":"nonpayable"},{"type":"event","name":"AssetCreated","inputs":[{"name":"assetId","type":"uint256","indexed":true,"internalType":"uint256"},{"name":"assetType","type":"uint8","indexed":false,"internalType":"enum SupplyChainTracker.AssetType"},{"name":"creator","type":"address","indexed":true,"internalType":"address"},{"name":"metadataURI","type":"string","indexed":false,"internalType":"string"}],"anonymous":false},{"type":"event","name":"RoleApproved","inputs":[{"name":"account","type":"address","indexed":true,"internalType":"address"},{"name":"role","type":"uint8","indexed":true,"internalType":"enum SupplyChainTracker.Role"}],"anonymous":false},{"type":"event","name":"RoleRejected","inputs":[{"name":"account","type":"address","indexed":true,"internalType":"address"},{"name":"requestedRole","type":"uint8","indexed":true,"internalType":"enum SupplyChainTracker.Role"}],"anonymous":false},{"type":"event","name":"RoleRequested","inputs":[{"name":"account","type":"address","indexed":true,"internalType":"address"},{"name":"requestedRole","type":"uint8","indexed":true,"internalType":"enum SupplyChainTracker.Role"}],"anonymous":false},{"type":"event","name":"TransferRequested","inputs":[{"name":"assetId","type":"uint256","indexed":true,"internalType":"uint256"},{"name":"transferId","type":"uint256","indexed":true,"internalType":"uint256"},{"name":"to","type":"address","indexed":true,"internalType":"address"}],"anonymous":false},{"type":"event","name":"TransferResolved","inputs":[{"name":"transferId","type":"uint256","indexed":true,"internalType":"uint256"},{"name":"status","type":"uint8","indexed":false,"internalType":"enum SupplyChainTracker.TransferStatus"}],"anonymous":false},{"type":"error","name":"AssetDoesNotExist","inputs":[]},{"type":"error","name":"InvalidAddress","inputs":[]},{"type":"error","name":"InvalidRoleRequest","inputs":[]},{"type":"error","name":"InvalidRoleTransition","inputs":[]},{"type":"error","name":"MissingParentAssets","inputs":[]},{"type":"error","name":"NotAdmin","inputs":[]},{"type":"error","name":"NotApproved","inputs":[]},{"type":"error","name":"RoleNotRequested","inputs":[]},{"type":"error","name":"TransferAlreadyPending","inputs":[]},{"type":"error","name":"TransferNotPending","inputs":[]},{"type":"error","name":"Unauthorized","inputs":[]}],"bytecode":{"object":"0x60a060405234801561000f575f5ffd5b503373ffffffffffffffffffffffffffffffffffffffff1660808173ffffffffffffffffffffffffffffffffffffffff1681525050600260075f6001600481111561005d5761005c610163565b5b600481111561006f5761006e610163565b5b81526020019081526020015f205f6101000a81548160ff0219169083600481111561009d5761009c610163565b5b0217905550600360075f600260048111156100bb576100ba610163565b5b60048111156100cd576100cc610163565b5b81526020019081526020015f205f6101000a81548160ff021916908360048111156100fb576100fa610163565b5b0217905550600460075f6003600481111561011957610118610163565b5b600481111561012b5761012a610163565b5b81526020019081526020015f205f6101000a81548160ff0219169083600481111561015957610158610163565b5b0217905550610190565b7f4e487b71000000000000000000000000000000000000000000000000000000005f52602160045260245ffd5b6080516135546101c45f395f81816103aa0152818161120a015281816113fb015281816115fd0152611a8001526135545ff3fe608060405234801561000f575f5ffd5b50600436106100cd575f3560e01c8063cacca4a01161008a578063eac8f5b811610064578063eac8f5b81461021d578063f851a4401461024d578063f9f9bf8c1461026b578063fe7d7ef21461029b576100cd565b8063cacca4a0146101c9578063ddb3ac26146101e5578063e1023b8814610201576100cd565b806312effc32146100d15780631896d298146100ed57806340344232146101095780636f77926b1461013957806388d9fc7a14610169578063c16fe90714610199575b5f5ffd5b6100eb60048036038101906100e691906127c0565b6102cb565b005b6101076004803603810190610102919061280e565b6104de565b005b610123600480360381019061011e9190612893565b610600565b60405161013091906128e0565b60405180910390f35b610153600480360381019061014e91906128f9565b610ca2565b60405161016091906129f1565b60405180910390f35b610183600480360381019061017e9190612a6b565b610d86565b60405161019091906128e0565b60405180910390f35b6101b360048036038101906101ae91906127c0565b610f2e565b6040516101c09190612bf1565b60405180910390f35b6101e360048036038101906101de91906127c0565b61112b565b005b6101ff60048036038101906101fa91906128f9565b6113f9565b005b61021b600480360381019061021691906128f9565b6115fb565b005b610237600480360381019061023291906127c0565b6117b7565b6040516102449190612e32565b60405180910390f35b610255611a7e565b6040516102629190612e61565b60405180910390f35b610285600480360381019061028091906127c0565b611aa2565b6040516102929190612fd8565b60405180910390f35b6102b560048036038101906102b0919061304d565b612011565b6040516102c291906128e0565b60405180910390f35b5f60045f8381526020019081526020015f209050600160038111156102f3576102f2612924565b5b8160030160169054906101000a900460ff16600381111561031757610316612924565b5b1461034e576040517f466af7c800000000000000000000000000000000000000000000000000000000815260040160405180910390fd5b3373ffffffffffffffffffffffffffffffffffffffff16816003015f9054906101000a900473ffffffffffffffffffffffffffffffffffffffff1673ffffffffffffffffffffffffffffffffffffffff16141580156103f957507f000000000000000000000000000000000000000000000000000000000000000073ffffffffffffffffffffffffffffffffffffffff163373ffffffffffffffffffffffffffffffffffffffff1614155b15610430576040517f82b4290000000000000000000000000000000000000000000000000000000000815260040160405180910390fd5b60038160030160166101000a81548160ff0219169083600381111561045857610457612924565b5b021790555042816004015f6101000a81548167ffffffffffffffff021916908367ffffffffffffffff1602179055505f60065f836001015481526020019081526020015f2081905550817f853633f7219ef573f4075334974cdb356643da4f2331b50454a50fdb836ba0b560036040516104d291906130da565b60405180910390a25050565b5f60048111156104f1576104f0612924565b5b81600481111561050457610503612924565b5b0361053b576040517f2ee14bf800000000000000000000000000000000000000000000000000000000815260040160405180910390fd5b5f60025f3373ffffffffffffffffffffffffffffffffffffffff1673ffffffffffffffffffffffffffffffffffffffff1681526020019081526020015f20905081815f0160026101000a81548160ff021916908360048111156105a1576105a0612924565b5b02179055508160048111156105b9576105b8612924565b5b3373ffffffffffffffffffffffffffffffffffffffff167ff895b94cb55ee9f608ecb65ff13cf68962fd45bdfcfb5a3eaafcaa1571571e0260405160405180910390a35050565b5f5f73ffffffffffffffffffffffffffffffffffffffff168273ffffffffffffffffffffffffffffffffffffffff1603610666576040517fe6c4247b00000000000000000000000000000000000000000000000000000000815260040160405180910390fd5b5f60035f8581526020019081526020015f209050806006015f9054906101000a900460ff166106c1576040517f67fa94e700000000000000000000000000000000000000000000000000000000815260040160405180910390fd5b3373ffffffffffffffffffffffffffffffffffffffff16816004015f9054906101000a900473ffffffffffffffffffffffffffffffffffffffff1673ffffffffffffffffffffffffffffffffffffffff1614610749576040517f82b4290000000000000000000000000000000000000000000000000000000000815260040160405180910390fd5b5f60025f3373ffffffffffffffffffffffffffffffffffffffff1673ffffffffffffffffffffffffffffffffffffffff1681526020019081526020015f206040518060600160405290815f82015f9054906101000a900460ff1660048111156107b5576107b4612924565b5b60048111156107c7576107c6612924565b5b81526020015f820160019054906101000a900460ff161515151581526020015f820160029054906101000a900460ff16600481111561080957610808612924565b5b600481111561081b5761081a612924565b5b815250509050806020015161085c576040517fc19f17a900000000000000000000000000000000000000000000000000000000815260040160405180910390fd5b5f60075f835f0151600481111561087657610875612924565b5b600481111561088857610887612924565b5b81526020019081526020015f205f9054906101000a900460ff1690505f60048111156108b7576108b6612924565b5b8160048111156108ca576108c9612924565b5b03610901576040517f06708f9c00000000000000000000000000000000000000000000000000000000815260040160405180910390fd5b5f60025f8773ffffffffffffffffffffffffffffffffffffffff1673ffffffffffffffffffffffffffffffffffffffff1681526020019081526020015f206040518060600160405290815f82015f9054906101000a900460ff16600481111561096d5761096c612924565b5b600481111561097f5761097e612924565b5b81526020015f820160019054906101000a900460ff161515151581526020015f820160029054906101000a900460ff1660048111156109c1576109c0612924565b5b60048111156109d3576109d2612924565b5b81525050905080602001511580610a1157508160048111156109f8576109f7612924565b5b815f01516004811115610a0e57610a0d612924565b5b14155b15610a48576040517f06708f9c00000000000000000000000000000000000000000000000000000000815260040160405180910390fd5b5f60065f8981526020019081526020015f205414610a92576040517fa8b2461300000000000000000000000000000000000000000000000000000000815260040160405180910390fd5b60015f8154610aa090613120565b91905081905594508460065f8981526020019081526020015f208190555060055f8881526020019081526020015f2085908060018154018082558091505060019003905f5260205f20015f90919091909150555f60045f8781526020019081526020015f20905085815f018190555087816001018190555033816002015f6101000a81548173ffffffffffffffffffffffffffffffffffffffff021916908373ffffffffffffffffffffffffffffffffffffffff16021790555086816003015f6101000a81548173ffffffffffffffffffffffffffffffffffffffff021916908373ffffffffffffffffffffffffffffffffffffffff160217905550835f01518160030160146101000a81548160ff02191690836004811115610bc657610bc5612924565b5b0217905550815f01518160030160156101000a81548160ff02191690836004811115610bf557610bf4612924565b5b021790555060018160030160166101000a81548160ff02191690836003811115610c2257610c21612924565b5b0217905550428160030160176101000a81548167ffffffffffffffff021916908367ffffffffffffffff1602179055508673ffffffffffffffffffffffffffffffffffffffff1686897fc28d753b16bb2547113d290859b97c49710ca25afeaf439b84eca4b64080ae4760405160405180910390a4505050505092915050565b610caa612581565b60025f8373ffffffffffffffffffffffffffffffffffffffff1673ffffffffffffffffffffffffffffffffffffffff1681526020019081526020015f206040518060600160405290815f82015f9054906101000a900460ff166004811115610d1557610d14612924565b5b6004811115610d2757610d26612924565b5b81526020015f820160019054906101000a900460ff161515151581526020015f820160029054906101000a900460ff166004811115610d6957610d68612924565b5b6004811115610d7b57610d7a612924565b5b815250509050919050565b5f60015f60025f3373ffffffffffffffffffffffffffffffffffffffff1673ffffffffffffffffffffffffffffffffffffffff1681526020019081526020015f206040518060600160405290815f82015f9054906101000a900460ff166004811115610df557610df4612924565b5b6004811115610e0757610e06612924565b5b81526020015f820160019054906101000a900460ff161515151581526020015f820160029054906101000a900460ff166004811115610e4957610e48612924565b5b6004811115610e5b57610e5a612924565b5b81525050905080602001511580610e995750816004811115610e8057610e7f612924565b5b815f01516004811115610e9657610e95612924565b5b14155b15610ed0576040517fc19f17a900000000000000000000000000000000000000000000000000000000815260040160405180910390fd5b610f2485855f5f67ffffffffffffffff811115610ef057610eef613167565b5b604051908082528060200260200182016040528015610f1e5781602001602082028036833780820191505090505b5061234f565b9250505092915050565b610f366125c5565b60045f8381526020019081526020015f20604051806101200160405290815f820154815260200160018201548152602001600282015f9054906101000a900473ffffffffffffffffffffffffffffffffffffffff1673ffffffffffffffffffffffffffffffffffffffff1673ffffffffffffffffffffffffffffffffffffffff168152602001600382015f9054906101000a900473ffffffffffffffffffffffffffffffffffffffff1673ffffffffffffffffffffffffffffffffffffffff1673ffffffffffffffffffffffffffffffffffffffff1681526020016003820160149054906101000a900460ff16600481111561103557611034612924565b5b600481111561104757611046612924565b5b81526020016003820160159054906101000a900460ff1660048111156110705761106f612924565b5b600481111561108257611081612924565b5b81526020016003820160169054906101000a900460ff1660038111156110ab576110aa612924565b5b60038111156110bd576110bc612924565b5b81526020016003820160179054906101000a900467ffffffffffffffff1667ffffffffffffffff1667ffffffffffffffff168152602001600482015f9054906101000a900467ffffffffffffffff1667ffffffffffffffff1667ffffffffffffffff16815250509050919050565b5f60045f8381526020019081526020015f2090506001600381111561115357611152612924565b5b8160030160169054906101000a900460ff16600381111561117757611176612924565b5b146111ae576040517f466af7c800000000000000000000000000000000000000000000000000000000815260040160405180910390fd5b3373ffffffffffffffffffffffffffffffffffffffff16816003015f9054906101000a900473ffffffffffffffffffffffffffffffffffffffff1673ffffffffffffffffffffffffffffffffffffffff161415801561125957507f000000000000000000000000000000000000000000000000000000000000000073ffffffffffffffffffffffffffffffffffffffff163373ffffffffffffffffffffffffffffffffffffffff1614155b15611290576040517f82b4290000000000000000000000000000000000000000000000000000000000815260040160405180910390fd5b5f60035f836001015481526020019081526020015f209050816003015f9054906101000a900473ffffffffffffffffffffffffffffffffffffffff16816004015f6101000a81548173ffffffffffffffffffffffffffffffffffffffff021916908373ffffffffffffffffffffffffffffffffffffffff1602179055508160030160159054906101000a900460ff168160040160146101000a81548160ff0219169083600481111561134557611344612924565b5b021790555060028260030160166101000a81548160ff0219169083600381111561137257611371612924565b5b021790555042826004015f6101000a81548167ffffffffffffffff021916908367ffffffffffffffff1602179055505f60065f846001015481526020019081526020015f2081905550827f853633f7219ef573f4075334974cdb356643da4f2331b50454a50fdb836ba0b560026040516113ec91906130da565b60405180910390a2505050565b7f000000000000000000000000000000000000000000000000000000000000000073ffffffffffffffffffffffffffffffffffffffff163373ffffffffffffffffffffffffffffffffffffffff161461147e576040517f7bfa4b9f00000000000000000000000000000000000000000000000000000000815260040160405180910390fd5b5f60025f8373ffffffffffffffffffffffffffffffffffffffff1673ffffffffffffffffffffffffffffffffffffffff1681526020019081526020015f2090505f815f0160029054906101000a900460ff1690505f60048111156114e5576114e4612924565b5b8160048111156114f8576114f7612924565b5b0361152f576040517f1557070c00000000000000000000000000000000000000000000000000000000815260040160405180910390fd5b80825f015f6101000a81548160ff0219169083600481111561155457611553612924565b5b02179055506001825f0160016101000a81548160ff0219169083151502179055505f825f0160026101000a81548160ff0219169083600481111561159b5761159a612924565b5b02179055508060048111156115b3576115b2612924565b5b8373ffffffffffffffffffffffffffffffffffffffff167f042f52f18ca9258767cef802b6283a39f6c1053fbd02bee367edc363da679f8660405160405180910390a3505050565b7f000000000000000000000000000000000000000000000000000000000000000073ffffffffffffffffffffffffffffffffffffffff163373ffffffffffffffffffffffffffffffffffffffff1614611680576040517f7bfa4b9f00000000000000000000000000000000000000000000000000000000815260040160405180910390fd5b5f60025f8373ffffffffffffffffffffffffffffffffffffffff1673ffffffffffffffffffffffffffffffffffffffff1681526020019081526020015f2090505f815f0160029054906101000a900460ff1690505f60048111156116e7576116e6612924565b5b8160048111156116fa576116f9612924565b5b03611731576040517f1557070c00000000000000000000000000000000000000000000000000000000815260040160405180910390fd5b5f825f0160026101000a81548160ff0219169083600481111561175757611756612924565b5b021790555080600481111561176f5761176e612924565b5b8373ffffffffffffffffffffffffffffffffffffffff167fad2939eb1a3c8434901565ea2f9156d16b3cfb97d15b819364d38620ba0b19a960405160405180910390a3505050565b6117bf61267e565b5f60035f8481526020019081526020015f20604051806101200160405290815f8201548152602001600182015f9054906101000a900460ff16600181111561180a57611809612924565b5b600181111561181c5761181b612924565b5b8152602001600282018054611830906131c1565b80601f016020809104026020016040519081016040528092919081815260200182805461185c906131c1565b80156118a75780601f1061187e576101008083540402835291602001916118a7565b820191905f5260205f20905b81548152906001019060200180831161188a57829003601f168201915b50505050508152602001600382015f9054906101000a900473ffffffffffffffffffffffffffffffffffffffff1673ffffffffffffffffffffffffffffffffffffffff1673ffffffffffffffffffffffffffffffffffffffff168152602001600482015f9054906101000a900473ffffffffffffffffffffffffffffffffffffffff1673ffffffffffffffffffffffffffffffffffffffff1673ffffffffffffffffffffffffffffffffffffffff1681526020016004820160149054906101000a900460ff16600481111561197f5761197e612924565b5b600481111561199157611990612924565b5b81526020016004820160159054906101000a900467ffffffffffffffff1667ffffffffffffffff1667ffffffffffffffff16815260200160058201805480602002602001604051908101604052809291908181526020018280548015611a1457602002820191905f5260205f20905b815481526020019060010190808311611a00575b50505050508152602001600682015f9054906101000a900460ff1615151515815250509050806101000151611a75576040517f67fa94e700000000000000000000000000000000000000000000000000000000815260040160405180910390fd5b80915050919050565b7f000000000000000000000000000000000000000000000000000000000000000081565b60605f60035f8481526020019081526020015f20604051806101200160405290815f8201548152602001600182015f9054906101000a900460ff166001811115611aef57611aee612924565b5b6001811115611b0157611b00612924565b5b8152602001600282018054611b15906131c1565b80601f0160208091040260200160405190810160405280929190818152602001828054611b41906131c1565b8015611b8c5780601f10611b6357610100808354040283529160200191611b8c565b820191905f5260205f20905b815481529060010190602001808311611b6f57829003601f168201915b50505050508152602001600382015f9054906101000a900473ffffffffffffffffffffffffffffffffffffffff1673ffffffffffffffffffffffffffffffffffffffff1673ffffffffffffffffffffffffffffffffffffffff168152602001600482015f9054906101000a900473ffffffffffffffffffffffffffffffffffffffff1673ffffffffffffffffffffffffffffffffffffffff1673ffffffffffffffffffffffffffffffffffffffff1681526020016004820160149054906101000a900460ff166004811115611c6457611c63612924565b5b6004811115611c7657611c75612924565b5b81526020016004820160159054906101000a900467ffffffffffffffff1667ffffffffffffffff1667ffffffffffffffff16815260200160058201805480602002602001604051908101604052809291908181526020018280548015611cf957602002820191905f5260205f20905b815481526020019060010190808311611ce5575b50505050508152602001600682015f9054906101000a900460ff1615151515815250509050806101000151611d5a576040517f67fa94e700000000000000000000000000000000000000000000000000000000815260040160405180910390fd5b5f60055f8581526020019081526020015f2090505f818054905090508067ffffffffffffffff811115611d9057611d8f613167565b5b604051908082528060200260200182016040528015611dc957816020015b611db66125c5565b815260200190600190039081611dae5790505b5093505f5b818110156120085760045f848381548110611dec57611deb6131f1565b5b905f5260205f20015481526020019081526020015f20604051806101200160405290815f820154815260200160018201548152602001600282015f9054906101000a900473ffffffffffffffffffffffffffffffffffffffff1673ffffffffffffffffffffffffffffffffffffffff1673ffffffffffffffffffffffffffffffffffffffff168152602001600382015f9054906101000a900473ffffffffffffffffffffffffffffffffffffffff1673ffffffffffffffffffffffffffffffffffffffff1673ffffffffffffffffffffffffffffffffffffffff1681526020016003820160149054906101000a900460ff166004811115611ef057611eef612924565b5b6004811115611f0257611f01612924565b5b81526020016003820160159054906101000a900460ff166004811115611f2b57611f2a612924565b5b6004811115611f3d57611f3c612924565b5b81526020016003820160169054906101000a900460ff166003811115611f6657611f65612924565b5b6003811115611f7857611f77612924565b5b81526020016003820160179054906101000a900467ffffffffffffffff1667ffffffffffffffff1667ffffffffffffffff168152602001600482015f9054906101000a900467ffffffffffffffff1667ffffffffffffffff1667ffffffffffffffff1681525050858281518110611ff257611ff16131f1565b5b6020026020010181905250806001019050611dce565b50505050919050565b5f60025f60025f3373ffffffffffffffffffffffffffffffffffffffff1673ffffffffffffffffffffffffffffffffffffffff1681526020019081526020015f206040518060600160405290815f82015f9054906101000a900460ff1660048111156120805761207f612924565b5b600481111561209257612091612924565b5b81526020015f820160019054906101000a900460ff161515151581526020015f820160029054906101000a900460ff1660048111156120d4576120d3612924565b5b60048111156120e6576120e5612924565b5b81525050905080602001511580612124575081600481111561210b5761210a612924565b5b815f0151600481111561212157612120612924565b5b14155b1561215b576040517fc19f17a900000000000000000000000000000000000000000000000000000000815260040160405180910390fd5b5f8585905003612197576040517f1dae9e7000000000000000000000000000000000000000000000000000000000815260040160405180910390fd5b5f8585905067ffffffffffffffff8111156121b5576121b4613167565b5b6040519080825280602002602001820160405280156121e35781602001602082028036833780820191505090505b5090505f5b86869050811015612334575f60035f89898581811061220a576122096131f1565b5b9050602002013581526020019081526020015f209050806006015f9054906101000a900460ff16612267576040517f67fa94e700000000000000000000000000000000000000000000000000000000815260040160405180910390fd5b3373ffffffffffffffffffffffffffffffffffffffff16816004015f9054906101000a900473ffffffffffffffffffffffffffffffffffffffff1673ffffffffffffffffffffffffffffffffffffffff16146122ef576040517f06708f9c00000000000000000000000000000000000000000000000000000000815260040160405180910390fd5b878783818110612302576123016131f1565b5b9050602002013583838151811061231c5761231b6131f1565b5b602002602001018181525050508060010190506121e8565b50612342888860018461234f565b9350505050949350505050565b5f5f5f815461235d90613120565b91905081905590505f60035f8381526020019081526020015f20905081815f018190555083816001015f6101000a81548160ff021916908360018111156123a7576123a6612924565b5b021790555085858260020191826123bf9291906133c8565b5033816003015f6101000a81548173ffffffffffffffffffffffffffffffffffffffff021916908373ffffffffffffffffffffffffffffffffffffffff16021790555033816004015f6101000a81548173ffffffffffffffffffffffffffffffffffffffff021916908373ffffffffffffffffffffffffffffffffffffffff16021790555060025f3373ffffffffffffffffffffffffffffffffffffffff1673ffffffffffffffffffffffffffffffffffffffff1681526020019081526020015f205f015f9054906101000a900460ff168160040160146101000a81548160ff021916908360048111156124b6576124b5612924565b5b0217905550428160040160156101000a81548167ffffffffffffffff021916908367ffffffffffffffff1602179055506001816006015f6101000a81548160ff0219169083151502179055505f83511115612525578281600501908051906020019061252392919061271f565b505b3373ffffffffffffffffffffffffffffffffffffffff16827f66c4c4a6675549b0f6a47a82a7b97ade75dc94a0f879f6c10b4eb5bcb7452196868989604051612570939291906134ee565b60405180910390a350949350505050565b60405180606001604052805f600481111561259f5761259e612924565b5b81526020015f151581526020015f60048111156125bf576125be612924565b5b81525090565b6040518061012001604052805f81526020015f81526020015f73ffffffffffffffffffffffffffffffffffffffff1681526020015f73ffffffffffffffffffffffffffffffffffffffff1681526020015f600481111561262857612627612924565b5b81526020015f60048111156126405761263f612924565b5b81526020015f600381111561265857612657612924565b5b81526020015f67ffffffffffffffff1681526020015f67ffffffffffffffff1681525090565b6040518061012001604052805f81526020015f60018111156126a3576126a2612924565b5b8152602001606081526020015f73ffffffffffffffffffffffffffffffffffffffff1681526020015f73ffffffffffffffffffffffffffffffffffffffff1681526020015f60048111156126fa576126f9612924565b5b81526020015f67ffffffffffffffff168152602001606081526020015f151581525090565b828054828255905f5260205f20908101928215612759579160200282015b8281111561275857825182559160200191906001019061273d565b5b509050612766919061276a565b5090565b5b80821115612781575f815f90555060010161276b565b5090565b5f5ffd5b5f5ffd5b5f819050919050565b61279f8161278d565b81146127a9575f5ffd5b50565b5f813590506127ba81612796565b92915050565b5f602082840312156127d5576127d4612785565b5b5f6127e2848285016127ac565b91505092915050565b600581106127f7575f5ffd5b50565b5f81359050612808816127eb565b92915050565b5f6020828403121561282357612822612785565b5b5f612830848285016127fa565b91505092915050565b5f73ffffffffffffffffffffffffffffffffffffffff82169050919050565b5f61286282612839565b9050919050565b61287281612858565b811461287c575f5ffd5b50565b5f8135905061288d81612869565b92915050565b5f5f604083850312156128a9576128a8612785565b5b5f6128b6858286016127ac565b92505060206128c78582860161287f565b9150509250929050565b6128da8161278d565b82525050565b5f6020820190506128f35f8301846128d1565b92915050565b5f6020828403121561290e5761290d612785565b5b5f61291b8482850161287f565b91505092915050565b7f4e487b71000000000000000000000000000000000000000000000000000000005f52602160045260245ffd5b6005811061296257612961612924565b5b50565b5f81905061297282612951565b919050565b5f61298182612965565b9050919050565b61299181612977565b82525050565b5f8115159050919050565b6129ab81612997565b82525050565b606082015f8201516129c55f850182612988565b5060208201516129d860208501826129a2565b5060408201516129eb6040850182612988565b50505050565b5f606082019050612a045f8301846129b1565b92915050565b5f5ffd5b5f5ffd5b5f5ffd5b5f5f83601f840112612a2b57612a2a612a0a565b5b8235905067ffffffffffffffff811115612a4857612a47612a0e565b5b602083019150836001820283011115612a6457612a63612a12565b5b9250929050565b5f5f60208385031215612a8157612a80612785565b5b5f83013567ffffffffffffffff811115612a9e57612a9d612789565b5b612aaa85828601612a16565b92509250509250929050565b612abf8161278d565b82525050565b612ace81612858565b82525050565b60048110612ae557612ae4612924565b5b50565b5f819050612af582612ad4565b919050565b5f612b0482612ae8565b9050919050565b612b1481612afa565b82525050565b5f67ffffffffffffffff82169050919050565b612b3681612b1a565b82525050565b61012082015f820151612b515f850182612ab6565b506020820151612b646020850182612ab6565b506040820151612b776040850182612ac5565b506060820151612b8a6060850182612ac5565b506080820151612b9d6080850182612988565b5060a0820151612bb060a0850182612988565b5060c0820151612bc360c0850182612b0b565b5060e0820151612bd660e0850182612b2d565b50610100820151612beb610100850182612b2d565b50505050565b5f61012082019050612c055f830184612b3c565b92915050565b60028110612c1c57612c1b612924565b5b50565b5f819050612c2c82612c0b565b919050565b5f612c3b82612c1f565b9050919050565b612c4b81612c31565b82525050565b5f81519050919050565b5f82825260208201905092915050565b8281835e5f83830152505050565b5f601f19601f8301169050919050565b5f612c9382612c51565b612c9d8185612c5b565b9350612cad818560208601612c6b565b612cb681612c79565b840191505092915050565b5f81519050919050565b5f82825260208201905092915050565b5f819050602082019050919050565b5f612cf58383612ab6565b60208301905092915050565b5f602082019050919050565b5f612d1782612cc1565b612d218185612ccb565b9350612d2c83612cdb565b805f5b83811015612d5c578151612d438882612cea565b9750612d4e83612d01565b925050600181019050612d2f565b5085935050505092915050565b5f61012083015f830151612d7f5f860182612ab6565b506020830151612d926020860182612c42565b5060408301518482036040860152612daa8282612c89565b9150506060830151612dbf6060860182612ac5565b506080830151612dd26080860182612ac5565b5060a0830151612de560a0860182612988565b5060c0830151612df860c0860182612b2d565b5060e083015184820360e0860152612e108282612d0d565b915050610100830151612e276101008601826129a2565b508091505092915050565b5f6020820190508181035f830152612e4a8184612d69565b905092915050565b612e5b81612858565b82525050565b5f602082019050612e745f830184612e52565b92915050565b5f81519050919050565b5f82825260208201905092915050565b5f819050602082019050919050565b61012082015f820151612eb85f850182612ab6565b506020820151612ecb6020850182612ab6565b506040820151612ede6040850182612ac5565b506060820151612ef16060850182612ac5565b506080820151612f046080850182612988565b5060a0820151612f1760a0850182612988565b5060c0820151612f2a60c0850182612b0b565b5060e0820151612f3d60e0850182612b2d565b50610100820151612f52610100850182612b2d565b50505050565b5f612f638383612ea3565b6101208301905092915050565b5f602082019050919050565b5f612f8682612e7a565b612f908185612e84565b9350612f9b83612e94565b805f5b83811015612fcb578151612fb28882612f58565b9750612fbd83612f70565b925050600181019050612f9e565b5085935050505092915050565b5f6020820190508181035f830152612ff08184612f7c565b905092915050565b5f5f83601f84011261300d5761300c612a0a565b5b8235905067ffffffffffffffff81111561302a57613029612a0e565b5b60208301915083602082028301111561304657613045612a12565b5b9250929050565b5f5f5f5f6040858703121561306557613064612785565b5b5f85013567ffffffffffffffff81111561308257613081612789565b5b61308e87828801612a16565b9450945050602085013567ffffffffffffffff8111156130b1576130b0612789565b5b6130bd87828801612ff8565b925092505092959194509250565b6130d481612afa565b82525050565b5f6020820190506130ed5f8301846130cb565b92915050565b7f4e487b71000000000000000000000000000000000000000000000000000000005f52601160045260245ffd5b5f61312a8261278d565b91507fffffffffffffffffffffffffffffffffffffffffffffffffffffffffffffffff820361315c5761315b6130f3565b5b600182019050919050565b7f4e487b71000000000000000000000000000000000000000000000000000000005f52604160045260245ffd5b7f4e487b71000000000000000000000000000000000000000000000000000000005f52602260045260245ffd5b5f60028204905060018216806131d857607f821691505b6020821081036131eb576131ea613194565b5b50919050565b7f4e487b71000000000000000000000000000000000000000000000000000000005f52603260045260245ffd5b5f82905092915050565b5f819050815f5260205f209050919050565b5f6020601f8301049050919050565b5f82821b905092915050565b5f600883026132847fffffffffffffffffffffffffffffffffffffffffffffffffffffffffffffffff82613249565b61328e8683613249565b95508019841693508086168417925050509392505050565b5f819050919050565b5f6132c96132c46132bf8461278d565b6132a6565b61278d565b9050919050565b5f819050919050565b6132e2836132af565b6132f66132ee826132d0565b848454613255565b825550505050565b5f5f905090565b61330d6132fe565b6133188184846132d9565b505050565b5b8181101561333b576133305f82613305565b60018101905061331e565b5050565b601f8211156133805761335181613228565b61335a8461323a565b81016020851015613369578190505b61337d6133758561323a565b83018261331d565b50505b505050565b5f82821c905092915050565b5f6133a05f1984600802613385565b1980831691505092915050565b5f6133b88383613391565b9150826002028217905092915050565b6133d2838361321e565b67ffffffffffffffff8111156133eb576133ea613167565b5b6133f582546131c1565b61340082828561333f565b5f601f83116001811461342d575f841561341b578287013590505b61342585826133ad565b86555061348c565b601f19841661343b86613228565b5f5b828110156134625784890135825560018201915060208501945060208101905061343d565b8683101561347f578489013561347b601f891682613391565b8355505b6001600288020188555050505b50505050505050565b61349e81612c31565b82525050565b5f82825260208201905092915050565b828183375f83830152505050565b5f6134cd83856134a4565b93506134da8385846134b4565b6134e383612c79565b840190509392505050565b5f6040820190506135015f830186613495565b81810360208301526135148184866134c2565b905094935050505056fea264697066735822122027564248f64eedbc9704539efe0eb21fa45fa0b5bea6793dff674c4e0892067d64736f6c634300081e0033","linkReferences":{}},"methodIdentifiers":{"admin()":"f851a440","approveRole(address)":"ddb3ac26","approveTransfer(uint256)":"cacca4a0","createProcessedAsset(string,uint256[])":"fe7d7ef2","createRawAsset(string)":"88d9fc7a","getAsset(uint256)":"eac8f5b8","getAssetTransfers(uint256)":"f9f9bf8c","getTransfer(uint256)":"c16fe907","getUser(address)":"6f77926b","rejectRole(address)":"e1023b88","rejectTransfer(uint256)":"12effc32","requestRole(uint8)":"1896d298","requestTransfer(uint256,address)":"40344232"},"id":16}