{"abi":[{"type":"constructor","inputs":[{"name":"_roleManager","type":"address","internalType":"address"}],"stateMutability":"nonpayable"},{"type":"function","name":"balanceOf","inputs":[{"name":"tokenId","type":"uint256","internalType":"uint256"},{"name":"account","type":"address","internalType":"address"}],"outputs":[{"name":"","type":"uint256","internalType":"uint256"}],"stateMutability":"view"},{"type":"function","name":"createProcessedToken","inputs":[{"name":"productName","type":"string","internalType":"string"},{"name":"metadataURI","type":"string","internalType":"string"},{"name":"totalSupply","type":"uint256","internalType":"uint256"},{"name":"parentIds","type":"uint256[]","internalType":"uint256[]"}],"outputs":[{"name":"tokenId","type":"uint256","internalType":"uint256"}],"stateMutability":"nonpayable"},{"type":"function","name":"createRawToken","inputs":[{"name":"productName","type":"string","internalType":"string"},{"name":"metadataURI","type":"string","internalType":"string"},{"name":"totalSupply","type":"uint256","internalType":"uint256"}],"outputs":[{"name":"tokenId","type":"uint256","internalType":"uint256"}],"stateMutability":"nonpayable"},{"type":"function","name":"getToken","inputs":[{"name":"tokenId","type":"uint256","internalType":"uint256"}],"outputs":[{"name":"","type":"tuple","internalType":"struct TokenFactory.Token","components":[{"name":"id","type":"uint256","internalType":"uint256"},{"name":"productName","type":"string","internalType":"string"},{"name":"assetType","type":"uint8","internalType":"enum TokenFactory.AssetType"},{"name":"metadataURI","type":"string","internalType":"string"},{"name":"totalSupply","type":"uint256","internalType":"uint256"},{"name":"creator","type":"address","internalType":"address"},{"name":"currentHolder","type":"address","internalType":"address"},{"name":"currentRole","type":"uint8","internalType":"enum RoleManager.Role"},{"name":"createdAt","type":"uint64","internalType":"uint64"},{"name":"parentIds","type":"uint256[]","internalType":"uint256[]"},{"name":"exists","type":"bool","internalType":"bool"}]}],"stateMutability":"view"},{"type":"function","name":"getTokenHolder","inputs":[{"name":"tokenId","type":"uint256","internalType":"uint256"}],"outputs":[{"name":"","type":"address","internalType":"address"}],"stateMutability":"view"},{"type":"function","name":"getUserTokens","inputs":[{"name":"account","type":"address","internalType":"address"}],"outputs":[{"name":"","type":"uint256[]","internalType":"uint256[]"}],"stateMutability":"view"},{"type":"function","name":"roleManager","inputs":[],"outputs":[{"name":"","type":"address","internalType":"contract RoleManager"}],"stateMutability":"view"},{"type":"function","name":"transferToken","inputs":[{"name":"tokenId","type":"uint256","internalType":"uint256"},{"name":"from","type":"address","internalType":"address"},{"name":"to","type":"address","internalType":"address"},{"name":"amount","type":"uint256","internalType":"uint256"}],"outputs":[],"stateMutability":"nonpayable"},{"type":"event","name":"TokenCreated","inputs":[{"name":"tokenId","type":"uint256","indexed":true,"internalType":"uint256"},{"name":"productName","type":"string","indexed":false,"internalType":"string"},{"name":"assetType","type":"uint8","indexed":false,"internalType":"enum TokenFactory.AssetType"},{"name":"creator","type":"address","indexed":true,"internalType":"address"},{"name":"metadataURI","type":"string","indexed":false,"internalType":"string"}],"anonymous":false},{"type":"event","name":"TokenTransferred","inputs":[{"name":"tokenId","type":"uint256","indexed":true,"internalType":"uint256"},{"name":"from","type":"address","indexed":true,"internalType":"address"},{"name":"to","type":"address","indexed":true,"internalType":"address"}],"anonymous":false},{"type":"error","name":"AssetDoesNotExist","inputs":[]},{"type":"error","name":"InvalidRoleTransition","inputs":[]},{"type":"error","name":"MissingParentAssets","inputs":[]},{"type":"error","name":"NotApproved","inputs":[]},{"type":"error","name":"Unauthorized","inputs":[]}],"bytecode":{"object":"0x60a060405234801561000f575f80fd5b5060405161164f38038061164f83398101604081905261002e9161003f565b6001600160a01b031660805261006c565b5f6020828403121561004f575f80fd5b81516001600160a01b0381168114610065575f80fd5b9392505050565b6080516115b061009f5f395f8181608d015281816102d3015281816104f5015281816108b70152610c7101526115b05ff3fe608060405234801561000f575f80fd5b5060043610610084575f3560e01c80638065a3a4116100585780638065a3a414610122578063ca55954c14610135578063e4b50cb814610148578063f9191eaf14610168575f80fd5b8062435da5146100885780633656eec2146100cc578063519dc8d2146100ed5780637e33bb201461010d575b5f80fd5b6100af7f000000000000000000000000000000000000000000000000000000000000000081565b6040516001600160a01b0390911681526020015b60405180910390f35b6100df6100da366004610ecd565b61017b565b6040519081526020016100c3565b6101006100fb366004610ef7565b6101d6565b6040516100c39190610f17565b61012061011b366004610f5a565b61023f565b005b6100df610130366004610fe0565b6104f0565b6100af61014336600461104e565b6105e1565b61015b61015636600461104e565b610630565b6040516100c39190611119565b6100df610176366004611221565b6108b2565b5f8281526001602052604081206008015460ff166101ac576040516367fa94e760e01b815260040160405180910390fd5b505f8281526003602090815260408083206001600160a01b03851684529091529020545b92915050565b6001600160a01b0381165f9081526002602090815260409182902080548351818402810184019094528084526060939283018282801561023357602002820191905f5260205f20905b81548152602001906001019080831161021f575b50505050509050919050565b5f848152600160205260409020600881015460ff16610271576040516367fa94e760e01b815260040160405180910390fd5b5f8581526003602090815260408083206001600160a01b03881684529091529020548211156102b2576040516282b42960e81b815260040160405180910390fd5b604051632782085160e01b81526001600160a01b0384811660048301525f917f000000000000000000000000000000000000000000000000000000000000000090911690632782085190602401602060405180830381865afa15801561031a573d5f803e3d5ffd5b505050506040513d601f19601f8201168201806040525081019061033e91906112ea565b5f8781526003602090815260408083206001600160a01b038a16845290915281208054929350859290919061037490849061131c565b90915550505f8681526003602090815260408083206001600160a01b0388168452909152812080548592906103aa90849061132f565b90915550505f8681526003602090815260408083206001600160a01b038916845290915281205490036103e1576103e18587610af6565b5f8681526003602090815260408083206001600160a01b0388168452909152902054839003610435576001600160a01b0384165f908152600260209081526040822080546001810182559083529120018690555b5f8681526003602090815260408083206001600160a01b038916845290915281205490036104a7576006820180546001600160a01b0386166001600160a01b03198216811783558392916001600160a81b03191617600160a01b8360048111156104a1576104a16110a8565b02179055505b836001600160a01b0316856001600160a01b0316877fa84f763be5bb36163517fb87c7af39f875a97866fdf7806eb1b3eac837ae35ea60405160405180910390a4505050505050565b5f60017f00000000000000000000000000000000000000000000000000000000000000006001600160a01b03166395a8c58d33836040518363ffffffff1660e01b8152600401610541929190611342565b602060405180830381865afa15801561055c573d5f803e3d5ffd5b505050506040513d601f19601f82011682018060405250810190610580919061135f565b61059d5760405163c19f17a960e01b815260040160405180910390fd5b6105d687878787875f806040519080825280602002602001820160405280156105d0578160200160208202803683370190505b50610bbd565b979650505050505050565b5f8181526001602052604081206008015460ff16610612576040516367fa94e760e01b815260040160405180910390fd5b505f908152600160205260409020600601546001600160a01b031690565b610638610dde565b5f8281526001602081815260408084208151610160810190925280548252928301805491939284019161066a90611392565b80601f016020809104026020016040519081016040528092919081815260200182805461069690611392565b80156106e15780601f106106b8576101008083540402835291602001916106e1565b820191905f5260205f20905b8154815290600101906020018083116106c457829003601f168201915b5050509183525050600282015460209091019060ff166001811115610708576107086110a8565b6001811115610719576107196110a8565b815260200160038201805461072d90611392565b80601f016020809104026020016040519081016040528092919081815260200182805461075990611392565b80156107a45780601f1061077b576101008083540402835291602001916107a4565b820191905f5260205f20905b81548152906001019060200180831161078757829003601f168201915b5050509183525050600482810154602083015260058301546001600160a01b03908116604084015260068401549081166060840152608090920191600160a01b900460ff16908111156107f9576107f96110a8565b600481111561080a5761080a6110a8565b81526006820154600160a81b900467ffffffffffffffff16602080830191909152600783018054604080518285028101850182528281529401939283018282801561087257602002820191905f5260205f20905b81548152602001906001019080831161085e575b50505091835250506008919091015460ff1615156020909101526101408101519091506101d0576040516367fa94e760e01b815260040160405180910390fd5b5f60027f00000000000000000000000000000000000000000000000000000000000000006001600160a01b03166395a8c58d33836040518363ffffffff1660e01b8152600401610903929190611342565b602060405180830381865afa15801561091e573d5f803e3d5ffd5b505050506040513d601f19601f82011682018060405250810190610942919061135f565b61095f5760405163c19f17a960e01b815260040160405180910390fd5b5f839003610980576040516301dae9e760e41b815260040160405180910390fd5b5f8367ffffffffffffffff81111561099a5761099a61137e565b6040519080825280602002602001820160405280156109c3578160200160208202803683370190505b5090505f5b84811015610ad7575f60015f8888858181106109e6576109e66113ca565b602090810292909201358352508101919091526040015f20600881015490915060ff16610a26576040516367fa94e760e01b815260040160405180910390fd5b60035f888885818110610a3b57610a3b6113ca565b9050602002013581526020019081526020015f205f336001600160a01b03166001600160a01b031681526020019081526020015f20545f03610a905760405163019c23e760e21b815260040160405180910390fd5b868683818110610aa257610aa26113ca565b90506020020135838381518110610abb57610abb6113ca565b602090810291909101015250610ad0816113de565b90506109c8565b50610ae88a8a8a8a8a600187610bbd565b9a9950505050505050505050565b6001600160a01b0382165f908152600260205260408120805490915b81811015610bb65783838281548110610b2d57610b2d6113ca565b905f5260205f20015403610ba65782610b4760018461131c565b81548110610b5757610b576113ca565b905f5260205f200154838281548110610b7257610b726113ca565b905f5260205f20018190555082805480610b8e57610b8e6113f6565b600190038181905f5260205f20015f90559055610bb6565b610baf816113de565b9050610b12565b5050505050565b5f805f8154610bcb906113de565b91829055505f8181526001602081905260409091208281559192508101610bf3898b83611458565b5060028101805485919060ff191660018381811115610c1457610c146110a8565b021790555060038101610c28878983611458565b506004818101869055600582018054336001600160a01b0319918216811790925560068401805490911682179055604051632782085160e01b8152918201526001600160a01b037f00000000000000000000000000000000000000000000000000000000000000001690632782085190602401602060405180830381865afa158015610cb6573d5f803e3d5ffd5b505050506040513d601f19601f82011682018060405250810190610cda91906112ea565b60068201805460ff60a01b1916600160a01b836004811115610cfe57610cfe6110a8565b021790555060068101805467ffffffffffffffff60a81b1916600160a81b4267ffffffffffffffff160217905560088101805460ff19166001179055825115610d58578251610d569060078301906020860190610e55565b505b335f81815260026020908152604080832080546001810182559084528284200186905585835260038252808320848452909152908190208790555183907f73532e6870cc665e353013e08cbe45f5d7bc575f5b233c41de9c5b7215db644190610dca908d908d908a908e908e9061153b565b60405180910390a350979650505050505050565b60408051610160810182525f8082526060602083015290918201908152602001606081526020015f81526020015f6001600160a01b031681526020015f6001600160a01b031681526020015f6004811115610e3b57610e3b6110a8565b81525f602082018190526060604083018190529091015290565b828054828255905f5260205f20908101928215610e8e579160200282015b82811115610e8e578251825591602001919060010190610e73565b50610e9a929150610e9e565b5090565b5b80821115610e9a575f8155600101610e9f565b80356001600160a01b0381168114610ec8575f80fd5b919050565b5f8060408385031215610ede575f80fd5b82359150610eee60208401610eb2565b90509250929050565b5f60208284031215610f07575f80fd5b610f1082610eb2565b9392505050565b602080825282518282018190525f9190848201906040850190845b81811015610f4e57835183529284019291840191600101610f32565b50909695505050505050565b5f805f8060808587031215610f6d575f80fd5b84359350610f7d60208601610eb2565b9250610f8b60408601610eb2565b9396929550929360600135925050565b5f8083601f840112610fab575f80fd5b50813567ffffffffffffffff811115610fc2575f80fd5b602083019150836020828501011115610fd9575f80fd5b9250929050565b5f805f805f60608688031215610ff4575f80fd5b853567ffffffffffffffff8082111561100b575f80fd5b61101789838a01610f9b565b9097509550602088013591508082111561102f575f80fd5b5061103c88828901610f9b565b96999598509660400135949350505050565b5f6020828403121561105e575f80fd5b5035919050565b5f81518084525f5b818110156110895760208185018101518683018201520161106d565b505f602082860101526020601f19601f83011685010191505092915050565b634e487b7160e01b5f52602160045260245ffd5b600281106110cc576110cc6110a8565b9052565b600581106110cc576110cc6110a8565b5f8151808452602080850194508084015f5b8381101561110e578151875295820195908201906001016110f2565b509495945050505050565b60208152815160208201525f6020830151610160806040850152611141610180850183611065565b9150604085015161115560608601826110bc565b506060850151601f19808685030160808701526111728483611065565b9350608087015160a087015260a0870151915061119a60c08701836001600160a01b03169052565b60c08701516001600160a01b03811660e0880152915060e087015191506101006111c6818801846110d0565b87015191506101206111e38782018467ffffffffffffffff169052565b8088015192505061014081878603018188015261120085846110e0565b945080880151925050506112178286018215159052565b5090949350505050565b5f805f805f805f6080888a031215611237575f80fd5b873567ffffffffffffffff8082111561124e575f80fd5b61125a8b838c01610f9b565b909950975060208a0135915080821115611272575f80fd5b61127e8b838c01610f9b565b909750955060408a0135945060608a013591508082111561129d575f80fd5b818a0191508a601f8301126112b0575f80fd5b8135818111156112be575f80fd5b8b60208260051b85010111156112d2575f80fd5b60208301945080935050505092959891949750929550565b5f602082840312156112fa575f80fd5b815160058110610f10575f80fd5b634e487b7160e01b5f52601160045260245ffd5b818103818111156101d0576101d0611308565b808201808211156101d0576101d0611308565b6001600160a01b038316815260408101610f1060208301846110d0565b5f6020828403121561136f575f80fd5b81518015158114610f10575f80fd5b634e487b7160e01b5f52604160045260245ffd5b600181811c908216806113a657607f821691505b6020821081036113c457634e487b7160e01b5f52602260045260245ffd5b50919050565b634e487b7160e01b5f52603260045260245ffd5b5f600182016113ef576113ef611308565b5060010190565b634e487b7160e01b5f52603160045260245ffd5b601f821115611453575f81815260208120601f850160051c810160208610156114305750805b601f850160051c820191505b8181101561144f5782815560010161143c565b5050505b505050565b67ffffffffffffffff8311156114705761147061137e565b6114848361147e8354611392565b8361140a565b5f601f8411600181146114b5575f851561149e5750838201355b5f19600387901b1c1916600186901b178355610bb6565b5f83815260209020601f19861690835b828110156114e557868501358255602094850194600190920191016114c5565b5086821015611501575f1960f88860031b161c19848701351681555b505060018560011b0183555050505050565b81835281816020850137505f828201602090810191909152601f909101601f19169091010190565b606081525f61154e606083018789611513565b61155b60208401876110bc565b828103604084015261156e818587611513565b9897505050505050505056fea2646970667358221220425a3cee7ac9435f33de2fe5709dac381f43ab5e16b558d19e6bacc31412e1a364736f6c63430008140033","linkReferences":{}},"methodIdentifiers":{"balanceOf(uint256,address)":"3656eec2","createProcessedToken(string,string,uint256,uint256[])":"f9191eaf","createRawToken(string,string,uint256)":"8065a3a4","getToken(uint256)":"e4b50cb8","getTokenHolder(uint256)":"ca55954c","getUserTokens(address)":"519dc8d2","roleManager()":"00435da5","transferToken(uint256,address,address,uint256)":"7e33bb20"},"id":20}