{"abi":[{"type":"constructor","inputs":[],"stateMutability":"nonpayable"},{"type":"function","name":"admin","inputs":[],"outputs":[{"name":"","type":"address","internalType":"address"}],"stateMutability":"view"},{"type":"function","name":"approveRole","inputs":[{"name":"account","type":"address","internalType":"address"}],"outputs":[],"stateMutability":"nonpayable"},{"type":"function","name":"getUser","inputs":[{"name":"account","type":"address","internalType":"address"}],"outputs":[{"name":"","type":"tuple","internalType":"struct RoleManager.User","components":[{"name":"role","type":"uint8","internalType":"enum RoleManager.Role"},{"name":"approved","type":"bool","internalType":"bool"},{"name":"requestedRole","type":"uint8","internalType":"enum RoleManager.Role"}]}],"stateMutability":"view"},{"type":"function","name":"getUserRole","inputs":[{"name":"account","type":"address","internalType":"address"}],"outputs":[{"name":"","type":"uint8","internalType":"enum RoleManager.Role"}],"stateMutability":"view"},{"type":"function","name":"hasRole","inputs":[{"name":"account","type":"address","internalType":"address"},{"name":"expectedRole","type":"uint8","internalType":"enum RoleManager.Role"}],"outputs":[{"name":"","type":"bool","internalType":"bool"}],"stateMutability":"view"},{"type":"function","name":"isApproved","inputs":[{"name":"account","type":"address","internalType":"address"}],"outputs":[{"name":"","type":"bool","internalType":"bool"}],"stateMutability":"view"},{"type":"function","name":"rejectRole","inputs":[{"name":"account","type":"address","internalType":"address"}],"outputs":[],"stateMutability":"nonpayable"},{"type":"function","name":"requestRole","inputs":[{"name":"desiredRole","type":"uint8","internalType":"enum RoleManager.Role"}],"outputs":[],"stateMutability":"nonpayable"},{"type":"function","name":"revokeRole","inputs":[{"name":"account","type":"address","internalType":"address"}],"outputs":[],"stateMutability":"nonpayable"},{"type":"event","name":"RoleApproved","inputs":[{"name":"account","type":"address","indexed":true,"internalType":"address"},{"name":"role","type":"uint8","indexed":true,"internalType":"enum RoleManager.Role"}],"anonymous":false},{"type":"event","name":"RoleRejected","inputs":[{"name":"account","type":"address","indexed":true,"internalType":"address"},{"name":"requestedRole","type":"uint8","indexed":true,"internalType":"enum RoleManager.Role"}],"anonymous":false},{"type":"event","name":"RoleRequested","inputs":[{"name":"account","type":"address","indexed":true,"internalType":"address"},{"name":"requestedRole","type":"uint8","indexed":true,"internalType":"enum RoleManager.Role"}],"anonymous":false},{"type":"event","name":"RoleRevoked","inputs":[{"name":"account","type":"address","indexed":true,"internalType":"address"},{"name":"previousRole","type":"uint8","indexed":true,"internalType":"enum RoleManager.Role"}],"anonymous":false},{"type":"error","name":"InvalidRoleRequest","inputs":[]},{"type":"error","name":"NotAdmin","inputs":[]},{"type":"error","name":"NotApproved","inputs":[]},{"type":"error","name":"RoleNotRequested","inputs":[]}],"bytecode":{"object":"0x60a060405234801561000f575f80fd5b50336080526080516108536100415f395f818161019b0152818161033a0152818161050f015261062901526108535ff3fe608060405234801561000f575f80fd5b5060043610610090575f3560e01c806380e52e3f1161006357806380e52e3f1461014a57806395a8c58d1461015d578063ddb3ac2614610170578063e1023b8814610183578063f851a44014610196575f80fd5b80631896d2981461009457806327820851146100a9578063673448dd146100ea5780636f77926b1461012a575b5f80fd5b6100a76100a2366004610724565b6101d5565b005b6100d46100b736600461075a565b6001600160a01b03165f9081526020819052604090205460ff1690565b6040516100e191906107a7565b60405180910390f35b61011a6100f836600461075a565b6001600160a01b03165f90815260208190526040902054610100900460ff1690565b60405190151581526020016100e1565b61013d61013836600461075a565b61027b565b6040516100e191906107b5565b6100a761015836600461075a565b61032f565b61011a61016b3660046107ec565b61042f565b6100a761017e36600461075a565b610504565b6100a761019136600461075a565b61061e565b6101bd7f000000000000000000000000000000000000000000000000000000000000000081565b6040516001600160a01b0390911681526020016100e1565b5f8160048111156101e8576101e8610773565b03610206576040516305dc297f60e31b815260040160405180910390fd5b335f90815260208190526040902080548290829062ff000019166201000083600481111561023657610236610773565b021790555081600481111561024d5761024d610773565b60405133907ff895b94cb55ee9f608ecb65ff13cf68962fd45bdfcfb5a3eaafcaa1571571e02905f90a35050565b604080516060810182525f80825260208201819052918101919091526001600160a01b0382165f90815260208190526040908190208151606081019092528054829060ff1660048111156102d1576102d1610773565b60048111156102e2576102e2610773565b8152815460ff61010082048116151560208401526040909201916201000090910416600481111561031557610315610773565b600481111561032657610326610773565b90525092915050565b336001600160a01b037f0000000000000000000000000000000000000000000000000000000000000000161461037857604051637bfa4b9f60e01b815260040160405180910390fd5b6001600160a01b0381165f9081526020819052604090208054610100900460ff1615806103b957505f815460ff1660048111156103b7576103b7610773565b145b156103d75760405163c19f17a960e01b815260040160405180910390fd5b805462ffffff198116825560ff168060048111156103f7576103f7610773565b6040516001600160a01b038516907f34a1009b84e077aee5bc8197faf7105e54f9ba6879e2a51a716e4156ea9ad769905f90a3505050565b6001600160a01b0382165f90815260208190526040808220815160608101909252805483929190829060ff16600481111561046c5761046c610773565b600481111561047d5761047d610773565b8152815460ff6101008204811615156020840152604090920191620100009091041660048111156104b0576104b0610773565b60048111156104c1576104c1610773565b815250509050806020015180156104fa57508260048111156104e5576104e5610773565b815160048111156104f8576104f8610773565b145b9150505b92915050565b336001600160a01b037f0000000000000000000000000000000000000000000000000000000000000000161461054d57604051637bfa4b9f60e01b815260040160405180910390fd5b6001600160a01b0381165f908152602081905260408120805490916201000090910460ff169081600481111561058557610585610773565b036105a357604051630555c1c360e21b815260040160405180910390fd5b81548190839060ff191660018360048111156105c1576105c1610773565b0217905550815462ffff0019166101001782558060048111156105e6576105e6610773565b6040516001600160a01b038516907f042f52f18ca9258767cef802b6283a39f6c1053fbd02bee367edc363da679f86905f90a3505050565b336001600160a01b037f0000000000000000000000000000000000000000000000000000000000000000161461066757604051637bfa4b9f60e01b815260040160405180910390fd5b6001600160a01b0381165f908152602081905260408120805490916201000090910460ff169081600481111561069f5761069f610773565b036106bd57604051630555c1c360e21b815260040160405180910390fd5b815462ff0000191682558060048111156106d9576106d9610773565b6040516001600160a01b038516907fad2939eb1a3c8434901565ea2f9156d16b3cfb97d15b819364d38620ba0b19a9905f90a3505050565b80356005811061071f575f80fd5b919050565b5f60208284031215610734575f80fd5b61073d82610711565b9392505050565b80356001600160a01b038116811461071f575f80fd5b5f6020828403121561076a575f80fd5b61073d82610744565b634e487b7160e01b5f52602160045260245ffd5b600581106107a357634e487b7160e01b5f52602160045260245ffd5b9052565b602081016104fe8284610787565b5f6060820190506107c7828451610787565b60208301511515602083015260408301516107e56040840182610787565b5092915050565b5f80604083850312156107fd575f80fd5b61080683610744565b915061081460208401610711565b9050925092905056fea2646970667358221220f1fff3362a19136dbb9a3b4f6f6e29b4e5e742a89f833d860c16648c0a23a52964736f6c63430008140033","linkReferences":{}},"methodIdentifiers":{"admin()":"f851a440","approveRole(address)":"ddb3ac26","getUser(address)":"6f77926b","getUserRole(address)":"27820851","hasRole(address,uint8)":"95a8c58d","isApproved(address)":"673448dd","rejectRole(address)":"e1023b88","requestRole(uint8)":"1896d298","revokeRole(address)":"80e52e3f"},"id":19}