{"abi":[{"type":"constructor","inputs":[{"name":"_roleManager","type":"address","internalType":"address"}],"stateMutability":"nonpayable"},{"type":"function","name":"balanceOf","inputs":[{"name":"tokenId","type":"uint256","internalType":"uint256"},{"name":"account","type":"address","internalType":"address"}],"outputs":[{"name":"","type":"uint256","internalType":"uint256"}],"stateMutability":"view"},{"type":"function","name":"createProcessedToken","inputs":[{"name":"productName","type":"string","internalType":"string"},{"name":"metadataURI","type":"string","internalType":"string"},{"name":"totalSupply","type":"uint256","internalType":"uint256"},{"name":"parentIds","type":"uint256[]","internalType":"uint256[]"}],"outputs":[{"name":"tokenId","type":"uint256","internalType":"uint256"}],"stateMutability":"nonpayable"},{"type":"function","name":"createRawToken","inputs":[{"name":"productName","type":"string","internalType":"string"},{"name":"metadataURI","type":"string","internalType":"string"},{"name":"totalSupply","type":"uint256","internalType":"uint256"}],"outputs":[{"name":"tokenId","type":"uint256","internalType":"uint256"}],"stateMutability":"nonpayable"},{"type":"function","name":"getToken","inputs":[{"name":"tokenId","type":"uint256","internalType":"uint256"}],"outputs":[{"name":"","type":"tuple","internalType":"struct TokenFactory.Token","components":[{"name":"id","type":"uint256","internalType":"uint256"},{"name":"productName","type":"string","internalType":"string"},{"name":"assetType","type":"uint8","internalType":"enum TokenFactory.AssetType"},{"name":"metadataURI","type":"string","internalType":"string"},{"name":"totalSupply","type":"uint256","internalType":"uint256"},{"name":"creator","type":"address","internalType":"address"},{"name":"currentHolder","type":"address","internalType":"address"},{"name":"currentRole","type":"uint8","internalType":"enum RoleManager.Role"},{"name":"createdAt","type":"uint64","internalType":"uint64"},{"name":"parentIds","type":"uint256[]","internalType":"uint256[]"},{"name":"exists","type":"bool","internalType":"bool"}]}],"stateMutability":"view"},{"type":"function","name":"getTokenHolder","inputs":[{"name":"tokenId","type":"uint256","internalType":"uint256"}],"outputs":[{"name":"","type":"address","internalType":"address"}],"stateMutability":"view"},{"type":"function","name":"getUserTokens","inputs":[{"name":"account","type":"address","internalType":"address"}],"outputs":[{"name":"","type":"uint256[]","internalType":"uint256[]"}],"stateMutability":"view"},{"type":"function","name":"roleManager","inputs":[],"outputs":[{"name":"","type":"address","internalType":"contract RoleManager"}],"stateMutability":"view"},{"type":"function","name":"transferToken","inputs":[{"name":"tokenId","type":"uint256","internalType":"uint256"},{"name":"from","type":"address","internalType":"address"},{"name":"to","type":"address","internalType":"address"},{"name":"amount","type":"uint256","internalType":"uint256"}],"outputs":[],"stateMutability":"nonpayable"},{"type":"event","name":"TokenCreated","inputs":[{"name":"tokenId","type":"uint256","indexed":true,"internalType":"uint256"},{"name":"productName","type":"string","indexed":false,"internalType":"string"},{"name":"assetType","type":"uint8","indexed":false,"internalType":"enum TokenFactory.AssetType"},{"name":"creator","type":"address","indexed":true,"internalType":"address"},{"name":"metadataURI","type":"string","indexed":false,"internalType":"string"}],"anonymous":false},{"type":"event","name":"TokenTransferred","inputs":[{"name":"tokenId","type":"uint256","indexed":true,"internalType":"uint256"},{"name":"from","type":"address","indexed":true,"internalType":"address"},{"name":"to","type":"address","indexed":true,"internalType":"address"}],"anonymous":false},{"type":"error","name":"AssetDoesNotExist","inputs":[]},{"type":"error","name":"InvalidRoleTransition","inputs":[]},{"type":"error","name":"MissingParentAssets","inputs":[]},{"type":"error","name":"NotApproved","inputs":[]},{"type":"error","name":"Unauthorized","inputs":[]}],"bytecode":{"object":"0x60a060405234801561000f575f5ffd5b50604051612459380380612459833981810160405281019061003191906100c9565b8073ffffffffffffffffffffffffffffffffffffffff1660808173ffffffffffffffffffffffffffffffffffffffff1681525050506100f4565b5f5ffd5b5f73ffffffffffffffffffffffffffffffffffffffff82169050919050565b5f6100988261006f565b9050919050565b6100a88161008e565b81146100b2575f5ffd5b50565b5f815190506100c38161009f565b92915050565b5f602082840312156100de576100dd61006b565b5b5f6100eb848285016100b5565b91505092915050565b6080516123316101285f395f81816101e50152818161042b015281816107c401528181610cee01526111d501526123315ff3fe608060405234801561000f575f5ffd5b5060043610610085575f3560e01c80638065a3a4116100595780638065a3a414610123578063ca55954c14610153578063e4b50cb814610183578063f9191eaf146101b357610085565b8062435da5146100895780633656eec2146100a7578063519dc8d2146100d75780637e33bb2014610107575b5f5ffd5b6100916101e3565b60405161009e91906115a3565b60405180910390f35b6100c160048036038101906100bc9190611632565b610207565b6040516100ce919061167f565b60405180910390f35b6100f160048036038101906100ec9190611698565b6102b4565b6040516100fe919061177a565b60405180910390f35b610121600480360381019061011c919061179a565b610347565b005b61013d6004803603810190610138919061185f565b6107bf565b60405161014a919061167f565b60405180910390f35b61016d600480360381019061016891906118f0565b6108f5565b60405161017a919061192a565b60405180910390f35b61019d600480360381019061019891906118f0565b610988565b6040516101aa9190611c1d565b60405180910390f35b6101cd60048036038101906101c89190611c92565b610ce9565b6040516101da919061167f565b60405180910390f35b7f000000000000000000000000000000000000000000000000000000000000000081565b5f60015f8481526020019081526020015f206008015f9054906101000a900460ff1661025f576040517f67fa94e700000000000000000000000000000000000000000000000000000000815260040160405180910390fd5b60035f8481526020019081526020015f205f8373ffffffffffffffffffffffffffffffffffffffff1673ffffffffffffffffffffffffffffffffffffffff1681526020019081526020015f2054905092915050565b606060025f8373ffffffffffffffffffffffffffffffffffffffff1673ffffffffffffffffffffffffffffffffffffffff1681526020019081526020015f2080548060200260200160405190810160405280929190818152602001828054801561033b57602002820191905f5260205f20905b815481526020019060010190808311610327575b50505050509050919050565b5f60015f8681526020019081526020015f209050806008015f9054906101000a900460ff166103a2576040517f67fa94e700000000000000000000000000000000000000000000000000000000815260040160405180910390fd5b8160035f8781526020019081526020015f205f8673ffffffffffffffffffffffffffffffffffffffff1673ffffffffffffffffffffffffffffffffffffffff1681526020019081526020015f20541015610428576040517f82b4290000000000000000000000000000000000000000000000000000000000815260040160405180910390fd5b5f7f000000000000000000000000000000000000000000000000000000000000000073ffffffffffffffffffffffffffffffffffffffff166327820851856040518263ffffffff1660e01b8152600401610482919061192a565b602060405180830381865afa15801561049d573d5f5f3e3d5ffd5b505050506040513d601f19601f820116820180604052508101906104c19190611d79565b90508260035f8881526020019081526020015f205f8773ffffffffffffffffffffffffffffffffffffffff1673ffffffffffffffffffffffffffffffffffffffff1681526020019081526020015f205f82825461051e9190611dd1565b925050819055508260035f8881526020019081526020015f205f8673ffffffffffffffffffffffffffffffffffffffff1673ffffffffffffffffffffffffffffffffffffffff1681526020019081526020015f205f8282546105809190611e04565b925050819055505f60035f8881526020019081526020015f205f8773ffffffffffffffffffffffffffffffffffffffff1673ffffffffffffffffffffffffffffffffffffffff1681526020019081526020015f2054036105e5576105e48587610fcb565b5b8260035f8881526020019081526020015f205f8673ffffffffffffffffffffffffffffffffffffffff1673ffffffffffffffffffffffffffffffffffffffff1681526020019081526020015f20540361069a5760025f8573ffffffffffffffffffffffffffffffffffffffff1673ffffffffffffffffffffffffffffffffffffffff1681526020019081526020015f2086908060018154018082558091505060019003905f5260205f20015f90919091909150555b5f60035f8881526020019081526020015f205f8773ffffffffffffffffffffffffffffffffffffffff1673ffffffffffffffffffffffffffffffffffffffff1681526020019081526020015f20540361075c5783826006015f6101000a81548173ffffffffffffffffffffffffffffffffffffffff021916908373ffffffffffffffffffffffffffffffffffffffff160217905550808260060160146101000a81548160ff02191690836004811115610756576107556119b3565b5b02179055505b8373ffffffffffffffffffffffffffffffffffffffff168573ffffffffffffffffffffffffffffffffffffffff16877fa84f763be5bb36163517fb87c7af39f875a97866fdf7806eb1b3eac837ae35ea60405160405180910390a4505050505050565b5f60017f000000000000000000000000000000000000000000000000000000000000000073ffffffffffffffffffffffffffffffffffffffff166395a8c58d33836040518363ffffffff1660e01b815260040161081d929190611e46565b602060405180830381865afa158015610838573d5f5f3e3d5ffd5b505050506040513d601f19601f8201168201806040525081019061085c9190611e97565b610892576040517fc19f17a900000000000000000000000000000000000000000000000000000000815260040160405180910390fd5b6108e987878787875f5f67ffffffffffffffff8111156108b5576108b4611ec2565b5b6040519080825280602002602001820160405280156108e35781602001602082028036833780820191505090505b506110c1565b91505095945050505050565b5f60015f8381526020019081526020015f206008015f9054906101000a900460ff1661094d576040517f67fa94e700000000000000000000000000000000000000000000000000000000815260040160405180910390fd5b60015f8381526020019081526020015f206006015f9054906101000a900473ffffffffffffffffffffffffffffffffffffffff169050919050565b610990611415565b5f60015f8481526020019081526020015f20604051806101600160405290815f82015481526020016001820180546109c790611f1c565b80601f01602080910402602001604051908101604052809291908181526020018280546109f390611f1c565b8015610a3e5780601f10610a1557610100808354040283529160200191610a3e565b820191905f5260205f20905b815481529060010190602001808311610a2157829003601f168201915b50505050508152602001600282015f9054906101000a900460ff166001811115610a6b57610a6a6119b3565b5b6001811115610a7d57610a7c6119b3565b5b8152602001600382018054610a9190611f1c565b80601f0160208091040260200160405190810160405280929190818152602001828054610abd90611f1c565b8015610b085780601f10610adf57610100808354040283529160200191610b08565b820191905f5260205f20905b815481529060010190602001808311610aeb57829003601f168201915b5050505050815260200160048201548152602001600582015f9054906101000a900473ffffffffffffffffffffffffffffffffffffffff1673ffffffffffffffffffffffffffffffffffffffff1673ffffffffffffffffffffffffffffffffffffffff168152602001600682015f9054906101000a900473ffffffffffffffffffffffffffffffffffffffff1673ffffffffffffffffffffffffffffffffffffffff1673ffffffffffffffffffffffffffffffffffffffff1681526020016006820160149054906101000a900460ff166004811115610bea57610be96119b3565b5b6004811115610bfc57610bfb6119b3565b5b81526020016006820160159054906101000a900467ffffffffffffffff1667ffffffffffffffff1667ffffffffffffffff16815260200160078201805480602002602001604051908101604052809291908181526020018280548015610c7f57602002820191905f5260205f20905b815481526020019060010190808311610c6b575b50505050508152602001600882015f9054906101000a900460ff1615151515815250509050806101400151610ce0576040517f67fa94e700000000000000000000000000000000000000000000000000000000815260040160405180910390fd5b80915050919050565b5f60027f000000000000000000000000000000000000000000000000000000000000000073ffffffffffffffffffffffffffffffffffffffff166395a8c58d33836040518363ffffffff1660e01b8152600401610d47929190611e46565b602060405180830381865afa158015610d62573d5f5f3e3d5ffd5b505050506040513d601f19601f82011682018060405250810190610d869190611e97565b610dbc576040517fc19f17a900000000000000000000000000000000000000000000000000000000815260040160405180910390fd5b5f8484905003610df8576040517f1dae9e7000000000000000000000000000000000000000000000000000000000815260040160405180910390fd5b5f8484905067ffffffffffffffff811115610e1657610e15611ec2565b5b604051908082528060200260200182016040528015610e445781602001602082028036833780820191505090505b5090505f5b85859050811015610fab575f60015f888885818110610e6b57610e6a611f4c565b5b9050602002013581526020019081526020015f209050806008015f9054906101000a900460ff16610ec8576040517f67fa94e700000000000000000000000000000000000000000000000000000000815260040160405180910390fd5b5f60035f898986818110610edf57610ede611f4c565b5b9050602002013581526020019081526020015f205f3373ffffffffffffffffffffffffffffffffffffffff1673ffffffffffffffffffffffffffffffffffffffff1681526020019081526020015f205403610f66576040517f06708f9c00000000000000000000000000000000000000000000000000000000815260040160405180910390fd5b868683818110610f7957610f78611f4c565b5b90506020020135838381518110610f9357610f92611f4c565b5b60200260200101818152505050806001019050610e49565b50610fbc8a8a8a8a8a6001876110c1565b92505050979650505050505050565b5f60025f8473ffffffffffffffffffffffffffffffffffffffff1673ffffffffffffffffffffffffffffffffffffffff1681526020019081526020015f2090505f818054905090505f5b818110156110ba578383828154811061103157611030611f4c565b5b905f5260205f200154036110af578260018361104d9190611dd1565b8154811061105e5761105d611f4c565b5b905f5260205f20015483828154811061107a57611079611f4c565b5b905f5260205f2001819055508280548061109757611096611f79565b5b600190038181905f5260205f20015f905590556110ba565b806001019050611015565b5050505050565b5f5f5f81546110cf90611fa6565b91905081905590505f60015f8381526020019081526020015f20905081815f0181905550888882600101918261110692919061218e565b5083816002015f6101000a81548160ff0219169083600181111561112d5761112c6119b3565b5b0217905550868682600301918261114592919061218e565b5084816004018190555033816005015f6101000a81548173ffffffffffffffffffffffffffffffffffffffff021916908373ffffffffffffffffffffffffffffffffffffffff16021790555033816006015f6101000a81548173ffffffffffffffffffffffffffffffffffffffff021916908373ffffffffffffffffffffffffffffffffffffffff1602179055507f000000000000000000000000000000000000000000000000000000000000000073ffffffffffffffffffffffffffffffffffffffff166327820851336040518263ffffffff1660e01b815260040161122c919061192a565b602060405180830381865afa158015611247573d5f5f3e3d5ffd5b505050506040513d601f19601f8201168201806040525081019061126b9190611d79565b8160060160146101000a81548160ff02191690836004811115611291576112906119b3565b5b0217905550428160060160156101000a81548167ffffffffffffffff021916908367ffffffffffffffff1602179055506001816008015f6101000a81548160ff0219169083151502179055505f8351111561130057828160070190805190602001906112fe9291906114c3565b505b60025f3373ffffffffffffffffffffffffffffffffffffffff1673ffffffffffffffffffffffffffffffffffffffff1681526020019081526020015f2082908060018154018082558091505060019003905f5260205f20015f90919091909150558460035f8481526020019081526020015f205f3373ffffffffffffffffffffffffffffffffffffffff1673ffffffffffffffffffffffffffffffffffffffff1681526020019081526020015f20819055503373ffffffffffffffffffffffffffffffffffffffff16827f73532e6870cc665e353013e08cbe45f5d7bc575f5b233c41de9c5b7215db64418b8b888c8c6040516114019594939291906122b4565b60405180910390a350979650505050505050565b6040518061016001604052805f8152602001606081526020015f6001811115611441576114406119b3565b5b8152602001606081526020015f81526020015f73ffffffffffffffffffffffffffffffffffffffff1681526020015f73ffffffffffffffffffffffffffffffffffffffff1681526020015f600481111561149e5761149d6119b3565b5b81526020015f67ffffffffffffffff168152602001606081526020015f151581525090565b828054828255905f5260205f209081019282156114fd579160200282015b828111156114fc5782518255916020019190600101906114e1565b5b50905061150a919061150e565b5090565b5b80821115611525575f815f90555060010161150f565b5090565b5f73ffffffffffffffffffffffffffffffffffffffff82169050919050565b5f819050919050565b5f61156b61156661156184611529565b611548565b611529565b9050919050565b5f61157c82611551565b9050919050565b5f61158d82611572565b9050919050565b61159d81611583565b82525050565b5f6020820190506115b65f830184611594565b92915050565b5f5ffd5b5f5ffd5b5f819050919050565b6115d6816115c4565b81146115e0575f5ffd5b50565b5f813590506115f1816115cd565b92915050565b5f61160182611529565b9050919050565b611611816115f7565b811461161b575f5ffd5b50565b5f8135905061162c81611608565b92915050565b5f5f60408385031215611648576116476115bc565b5b5f611655858286016115e3565b92505060206116668582860161161e565b9150509250929050565b611679816115c4565b82525050565b5f6020820190506116925f830184611670565b92915050565b5f602082840312156116ad576116ac6115bc565b5b5f6116ba8482850161161e565b91505092915050565b5f81519050919050565b5f82825260208201905092915050565b5f819050602082019050919050565b6116f5816115c4565b82525050565b5f61170683836116ec565b60208301905092915050565b5f602082019050919050565b5f611728826116c3565b61173281856116cd565b935061173d836116dd565b805f5b8381101561176d57815161175488826116fb565b975061175f83611712565b925050600181019050611740565b5085935050505092915050565b5f6020820190508181035f830152611792818461171e565b905092915050565b5f5f5f5f608085870312156117b2576117b16115bc565b5b5f6117bf878288016115e3565b94505060206117d08782880161161e565b93505060406117e18782880161161e565b92505060606117f2878288016115e3565b91505092959194509250565b5f5ffd5b5f5ffd5b5f5ffd5b5f5f83601f84011261181f5761181e6117fe565b5b8235905067ffffffffffffffff81111561183c5761183b611802565b5b60208301915083600182028301111561185857611857611806565b5b9250929050565b5f5f5f5f5f60608688031215611878576118776115bc565b5b5f86013567ffffffffffffffff811115611895576118946115c0565b5b6118a18882890161180a565b9550955050602086013567ffffffffffffffff8111156118c4576118c36115c0565b5b6118d08882890161180a565b935093505060406118e3888289016115e3565b9150509295509295909350565b5f60208284031215611905576119046115bc565b5b5f611912848285016115e3565b91505092915050565b611924816115f7565b82525050565b5f60208201905061193d5f83018461191b565b92915050565b5f81519050919050565b5f82825260208201905092915050565b8281835e5f83830152505050565b5f601f19601f8301169050919050565b5f61198582611943565b61198f818561194d565b935061199f81856020860161195d565b6119a88161196b565b840191505092915050565b7f4e487b71000000000000000000000000000000000000000000000000000000005f52602160045260245ffd5b600281106119f1576119f06119b3565b5b50565b5f819050611a01826119e0565b919050565b5f611a10826119f4565b9050919050565b611a2081611a06565b82525050565b611a2f816115f7565b82525050565b60058110611a4657611a456119b3565b5b50565b5f819050611a5682611a35565b919050565b5f611a6582611a49565b9050919050565b611a7581611a5b565b82525050565b5f67ffffffffffffffff82169050919050565b611a9781611a7b565b82525050565b5f82825260208201905092915050565b5f611ab7826116c3565b611ac18185611a9d565b9350611acc836116dd565b805f5b83811015611afc578151611ae388826116fb565b9750611aee83611712565b925050600181019050611acf565b5085935050505092915050565b5f8115159050919050565b611b1d81611b09565b82525050565b5f61016083015f830151611b395f8601826116ec565b5060208301518482036020860152611b51828261197b565b9150506040830151611b666040860182611a17565b5060608301518482036060860152611b7e828261197b565b9150506080830151611b9360808601826116ec565b5060a0830151611ba660a0860182611a26565b5060c0830151611bb960c0860182611a26565b5060e0830151611bcc60e0860182611a6c565b50610100830151611be1610100860182611a8e565b50610120830151848203610120860152611bfb8282611aad565b915050610140830151611c12610140860182611b14565b508091505092915050565b5f6020820190508181035f830152611c358184611b23565b905092915050565b5f5f83601f840112611c5257611c516117fe565b5b8235905067ffffffffffffffff811115611c6f57611c6e611802565b5b602083019150836020820283011115611c8b57611c8a611806565b5b9250929050565b5f5f5f5f5f5f5f6080888a031215611cad57611cac6115bc565b5b5f88013567ffffffffffffffff811115611cca57611cc96115c0565b5b611cd68a828b0161180a565b9750975050602088013567ffffffffffffffff811115611cf957611cf86115c0565b5b611d058a828b0161180a565b95509550506040611d188a828b016115e3565b935050606088013567ffffffffffffffff811115611d3957611d386115c0565b5b611d458a828b01611c3d565b925092505092959891949750929550565b60058110611d62575f5ffd5b50565b5f81519050611d7381611d56565b92915050565b5f60208284031215611d8e57611d8d6115bc565b5b5f611d9b84828501611d65565b91505092915050565b7f4e487b71000000000000000000000000000000000000000000000000000000005f52601160045260245ffd5b5f611ddb826115c4565b9150611de6836115c4565b9250828203905081811115611dfe57611dfd611da4565b5b92915050565b5f611e0e826115c4565b9150611e19836115c4565b9250828201905080821115611e3157611e30611da4565b5b92915050565b611e4081611a5b565b82525050565b5f604082019050611e595f83018561191b565b611e666020830184611e37565b9392505050565b611e7681611b09565b8114611e80575f5ffd5b50565b5f81519050611e9181611e6d565b92915050565b5f60208284031215611eac57611eab6115bc565b5b5f611eb984828501611e83565b91505092915050565b7f4e487b71000000000000000000000000000000000000000000000000000000005f52604160045260245ffd5b7f4e487b71000000000000000000000000000000000000000000000000000000005f52602260045260245ffd5b5f6002820490506001821680611f3357607f821691505b602082108103611f4657611f45611eef565b5b50919050565b7f4e487b71000000000000000000000000000000000000000000000000000000005f52603260045260245ffd5b7f4e487b71000000000000000000000000000000000000000000000000000000005f52603160045260245ffd5b5f611fb0826115c4565b91507fffffffffffffffffffffffffffffffffffffffffffffffffffffffffffffffff8203611fe257611fe1611da4565b5b600182019050919050565b5f82905092915050565b5f819050815f5260205f209050919050565b5f6020601f8301049050919050565b5f82821b905092915050565b5f600883026120537fffffffffffffffffffffffffffffffffffffffffffffffffffffffffffffffff82612018565b61205d8683612018565b95508019841693508086168417925050509392505050565b5f61208f61208a612085846115c4565b611548565b6115c4565b9050919050565b5f819050919050565b6120a883612075565b6120bc6120b482612096565b848454612024565b825550505050565b5f5f905090565b6120d36120c4565b6120de81848461209f565b505050565b5b81811015612101576120f65f826120cb565b6001810190506120e4565b5050565b601f8211156121465761211781611ff7565b61212084612009565b8101602085101561212f578190505b61214361213b85612009565b8301826120e3565b50505b505050565b5f82821c905092915050565b5f6121665f198460080261214b565b1980831691505092915050565b5f61217e8383612157565b9150826002028217905092915050565b6121988383611fed565b67ffffffffffffffff8111156121b1576121b0611ec2565b5b6121bb8254611f1c565b6121c6828285612105565b5f601f8311600181146121f3575f84156121e1578287013590505b6121eb8582612173565b865550612252565b601f19841661220186611ff7565b5f5b8281101561222857848901358255600182019150602085019450602081019050612203565b868310156122455784890135612241601f891682612157565b8355505b6001600288020188555050505b50505050505050565b5f82825260208201905092915050565b828183375f83830152505050565b5f612284838561225b565b935061229183858461226b565b61229a8361196b565b840190509392505050565b6122ae81611a06565b82525050565b5f6060820190508181035f8301526122cd818789612279565b90506122dc60208301866122a5565b81810360408301526122ef818486612279565b9050969550505050505056fea2646970667358221220f22a65d1d769b29bf677c79bb96c76fe87a237baea23bdc9edd2f870484be9a764736f6c634300081e0033","linkReferences":{}},"methodIdentifiers":{"balanceOf(uint256,address)":"3656eec2","createProcessedToken(string,string,uint256,uint256[])":"f9191eaf","createRawToken(string,string,uint256)":"8065a3a4","getToken(uint256)":"e4b50cb8","getTokenHolder(uint256)":"ca55954c","getUserTokens(address)":"519dc8d2","roleManager()":"00435da5","transferToken(uint256,address,address,uint256)":"7e33bb20"},"id":17}