{"abi":[{"type":"constructor","inputs":[{"name":"_roleManager","type":"address","internalType":"address"}],"stateMutability":"nonpayable"},{"type":"function","name":"createProcessedToken","inputs":[{"name":"productName","type":"string","internalType":"string"},{"name":"metadataURI","type":"string","internalType":"string"},{"name":"parentIds","type":"uint256[]","internalType":"uint256[]"}],"outputs":[{"name":"tokenId","type":"uint256","internalType":"uint256"}],"stateMutability":"nonpayable"},{"type":"function","name":"createRawToken","inputs":[{"name":"productName","type":"string","internalType":"string"},{"name":"metadataURI","type":"string","internalType":"string"}],"outputs":[{"name":"tokenId","type":"uint256","internalType":"uint256"}],"stateMutability":"nonpayable"},{"type":"function","name":"getToken","inputs":[{"name":"tokenId","type":"uint256","internalType":"uint256"}],"outputs":[{"name":"","type":"tuple","internalType":"struct TokenFactory.Token","components":[{"name":"id","type":"uint256","internalType":"uint256"},{"name":"productName","type":"string","internalType":"string"},{"name":"assetType","type":"uint8","internalType":"enum TokenFactory.AssetType"},{"name":"metadataURI","type":"string","internalType":"string"},{"name":"creator","type":"address","internalType":"address"},{"name":"currentHolder","type":"address","internalType":"address"},{"name":"currentRole","type":"uint8","internalType":"enum RoleManager.Role"},{"name":"createdAt","type":"uint64","internalType":"uint64"},{"name":"parentIds","type":"uint256[]","internalType":"uint256[]"},{"name":"exists","type":"bool","internalType":"bool"}]}],"stateMutability":"view"},{"type":"function","name":"getTokenHolder","inputs":[{"name":"tokenId","type":"uint256","internalType":"uint256"}],"outputs":[{"name":"","type":"address","internalType":"address"}],"stateMutability":"view"},{"type":"function","name":"getUserTokens","inputs":[{"name":"account","type":"address","internalType":"address"}],"outputs":[{"name":"","type":"uint256[]","internalType":"uint256[]"}],"stateMutability":"view"},{"type":"function","name":"roleManager","inputs":[],"outputs":[{"name":"","type":"address","internalType":"contract RoleManager"}],"stateMutability":"view"},{"type":"function","name":"transferToken","inputs":[{"name":"tokenId","type":"uint256","internalType":"uint256"},{"name":"to","type":"address","internalType":"address"}],"outputs":[],"stateMutability":"nonpayable"},{"type":"event","name":"TokenCreated","inputs":[{"name":"tokenId","type":"uint256","indexed":true,"internalType":"uint256"},{"name":"productName","type":"string","indexed":false,"internalType":"string"},{"name":"assetType","type":"uint8","indexed":false,"internalType":"enum TokenFactory.AssetType"},{"name":"creator","type":"address","indexed":true,"internalType":"address"},{"name":"metadataURI","type":"string","indexed":false,"internalType":"string"}],"anonymous":false},{"type":"event","name":"TokenTransferred","inputs":[{"name":"tokenId","type":"uint256","indexed":true,"internalType":"uint256"},{"name":"from","type":"address","indexed":true,"internalType":"address"},{"name":"to","type":"address","indexed":true,"internalType":"address"}],"anonymous":false},{"type":"error","name":"AssetDoesNotExist","inputs":[]},{"type":"error","name":"InvalidRoleTransition","inputs":[]},{"type":"error","name":"MissingParentAssets","inputs":[]},{"type":"error","name":"NotApproved","inputs":[]},{"type":"error","name":"Unauthorized","inputs":[]}],"bytecode":{"object":"0x60a060405234801561000f575f5ffd5b50604051611ff9380380611ff9833981810160405281019061003191906100c9565b8073ffffffffffffffffffffffffffffffffffffffff1660808173ffffffffffffffffffffffffffffffffffffffff1681525050506100f4565b5f5ffd5b5f73ffffffffffffffffffffffffffffffffffffffff82169050919050565b5f6100988261006f565b9050919050565b6100a88161008e565b81146100b2575f5ffd5b50565b5f815190506100c38161009f565b92915050565b5f602082840312156100de576100dd61006b565b5b5f6100eb848285016100b5565b91505092915050565b608051611ed16101285f395f81816101aa0152818161026401528181610418015281816106830152610daa0152611ed15ff3fe608060405234801561000f575f5ffd5b506004361061007a575f3560e01c8063bad4259011610059578063bad42590146100fc578063ca55954c14610118578063d1535ad814610148578063e4b50cb8146101785761007a565b8062435da51461007e578063519dc8d21461009c578063a515f796146100cc575b5f5ffd5b6100866101a8565b6040516100939190611216565b60405180910390f35b6100b660048036038101906100b19190611272565b6101cc565b6040516100c3919061135d565b60405180910390f35b6100e660048036038101906100e191906113de565b61025f565b6040516100f3919061146b565b60405180910390f35b610116600480360381019061011191906114ae565b610393565b005b610132600480360381019061012d91906114ec565b6105eb565b60405161013f9190611526565b60405180910390f35b610162600480360381019061015d9190611594565b61067e565b60405161016f919061146b565b60405180910390f35b610192600480360381019061018d91906114ec565b610948565b60405161019f9190611909565b60405180910390f35b7f000000000000000000000000000000000000000000000000000000000000000081565b606060025f8373ffffffffffffffffffffffffffffffffffffffff1673ffffffffffffffffffffffffffffffffffffffff1681526020019081526020015f2080548060200260200160405190810160405280929190818152602001828054801561025357602002820191905f5260205f20905b81548152602001906001019080831161023f575b50505050509050919050565b5f60017f000000000000000000000000000000000000000000000000000000000000000073ffffffffffffffffffffffffffffffffffffffff166395a8c58d33836040518363ffffffff1660e01b81526004016102bd929190611938565b602060405180830381865afa1580156102d8573d5f5f3e3d5ffd5b505050506040513d601f19601f820116820180604052508101906102fc9190611989565b610332576040517fc19f17a900000000000000000000000000000000000000000000000000000000815260040160405180910390fd5b610388868686865f5f67ffffffffffffffff811115610354576103536119b4565b5b6040519080825280602002602001820160405280156103825781602001602082028036833780820191505090505b50610c9f565b915050949350505050565b5f60015f8481526020019081526020015f209050806007015f9054906101000a900460ff166103ee576040517f67fa94e700000000000000000000000000000000000000000000000000000000815260040160405180910390fd5b5f816005015f9054906101000a900473ffffffffffffffffffffffffffffffffffffffff1690505f7f000000000000000000000000000000000000000000000000000000000000000073ffffffffffffffffffffffffffffffffffffffff166327820851856040518263ffffffff1660e01b815260040161046f9190611526565b602060405180830381865afa15801561048a573d5f5f3e3d5ffd5b505050506040513d601f19601f820116820180604052508101906104ae9190611a04565b905083836005015f6101000a81548173ffffffffffffffffffffffffffffffffffffffff021916908373ffffffffffffffffffffffffffffffffffffffff160217905550808360050160146101000a81548160ff02191690836004811115610519576105186116b4565b5b02179055506105288286610f98565b60025f8573ffffffffffffffffffffffffffffffffffffffff1673ffffffffffffffffffffffffffffffffffffffff1681526020019081526020015f2085908060018154018082558091505060019003905f5260205f20015f90919091909150558373ffffffffffffffffffffffffffffffffffffffff168273ffffffffffffffffffffffffffffffffffffffff16867fa84f763be5bb36163517fb87c7af39f875a97866fdf7806eb1b3eac837ae35ea60405160405180910390a45050505050565b5f60015f8381526020019081526020015f206007015f9054906101000a900460ff16610643576040517f67fa94e700000000000000000000000000000000000000000000000000000000815260040160405180910390fd5b60015f8381526020019081526020015f206005015f9054906101000a900473ffffffffffffffffffffffffffffffffffffffff169050919050565b5f60027f000000000000000000000000000000000000000000000000000000000000000073ffffffffffffffffffffffffffffffffffffffff166395a8c58d33836040518363ffffffff1660e01b81526004016106dc929190611938565b602060405180830381865afa1580156106f7573d5f5f3e3d5ffd5b505050506040513d601f19601f8201168201806040525081019061071b9190611989565b610751576040517fc19f17a900000000000000000000000000000000000000000000000000000000815260040160405180910390fd5b5f848490500361078d576040517f1dae9e7000000000000000000000000000000000000000000000000000000000815260040160405180910390fd5b5f8484905067ffffffffffffffff8111156107ab576107aa6119b4565b5b6040519080825280602002602001820160405280156107d95781602001602082028036833780820191505090505b5090505f5b8585905081101561092a575f60015f888885818110610800576107ff611a2f565b5b9050602002013581526020019081526020015f209050806007015f9054906101000a900460ff1661085d576040517f67fa94e700000000000000000000000000000000000000000000000000000000815260040160405180910390fd5b3373ffffffffffffffffffffffffffffffffffffffff16816005015f9054906101000a900473ffffffffffffffffffffffffffffffffffffffff1673ffffffffffffffffffffffffffffffffffffffff16146108e5576040517f06708f9c00000000000000000000000000000000000000000000000000000000815260040160405180910390fd5b8686838181106108f8576108f7611a2f565b5b9050602002013583838151811061091257610911611a2f565b5b602002602001018181525050508060010190506107de565b5061093a89898989600186610c9f565b925050509695505050505050565b61095061108e565b5f60015f8481526020019081526020015f20604051806101400160405290815f820154815260200160018201805461098790611a89565b80601f01602080910402602001604051908101604052809291908181526020018280546109b390611a89565b80156109fe5780601f106109d5576101008083540402835291602001916109fe565b820191905f5260205f20905b8154815290600101906020018083116109e157829003601f168201915b50505050508152602001600282015f9054906101000a900460ff166001811115610a2b57610a2a6116b4565b5b6001811115610a3d57610a3c6116b4565b5b8152602001600382018054610a5190611a89565b80601f0160208091040260200160405190810160405280929190818152602001828054610a7d90611a89565b8015610ac85780601f10610a9f57610100808354040283529160200191610ac8565b820191905f5260205f20905b815481529060010190602001808311610aab57829003601f168201915b50505050508152602001600482015f9054906101000a900473ffffffffffffffffffffffffffffffffffffffff1673ffffffffffffffffffffffffffffffffffffffff1673ffffffffffffffffffffffffffffffffffffffff168152602001600582015f9054906101000a900473ffffffffffffffffffffffffffffffffffffffff1673ffffffffffffffffffffffffffffffffffffffff1673ffffffffffffffffffffffffffffffffffffffff1681526020016005820160149054906101000a900460ff166004811115610ba057610b9f6116b4565b5b6004811115610bb257610bb16116b4565b5b81526020016005820160159054906101000a900467ffffffffffffffff1667ffffffffffffffff1667ffffffffffffffff16815260200160068201805480602002602001604051908101604052809291908181526020018280548015610c3557602002820191905f5260205f20905b815481526020019060010190808311610c21575b50505050508152602001600782015f9054906101000a900460ff1615151515815250509050806101200151610c96576040517f67fa94e700000000000000000000000000000000000000000000000000000000815260040160405180910390fd5b80915050919050565b5f5f5f8154610cad90611ae6565b91905081905590505f60015f8381526020019081526020015f20905081815f01819055508787826001019182610ce4929190611cce565b5083816002015f6101000a81548160ff02191690836001811115610d0b57610d0a6116b4565b5b02179055508585826003019182610d23929190611cce565b5033816004015f6101000a81548173ffffffffffffffffffffffffffffffffffffffff021916908373ffffffffffffffffffffffffffffffffffffffff16021790555033816005015f6101000a81548173ffffffffffffffffffffffffffffffffffffffff021916908373ffffffffffffffffffffffffffffffffffffffff1602179055507f000000000000000000000000000000000000000000000000000000000000000073ffffffffffffffffffffffffffffffffffffffff166327820851336040518263ffffffff1660e01b8152600401610e019190611526565b602060405180830381865afa158015610e1c573d5f5f3e3d5ffd5b505050506040513d601f19601f82011682018060405250810190610e409190611a04565b8160050160146101000a81548160ff02191690836004811115610e6657610e656116b4565b5b0217905550428160050160156101000a81548167ffffffffffffffff021916908367ffffffffffffffff1602179055506001816007015f6101000a81548160ff0219169083151502179055505f83511115610ed55782816006019080519060200190610ed3929190611136565b505b60025f3373ffffffffffffffffffffffffffffffffffffffff1673ffffffffffffffffffffffffffffffffffffffff1681526020019081526020015f2082908060018154018082558091505060019003905f5260205f20015f90919091909150553373ffffffffffffffffffffffffffffffffffffffff16827f73532e6870cc665e353013e08cbe45f5d7bc575f5b233c41de9c5b7215db64418a8a888b8b604051610f85959493929190611df4565b60405180910390a3509695505050505050565b5f60025f8473ffffffffffffffffffffffffffffffffffffffff1673ffffffffffffffffffffffffffffffffffffffff1681526020019081526020015f2090505f818054905090505f5b818110156110875783838281548110610ffe57610ffd611a2f565b5b905f5260205f2001540361107c578260018361101a9190611e3b565b8154811061102b5761102a611a2f565b5b905f5260205f20015483828154811061104757611046611a2f565b5b905f5260205f2001819055508280548061106457611063611e6e565b5b600190038181905f5260205f20015f90559055611087565b806001019050610fe2565b5050505050565b6040518061014001604052805f8152602001606081526020015f60018111156110ba576110b96116b4565b5b8152602001606081526020015f73ffffffffffffffffffffffffffffffffffffffff1681526020015f73ffffffffffffffffffffffffffffffffffffffff1681526020015f6004811115611111576111106116b4565b5b81526020015f67ffffffffffffffff168152602001606081526020015f151581525090565b828054828255905f5260205f20908101928215611170579160200282015b8281111561116f578251825591602001919060010190611154565b5b50905061117d9190611181565b5090565b5b80821115611198575f815f905550600101611182565b5090565b5f73ffffffffffffffffffffffffffffffffffffffff82169050919050565b5f819050919050565b5f6111de6111d96111d48461119c565b6111bb565b61119c565b9050919050565b5f6111ef826111c4565b9050919050565b5f611200826111e5565b9050919050565b611210816111f6565b82525050565b5f6020820190506112295f830184611207565b92915050565b5f5ffd5b5f5ffd5b5f6112418261119c565b9050919050565b61125181611237565b811461125b575f5ffd5b50565b5f8135905061126c81611248565b92915050565b5f602082840312156112875761128661122f565b5b5f6112948482850161125e565b91505092915050565b5f81519050919050565b5f82825260208201905092915050565b5f819050602082019050919050565b5f819050919050565b6112d8816112c6565b82525050565b5f6112e983836112cf565b60208301905092915050565b5f602082019050919050565b5f61130b8261129d565b61131581856112a7565b9350611320836112b7565b805f5b8381101561135057815161133788826112de565b9750611342836112f5565b925050600181019050611323565b5085935050505092915050565b5f6020820190508181035f8301526113758184611301565b905092915050565b5f5ffd5b5f5ffd5b5f5ffd5b5f5f83601f84011261139e5761139d61137d565b5b8235905067ffffffffffffffff8111156113bb576113ba611381565b5b6020830191508360018202830111156113d7576113d6611385565b5b9250929050565b5f5f5f5f604085870312156113f6576113f561122f565b5b5f85013567ffffffffffffffff81111561141357611412611233565b5b61141f87828801611389565b9450945050602085013567ffffffffffffffff81111561144257611441611233565b5b61144e87828801611389565b925092505092959194509250565b611465816112c6565b82525050565b5f60208201905061147e5f83018461145c565b92915050565b61148d816112c6565b8114611497575f5ffd5b50565b5f813590506114a881611484565b92915050565b5f5f604083850312156114c4576114c361122f565b5b5f6114d18582860161149a565b92505060206114e28582860161125e565b9150509250929050565b5f602082840312156115015761150061122f565b5b5f61150e8482850161149a565b91505092915050565b61152081611237565b82525050565b5f6020820190506115395f830184611517565b92915050565b5f5f83601f8401126115545761155361137d565b5b8235905067ffffffffffffffff81111561157157611570611381565b5b60208301915083602082028301111561158d5761158c611385565b5b9250929050565b5f5f5f5f5f5f606087890312156115ae576115ad61122f565b5b5f87013567ffffffffffffffff8111156115cb576115ca611233565b5b6115d789828a01611389565b9650965050602087013567ffffffffffffffff8111156115fa576115f9611233565b5b61160689828a01611389565b9450945050604087013567ffffffffffffffff81111561162957611628611233565b5b61163589828a0161153f565b92509250509295509295509295565b5f81519050919050565b5f82825260208201905092915050565b8281835e5f83830152505050565b5f601f19601f8301169050919050565b5f61168682611644565b611690818561164e565b93506116a081856020860161165e565b6116a98161166c565b840191505092915050565b7f4e487b71000000000000000000000000000000000000000000000000000000005f52602160045260245ffd5b600281106116f2576116f16116b4565b5b50565b5f819050611702826116e1565b919050565b5f611711826116f5565b9050919050565b61172181611707565b82525050565b61173081611237565b82525050565b60058110611747576117466116b4565b5b50565b5f81905061175782611736565b919050565b5f6117668261174a565b9050919050565b6117768161175c565b82525050565b5f67ffffffffffffffff82169050919050565b6117988161177c565b82525050565b5f82825260208201905092915050565b5f6117b88261129d565b6117c2818561179e565b93506117cd836112b7565b805f5b838110156117fd5781516117e488826112de565b97506117ef836112f5565b9250506001810190506117d0565b5085935050505092915050565b5f8115159050919050565b61181e8161180a565b82525050565b5f61014083015f83015161183a5f8601826112cf565b5060208301518482036020860152611852828261167c565b91505060408301516118676040860182611718565b506060830151848203606086015261187f828261167c565b91505060808301516118946080860182611727565b5060a08301516118a760a0860182611727565b5060c08301516118ba60c086018261176d565b5060e08301516118cd60e086018261178f565b506101008301518482036101008601526118e782826117ae565b9150506101208301516118fe610120860182611815565b508091505092915050565b5f6020820190508181035f8301526119218184611824565b905092915050565b6119328161175c565b82525050565b5f60408201905061194b5f830185611517565b6119586020830184611929565b9392505050565b6119688161180a565b8114611972575f5ffd5b50565b5f815190506119838161195f565b92915050565b5f6020828403121561199e5761199d61122f565b5b5f6119ab84828501611975565b91505092915050565b7f4e487b71000000000000000000000000000000000000000000000000000000005f52604160045260245ffd5b600581106119ed575f5ffd5b50565b5f815190506119fe816119e1565b92915050565b5f60208284031215611a1957611a1861122f565b5b5f611a26848285016119f0565b91505092915050565b7f4e487b71000000000000000000000000000000000000000000000000000000005f52603260045260245ffd5b7f4e487b71000000000000000000000000000000000000000000000000000000005f52602260045260245ffd5b5f6002820490506001821680611aa057607f821691505b602082108103611ab357611ab2611a5c565b5b50919050565b7f4e487b71000000000000000000000000000000000000000000000000000000005f52601160045260245ffd5b5f611af0826112c6565b91507fffffffffffffffffffffffffffffffffffffffffffffffffffffffffffffffff8203611b2257611b21611ab9565b5b600182019050919050565b5f82905092915050565b5f819050815f5260205f209050919050565b5f6020601f8301049050919050565b5f82821b905092915050565b5f60088302611b937fffffffffffffffffffffffffffffffffffffffffffffffffffffffffffffffff82611b58565b611b9d8683611b58565b95508019841693508086168417925050509392505050565b5f611bcf611bca611bc5846112c6565b6111bb565b6112c6565b9050919050565b5f819050919050565b611be883611bb5565b611bfc611bf482611bd6565b848454611b64565b825550505050565b5f5f905090565b611c13611c04565b611c1e818484611bdf565b505050565b5b81811015611c4157611c365f82611c0b565b600181019050611c24565b5050565b601f821115611c8657611c5781611b37565b611c6084611b49565b81016020851015611c6f578190505b611c83611c7b85611b49565b830182611c23565b50505b505050565b5f82821c905092915050565b5f611ca65f1984600802611c8b565b1980831691505092915050565b5f611cbe8383611c97565b9150826002028217905092915050565b611cd88383611b2d565b67ffffffffffffffff811115611cf157611cf06119b4565b5b611cfb8254611a89565b611d06828285611c45565b5f601f831160018114611d33575f8415611d21578287013590505b611d2b8582611cb3565b865550611d92565b601f198416611d4186611b37565b5f5b82811015611d6857848901358255600182019150602085019450602081019050611d43565b86831015611d855784890135611d81601f891682611c97565b8355505b6001600288020188555050505b50505050505050565b5f82825260208201905092915050565b828183375f83830152505050565b5f611dc48385611d9b565b9350611dd1838584611dab565b611dda8361166c565b840190509392505050565b611dee81611707565b82525050565b5f6060820190508181035f830152611e0d818789611db9565b9050611e1c6020830186611de5565b8181036040830152611e2f818486611db9565b90509695505050505050565b5f611e45826112c6565b9150611e50836112c6565b9250828203905081811115611e6857611e67611ab9565b5b92915050565b7f4e487b71000000000000000000000000000000000000000000000000000000005f52603160045260245ffdfea2646970667358221220c270602ab95f3342261fbb83bba1da95347cd68f8abcaf9848623824047bf2d364736f6c634300081e0033","linkReferences":{}},"methodIdentifiers":{"createProcessedToken(string,string,uint256[])":"d1535ad8","createRawToken(string,string)":"a515f796","getToken(uint256)":"e4b50cb8","getTokenHolder(uint256)":"ca55954c","getUserTokens(address)":"519dc8d2","roleManager()":"00435da5","transferToken(uint256,address)":"bad42590"},"id":17}